:020000040800F2
:1000000078DD002015020008054D00088B2100084E
:10001000014D0008450800083D520008000000009E
:10002000000000000000000000000000434D000838
:100030004908000800000000414D00089B4D0008E1
:100040002F0200082F0200082F0200082F020008CC
:100050002F0200082F0200082F0200082F020008BC
:100060002F0200082F0200082F0200082F020008AC
:100070002F0200082F0200082F0200082F0200089C
:100080002F0200082F0200082F0200082F0200088C
:100090002F0200082F0200082F0200082F0200087C
:1000A0002F0200082F0200082F0200082F0200086C
:1000B0002F020008FD4D00080D4E00082F02000819
:1000C0002F0200082F0200082F0200082F0200084C
:1000D0002F020008FD5100082F0200082F0200081F
:1000E0002F0200082F0200082F0200082F0200082C
:1000F0002F0200082F0200082F0200082F0200081C
:100100002F0200082F0200082F0200082F0200080B
:100110002F0200082F0200082F0200082F020008FB
:100120002F0200082F0200082F0200082F020008EB
:1001300000F002F800F05FF80AA090E8000C82449A
:100140008344AAF10107DA4501D100F054F8AFF277
:10015000090EBAE80F0013F0010F18BFFB1A43F0A5
:100160000103184704B9030024B903000A444FF0FF
:10017000000C10F8013B13F0070408BF10F8014B06
:100180001D1108BF10F8015B641E05D010F8016B4B
:10019000641E01F8016BF9D113F0080F1EBF10F8AF
:1001A000014BAD1C0C1B09D16D1E58BF01F801CBD2
:1001B000FAD505E014F8016B01F8016B6D1EF9D555
:1001C0009142D6D37047000000230024002500266A
:1001D000103A28BF78C1FBD8520728BF30C148BFAA
:1001E0000B607047782900F0ED80002070471FB544
:1001F0001FBD10B510BD00F0F3FA1146FFF7F7FF71
:1002000031F014FB00F011FB03B4FFF7F2FF03BC65
:1002100008F0BAFD0948804709480047FEE7FEE7B5
:10022000FEE7FEE7FEE7FEE7FEE7FEE7FEE7FEE7A6
:1002300004480549054A064B70470000A54D0008D3
:1002400031010008789D002078DD002078BD002075
:1002500078BD0020704753EA020C00F069802DE958
:10026000F04B4FF00006002B1FBFB3FA83F503FAE3
:1002700005F424FA05F65E4012BF1643B2FA82F581
:1002800002FA05F4C5F120051EBF22FA05FC44EA76
:100290000C04203556EA044C4FEA144418BF641C81
:1002A0004FF000084FF00009904271EB030C39D376
:1002B000002919BFB1FA81F701FA07F6B0FA80F701
:1002C00000FA07F6C7F120071EBF20FA07FC46EA2E
:1002D0000C062037B6FBF4FCA7EB0507103F07F030
:1002E0001F0BCBF120060CFA0BFB2CFA06F644BFD1
:1002F000B3460026202FA4BF5E464FF0000B5BEAFA
:10030000060C08BF4FF0010B19EB0B09ABFB027C8D
:1003100048EB0608C01B06FB02CC0BFB03CC71EBC1
:100320000C01C1E70B46024641464846BDE8F08B4A
:1003300013B54FF000004FF00001AFF30080BDE8AF
:100340001C4070470FB4044910B503AA029800F08E
:10035000F7F910BC5DF814FB040000202DE9F04112
:100360000E460446002020622046E168884730B3EC
:10037000252805D0D4E901219047206A401CF2E7E6
:10038000E168204600278847050018D0A5F1410004
:10039000192802D820354FF40067324629462046F6
:1003A0002760FFF71FFF40B1012804D0F61D26F09B
:1003B00007060836D8E7361DD6E72846DAE7206A6A
:1003C000BDE8F08170B504460D4621461068AFF3D4
:1003D00000802188090502D50F4A7A4402E00E4ABE
:1003E0007A440E32002104F1240305E000F00F06E8
:1003F0000009965D5E54491C0028F7D1207800233F
:10040000000704D5702D02D009B102231132204615
:10041000BDE8704000F03AB978B2030040EA010349
:1004200010B59B070FD1042A0DD310C808C9121F9D
:100430009C42F8D020BA19BA884201D9012010BDD7
:100440004FF0FF3010BD1AB1D30703D0521C07E0A4
:10045000002010BD10F8013B11F8014B1B1B07D108
:1004600010F8013B11F8014B1B1B01D1921EF1D179
:10047000184610BD40EA0103024630B59B0710D173
:100480004FF0013400E008C208C91D1B9D4315EA66
:10049000C41FF8D013F0FF0102F8011B0DD01B0A96
:1004A000F8E711F8013B002B02F8013B05D011F8E9
:1004B000013B002B02F8013BF3D130BD10B5431CCA
:1004C00002E010F8011B71B18107FAD14FF001323F
:1004D00002C88C1A8C4314EAC211F9D0C01A0A0659
:1004E00003D0C01E10BDC01A10BD0A0401D0801E6A
:1004F00010BD0902FCD0401E10BD10B5203AC0F05E
:100500000B80B1E81850203AA0E81850B1E8185014
:10051000A0E81850BFF4F5AF5FEA027C24BFB1E851
:100520001850A0E8185044BF18C918C0BDE81040C2
:100530005FEA827C24BF51F8043B40F8043B08BFCB
:100540007047D20728BF31F8023B48BF11F8012B92
:1005500028BF20F8023B48BF00F8012B70474FF03E
:10056000000200B5134694469646203922BFA0E803
:100570000C50A0E80C50B1F12001BFF4F7AF09070F
:1005800028BFA0E80C5048BF0CC05DF804EB890000
:1005900028BF40F8042B08BF704748BF20F8022B43
:1005A00011F0804F18BF00F8012B704710B50446BA
:1005B00010F0030F08BF11F0030F40F015804FF04B
:1005C000013E121FC0F20E8051F8043BA3EB0E0C4B
:1005D0002CEA030C1CEACE1C08BF40F8043BF0D008
:1005E000A1F1040102F10402521E08DB11F8013BE3
:1005F000002B00F8013BF7D1114600F0B3F820467C
:1006000010BD00004FF0013C50F8042B51F8043BA2
:100610009A4221D1A2EB0C03934313EACC1317D1D6
:1006200050F8042B51F8043B9A4215D1A2EB0C036D
:10063000934313EACC130BD150F8042B51F8043B2D
:100640009A4209D1A2EB0C03934313EACC13DBD0FB
:100650004FF00000704700BFD01A01BAB1FA81F123
:1006600001F0180122FA01F0CB40C1F12001DBB208
:10067000C0B2C01A2CFA01F3D11A914311EAC31186
:10068000E6D1704770477047704770472DE9F047D3
:100690000D4699469246044600F1240801688806F2
:1006A00004D5E06921F01001216000E00120A8429A
:1006B00001DD471B00E00027A1697A1902EB090060
:1006C000081AA0612078C00602D42046AFF300804B
:1006D000002608E0D4E901211AF806009047206AB4
:1006E000401C761C20624E45F4DB2078C0060AD5FB
:1006F0002046AFF3008006E0D4E901213020904786
:10070000206A401C2062381EA7F10107F4DC07E0D4
:10071000D4E9012118F805009047206A401C2062A6
:10072000281EA5F10105F3DC2046AFF300802078F8
:10073000000602D50220BDE8F0870120FBE700009B
:10074000074B70B50D467B4400F033F8044628464D
:1007500000F042F810B14FF0FF3070BD204670BD80
:10076000DF2401004FF000020429C0F0128010F0D5
:10077000030C3FF4F6AECCF1040CBCF1020F18BF31
:1007800000F8012BA8BF20F8022BA1EB0C01FFF70A
:10079000E8BE5FEAC17C24BF00F8012B00F8012B02
:1007A00048BF00F8012B704701694A1C02610878B4
:1007B000704700B58FB0CDE90131002105910549A1
:1007C0007944CDE9031011466846FFF7C7FD0FB025
:1007D00000BD0000E5FFFFFF007B00F080007047D8
:1007E000754600F02BF8AE4605006946534620F0EA
:1007F0000700854618B020B5FFF71AFDBDE8204078
:100800004FF000064FF000074FF000084FF0000BCC
:1008100021F00701AC46ACE8C009ACE8C009ACE87F
:10082000C009ACE8C0098D46704710B50446AFF367
:1008300000802046BDE81040FFF7E6BC0048704746
:10084000189D002000BFFEE77047000070B5044609
:10085000B3F5804F24D1F02696FAA6F6B6FA86F6BE
:10086000D1E90005B54028434FF47F4696FAA6F635
:10087000B6FA86F68D68B54028438D6928434FF453
:10088000702696FAA6F6B6FA86F6CD68B5402843E5
:1008900054F82250054E3540284344F8220003E026
:1008A0006FF0704044F82200002070BD0000F0CFCF
:1008B00010B50246086852F8200020F001000B68CD
:1008C00042F823008868082822D1486840F0400098
:1008D0008B681843CB6818430B6918434B6918435E
:1008E0008B691843CB6918430B6A18434B6A18434A
:1008F0008B6A1843CB6A18430B6B18430B6852F88A
:100900002330144C234018430B6842F823001FE0A7
:10091000D1E901031843CB6818430B6918434B69AD
:1009200018438B691843CB6918430B6A18434B6A09
:1009300018438B6A1843CB6A18430B6B18430B6838
:1009400052F82330034C234018430B6842F823002D
:10095000002010BD8100F7FF30B50346F02595FA61
:10096000A5F5B5FA85F5D1E90004AC4020434FF474
:100970007F4595FAA5F5B5FA85F58C68AC4020431E
:100980004FF4702595FAA5F5B5FA85F5CC68AC401D
:1009900020430C69641E4FF4700595FAA5F5B5FA6D
:1009A00085F5AC4020434C69A41E4FF0706595FA64
:1009B000A5F5B5FA85F5AC4020438C692043541C5D
:1009C00053F8244004F040442043541C43F82400CE
:1009D000002030BD31B5002400F0AAF9044600BF64
:1009E00000F0A6F9001B00998842F9D338BD000039
:1009F0002DE9F84702460024002000258446002700
:100A000000237BE14FF0010808FA03F4D1F80080DD
:100A100008EA0400A0427DD1DFF8ECA2D1F80480FE
:100A2000A8EB0A09D0453AD014DCB8F1030F50D036
:100A300009DCB8F1000F31D0B8F1010F1CD0B8F1CA
:100A4000020F49D120E0B8F1110F18D0B8F1120F00
:100A500042D11EE0B9F5881F25D006DCB9F5803FEC
:100A600020D0B9F5801F37D11AE0B9F5001F18D092
:100A7000B9F5041F30D117E0D1F80CC02DE0D1F842
:100A80000C8008F1040C28E0D1F80C8008F1080C67
:100A900023E0D1F80C8008F10C0C1EE000BF00BF71
:100AA00000BF00BF00BF00BFD1F80880B8F1000F41
:100AB00002D14FF0040C0BE0D1F80880B8F1010F1F
:100AC00003D14FF0080C146102E04FF0080C5461A0
:100AD00003E04FF0000C00E000BF00BFFF2801D88A
:100AE000904601E002F104084646FF2802D84FEA8A
:100AF000830803E0A3F108084FEA88084746D6F8C0
:100B000000804FF00F0909FA07F928EA09080CFAE2
:100B100007F900E07AE048EA0908C6F80080D1F851
:100B2000048008F08058B8F1805F6FD100BFDFF813
:100B3000DC81D8F8188048F00108DFF8D091C9F8B6
:100B40001880C846D8F8188008F00108CDF8008051
:100B500000BF00BF4FEAB9384FEA930958F829504F
:100B60004FEA83784FEA18794FF00F0808FA09F82E
:100B700025EA0805DFF89881424502D14FF00008C8
:100B800024E0DFF89081424502D14FF001081DE0DA
:100B9000DFF88481424502D14FF0020816E0DFF809
:100BA0007C81424502D14FF003080FE0DFF87081ED
:100BB000424502D14FF0040808E0DFF86881424561
:100BC00002D14FF0050801E04FF006084FEA8379A3
:100BD0004FEA197908FA09F848EA0505DFF848816B
:100BE0004FEA930948F82950D1F8048008F4803876
:100BF000B8F5803F0BD1DFF83481D8F8008048EA9F
:100C00000008DFF82891C9F800800AE075E0DFF8F5
:100C10001C81D8F8008028EA0008DFF81091C9F894
:100C20000080D1F8048008F40038B8F5003F0ED1F8
:100C3000DFF8F88008F10408D8F8008048EA0008D6
:100C4000DFF8E89009F10409C9F800800DE0DFF849
:100C5000DC8008F10408D8F8008028EA0008DFF8F2
:100C6000CC9009F10409C9F80080D1F8048008F497
:100C70008018B8F5801F0ED1DFF8B08008F10808A1
:100C8000D8F8008048EA0008DFF8A09009F10809C8
:100C9000C9F800800DE0DFF8948008F10808D8F862
:100CA000008028EA0008DFF8849009F10809C9F8F3
:100CB0000080D1F8048008F40018B8F5001F0ED1A8
:100CC000DFF8688008F10C08D8F8008048EA0008CE
:100CD000DFF8589009F10C09C9F800800DE0DFF841
:100CE0004C8008F10C08D8F8008028EA0008DFF8EA
:100CF0003C9009F10C09C9F800805B1C102BFFF433
:100D000081AEBDE8F887000000001110001002401D
:100D100000080140000C0140001001400014014097
:100D200000180140001C014008000140000401407F
:100D30000148006870470000100000200248006869
:100D4000401C0149086070471000002010B5084899
:100D5000006840F0100006490860032000F068F8C1
:100D60000F2000F007F800F017F8002010BD000079
:100D70000020024070B5044600F0BAF94FF47A71D1
:100D8000B0FBF1F5284600F019FF00222146501E65
:100D900000F010F8002070BD704700BF00F01F0287
:100DA000012191404209920002F1E022C2F80011B3
:100DB00000BF70472DE9F05F80460D4616460027BC
:100DC00003F0A2FF074639462A46334601F00700E2
:100DD000C0F1070ABAF1040F02D94FF0040A01E08A
:100DE000C0F1070AD14600F1040ABAF1070F02D296
:100DF0004FF0000A01E0A0F1030AD4464FF0010AC7
:100E00000AFA09FAAAF1010A0AEA020A0AFA0CFA2B
:100E10004FF0010B0BFA0CFBABF1010B0BEA030BD0
:100E20004AEA0B042146404603F076FFBDE8F09FF6
:100E300000BF00F00702064B19684FF6FF03194088
:100E4000044B0B4343EA0221014B196000BF70477A
:100E50000CED00E00000FA0570B504460D460026D2
:100E60009F48006800F00700A8420ED29C48006826
:100E700020F0070028439A4908600846006800F0FF
:100E80000700A84201D0012070BD207800F00200C8
:100E9000022807D19348406820F0F000A168084379
:100EA00090494860207800F0010000287CD06068FC
:100EB00001282DD12020010391FAA1F1B1FA81F18D
:100EC00008430121B1EB601F02D1864800680FE0A2
:100ED0002020010391FAA1F1B1FA81F10843022126
:100EE000B1EB601F02D17F48006A01E07D48406A93
:100EF00020210A0392FAA2F2B2FA82F2114301F01F
:100F00001F02012191400840002860D10120BBE769
:100F1000606802282CD12020010591FAA1F1B1FAD4
:100F200081F108430121B1EB601F02D16D480068D7
:100F30000FE02020010591FAA1F1B1FA81F10843F7
:100F40000221B1EB601F02D16648006A01E06548EA
:100F5000406A20210A0592FAA2F2B2FA82F2114303
:100F600001F01F0201219140084078BB01208BE76E
:100F70002020022191FAA1F1B1FA81F10843012167
:100F8000B1EB601F02D15748006810E02020022119
:100F900091FAA1F1B1FA81F108430221B1EB601F8E
:100FA00003D15048006A02E054E04E48406A2021D4
:100FB000022292FAA2F2B2FA82F2114301F01F0267
:100FC00001219140084008B901205DE7FFE745484D
:100FD000406820F003006168084342494860FFF719
:100FE000A7FE06466068012810D108E0FFF7A0FEC2
:100FF000801B41F28831884201D9032044E73948F7
:10100000406800F00C000428F0D123E0606802285A
:1010100010D108E0FFF78CFE801B41F28831884236
:1010200001D9032030E72F48406800F00C00082861
:10103000F0D10FE008E0FFF77BFE801B41F2883122
:10104000884201D903201FE72648406800F00C00C1
:101050000028F0D12248006800F00700A8420ED90D
:101060001F48006820F0070028431D490860084613
:10107000006800F00700A84201D0012004E72078B2
:1010800000F00400042807D11648406820F4E0600E
:10109000E168084313494860207800F008000828F8
:1010A00008D11048406820F46050216940EAC1002E
:1010B0000C49486000F04EF80A49496801F0F00117
:1010C000F02292FAA2F2B2FA82F2D140064A515CC0
:1010D000C840064908600F20FFF74CFE0020D3E609
:1010E0000020024000100240E47B030800000020C2
:1010F00001480068704700000000002000B5FFF7BD
:10110000F7FF0749496801F4E0614FF4E06292FAA1
:10111000A2F2B2FA82F2D140024A515CC84000BD4C
:1011200000100240F47B030800B5FFF7E1FF074918
:10113000496801F460514FF4605292FAA2F2B2FA97
:1011400082F2D140024A515CC84000BD001002400A
:10115000F47B0308F0B585B00FF28C0C9CE8E0102E
:1011600001A8A0E8E01024A52D6800950021002426
:10117000002200230020214D696801F00C056DB3A9
:10118000042D02D0082D28D101E01D4828E001F4EB
:1011900070154FF4701696FAA6F6B6FA86F6F54074
:1011A00001AE735D01F4803595B1144D6D6805F4A1
:1011B00000354FF4003696FAA6F6B6FA86F6F540F4
:1011C0001DF805400E4DB5FBF4F505FB03F202E0FA
:1011D0000C4D03FB05F2104602E000BF084800BFBB
:1011E00000BF05B0F0BD00000203040506070809B2
:1011F0000A0B0C0D0E0F101001020000001002402F
:1012000000127A0000093D0038B504460025207818
:1012100000F0010000287CD0F848406800F00C0085
:1012200004280CD0F548406800F00C00082837D19D
:10123000F248406800F48030B0F5803F30D1202083
:10124000010391FAA1F1B1FA81F108430121B1EB57
:10125000601F02D1E94800680FE02020010391FAE5
:10126000A1F1B1FA81F108430221B1EB601F02D173
:10127000E248006A01E0E148406A20210A0392FA4C
:10128000A2F2B2FA82F2114301F01F020121914051
:1012900008400028BFD0606800283AD1012038BD3E
:1012A00000BF6068B0F5803F06D1D448006840F4C4
:1012B0008030D249086028E0606858B9CF4800689B
:1012C00020F48030CD4908600846006820F4802072
:1012D00008601AE06068B0F5A02F0BD1C74800681D
:1012E00040F48020C54908600846006840F480301A
:1012F00008600AE0C148006820F48030BF490860F7
:101300000846006820F48020086000BF6068C8B309
:1013100000E06FE0FFF70CFD054606E0FFF708FD73
:10132000401B642801D90320B9E72020010391FA6A
:10133000A1F1B1FA81F108430121B1EB601F02D1A3
:10134000AE4800680FE02020010391FAA1F1B1FA44
:1013500081F108430221B1EB601F02D1A748006A66
:1013600001E0A648406A20210A0392FAA2F2B2FAEA
:1013700082F2114301F01F02012191400840002830
:10138000CCD037E0FFE7FFF7D3FC054606E0FFF7D8
:10139000CFFC401B642801D9032080E720200103F3
:1013A00091FAA1F1B1FA81F108430121B1EB601F7B
:1013B00002D1924800680FE02020010391FAA1F1C8
:1013C000B1FA81F108430221B1EB601F02D18B48D1
:1013D000006A01E08948406A20210A0392FAA2F2D9
:1013E000B2FA82F2114301F01F020121914008403C
:1013F0000028CCD1207800F0020002284ED17F488E
:10140000406800F00C0050B17C48406800F00C00CF
:10141000082844D17948406800F4803078BB202007
:10142000022191FAA1F1B1FA81F108430121B1EB56
:10143000601F02D1714800680FE02020022191FA5C
:10144000A1F1B1FA81F108430221B1EB601F02D191
:101450006A48006A01E06948406A2021022292FA43
:10146000A2F2B2FA82F2114301F01F02012191406F
:10147000084028B12069012802D001200FE70EE0C2
:101480005E48006820F0F800F82292FAA2F2B2FA60
:1014900082F26169914008435849086091E02069EF
:1014A000F0B3012090FAA0F1B1FA81F1544A42F868
:1014B0002100FFF73DFC054606E0FFF739FC401B25
:1014C000022801D90320EAE62020022191FAA1F1A5
:1014D000B1FA81F108430121B1EB601F02D1474805
:1014E00000680FE02020022191FAA1F1B1FA81F108
:1014F00008430221B1EB601F02D14048006A01E0BD
:101500003E48406A2021022292FAA2F2B2FA82F206
:10151000114301F01F02012191400840002800E022
:101520000FE0CAD03548006820F0F800F82292FA9F
:10153000A2F2B2FA82F26169914008432F49086031
:101540003FE00020012191FAA1F1B1FA81F12C4A8A
:1015500042F82100FFF7ECFB054606E0FFF7E8FB49
:10156000401B022801D9032099E62020022191FA8C
:10157000A1F1B1FA81F108430121B1EB601F02D161
:101580001E4800680FE02020022191FAA1F1B1FA73
:1015900081F108430221B1EB601F02D11748006AB4
:1015A00001E01648406A2021022292FAA2F2B2FA21
:1015B00082F2114301F01F020121914008400028EE
:1015C000CCD1207800F0080008284BD1A069A8B33E
:1015D000012191FAA1F0B0FA80F0094A02EB8000F3
:1015E000C0F88014FFF7A4FB05460BE0FFF7A0FB53
:1015F000401B022806D9032051E6000000100240DB
:10160000000042426020022191FAA1F1B1FA81F179
:1016100008430121B1EB601F02D1F948006810E0D6
:101620006020022191FAA1F1B1FA81F1084302216F
:10163000B1EB601F03D1F248006A02E013E0F0480A
:10164000406A6021022292FAA2F2B2FA82F21143B7
:1016500001F01F020121914008400028C6D001205E
:10166000FFF7B8F941E00020012191FAA1F1B1FAA8
:1016700081F1E44A02EB8101C1F88004FFF758FBD5
:10168000054606E0FFF754FB401B022801D9032062
:1016900005E66020022191FAA1F1B1FA81F1084337
:1016A0000121B1EB601F02D1D54800680FE0602036
:1016B000022191FAA1F1B1FA81F108430221B1EBC3
:1016C000601F02D1CE48006A01E0CD48406A602127
:1016D000022292FAA2F2B2FA82F2114301F01F0240
:1016E0000121914008400028CCD1207800F004006E
:1016F000042875D100BFC248C06940F08050C0497D
:10170000C8610846C06900F08050009000BF00BF6B
:10171000BD48006840F48070BB490860FFF708FBD3
:10172000054606E0FFF704FB401B642801D90320AF
:10173000B5E5B548006800F480700028F2D000BF1D
:10174000E068012806D1AE48006A40F00100AC49CB
:10175000086227E0E06858B9A948006A20F0010053
:10176000A74908620846006A20F00400086219E0F0
:10177000E06805280BD1A248006A40F00400A049A7
:1017800008620846006A40F0010008620AE09C48CE
:10179000006A20F001009A4908620846006A20F0B9
:1017A0000400086200BFE068D0B3FFF7C1FA054645
:1017B00008E0FFF7BDFA401B41F28831884201D9A9
:1017C00003206CE54020022191FAA1F1B1FA81F1E8
:1017D00008430121B1EB601F03D18948006810E084
:1017E00058E04020022191FAA1F1B1FA81F10843B9
:1017F0000221B1EB601F02D18148006A01E08048FC
:10180000406A4021022292FAA2F2B2FA82F2114315
:1018100001F01F020121914008400028C9D039E0A1
:10182000FFE7FFF785FA054608E0FFF781FA401B5E
:1018300041F28831884201D9032030E5402002215D
:1018400091FAA1F1B1FA81F108430121B1EB601FD6
:1018500002D16B4800680FE04020022191FAA1F10B
:10186000B1FA81F108430221B1EB601F02D1644853
:10187000006A01E06248406A4021022292FAA2F224
:10188000B2FA82F2114301F01F0201219140084097
:101890000028CAD1E069002873D05948406800F098
:1018A0000C0008286ED0E06902286CD100204FF0AF
:1018B000807191FAA1F1B1FA81F1524A42F8210006
:1018C000FFF736FA054606E0FFF732FA401B02281A
:1018D00001D90320E3E42020010591FAA1F1B1FA36
:1018E00081F108430121B1EB601F02D14448006837
:1018F0000FE02020010591FAA1F1B1FA81F108432E
:101900000221B1EB601F02D13D48006A01E03C4872
:10191000406A20210A0592FAA2F2B2FA82F2114339
:1019200001F01F020121914008400028CCD1206A1B
:10193000B0F5803F07D13248406820F40030A168FC
:1019400008432F494860D4E9080108432C494968F5
:1019500021F4741108432A4948600121080690FACD
:10196000A0F0B0FA80F0274A42F82010FFF7E0F923
:10197000054609E0FFF7DCF9401B022804D90320E3
:101980008DE479E076E02CE02020010591FAA1F1C8
:10199000B1FA81F108430121B1EB601F02D118486F
:1019A00000680FE02020010591FAA1F1B1FA81F160
:1019B00008430221B1EB601F02D11148006A01E027
:1019C0000F48406A20210A0592FAA2F2B2FA82F286
:1019D000114301F01F020121914008400028C9D0A5
:1019E0004AE000204FF0807191FAA1F1B1FA81F143
:1019F000044A42F82100FFF79BF905460DE000007C
:101A0000001002400000424200700040FFF790F9D1
:101A1000401B022801D9032041E42020010591FA4E
:101A2000A1F1B1FA81F108430121B1EB601F02D1AC
:101A3000124800680FE02020010591FAA1F1B1FAE7
:101A400081F108430221B1EB601F02D10B48006A0B
:101A500001E00A48406A20210A0592FAA2F2B2FA8D
:101A600082F2114301F01F02012191400840002839
:101A7000CCD101E0012012E4002010E4001002406B
:101A800070B504460E4615460CB9012070BD94F899
:101A90003D0028B9002084F83C00204600F01CF8E6
:101AA00004F108012068FEF703FF3146A2682068B0
:101AB000FEF752FF2946236BD4E90102FEF7C6FE6A
:101AC000A168206850F8210040F00100A268216858
:101AD00041F822000020D9E710B586B0044600BFC7
:101AE0002848406940F480702649486108464069AA
:101AF00000F48070019000BF00BF00BF08468069FD
:101B000040F0200088610846806900F020000190C4
:101B100000BF00BF00BF0846806940F040008861F8
:101B20000846806900F04000019000BF00BF00BF80
:101B30000846806940F4807088610846806900F436
:101B40008070019000BF00BF4CF233700290022001
:101B50000390012004900320059002A90A48FEF793
:101B600047FF4FF68070029002A90848FEF740FF39
:101B700041F20100029002A90548FEF739FF06B0C4
:101B800010BD000000100240001401400018014088
:101B900000200140042808D14FF0E021096941F0FC
:101BA00004014FF0E022116107E04FF0E0210969E4
:101BB00021F004014FF0E0221161704770B5044636
:101BC0002546681EB0F1807F01D301200FE0681E1A
:101BD0004FF0E02148610F214FF0FF3003F09CF8F7
:101BE00000204FF0E021886107200861002070BDCF
:101BF0007047704710B504460CB9012010BD94F829
:101C0000390028B9002084F83800204600F00CF88C
:101C1000022084F83900211D206803F015F9012005
:101C200084F839000020E9E738B504461A492068ED
:101C3000884216D100BF1948C06940F00200174918
:101C4000C8610846C06900F00200009000BF00BFF4
:101C5000032201211D20FFF7ADF81D20FFF79DF89D
:101C600019E00F492068884215D100BF0B48C069B0
:101C700040F004000949C8610846C06900F004004A
:101C8000009000BF00BF042202211E20FFF792F83F
:101C90001E20FFF782F838BD00040040001002400B
:101CA0000008004001460868C06840F001000A686A
:101CB000D0600868006840F001000A6810600020E9
:101CC0007047704710B5044620680069C0F34000B3
:101CD000D8B12068C068C0F34000B0B16FF0020016
:101CE00021680861012020762068806900F00300E7
:101CF00018B12046FFF7E5FF05E0204600F0ADF8FB
:101D0000204600F0ABF80020207620680069C0F380
:101D10008000D8B12068C068C0F38000B0B16FF017
:101D2000040021680861022020762068806900F4A0
:101D3000407018B12046FFF7C4FF05E0204600F0D0
:101D40008CF8204600F08AF8002020762068006990
:101D5000C0F3C000D8B12068C068C0F3C000B0B103
:101D60006FF0080021680861042020762068C069AF
:101D700000F0030018B12046FFF7A3FF05E020465E
:101D800000F06BF8204600F069F80020207620680B
:101D90000069C0F30010D8B12068C068C0F300101B
:101DA000B0B16FF01000216808610820207620682B
:101DB000C06900F4407018B12046FFF782FF05E0CB
:101DC000204600F04AF8204600F048F8002020762F
:101DD0002068006900F0010058B12068C06800F078
:101DE000010030B16FF0010021680861204600F069
:101DF00037F820680069C0F3C01058B12068C06887
:101E0000C0F3C01030B16FF0800021680861204637
:101E1000FFF7EEFE20680069C0F3801058B120681B
:101E2000C068C0F3801030B16FF0400021680861D5
:101E3000204600F023F820680069C0F3401058B134
:101E40002068C068C0F3401030B16FF020002168F6
:101E500008612046FFF7CDFE10BD704770470000B7
:101E600010B504460448844203D101202FF078FACB
:101E700000E000BF10BD0000F8030020704770476D
:101E8000014691F839007047F8B504460025002650
:101E90002068006800F001052068C06800F48076C2
:101EA00025B11EB1E06B40F00100E06320680068DE
:101EB000C0F340052068406900F0010625B11EB15D
:101EC000E06B40F00400E06320680068C0F3800528
:101ED00025B11EB1E06B40F00200E06320680068AD
:101EE000C0F3C00525B11EB1E06B40F00800E0630F
:101EF00020680068C0F340152068C06800F0200624
:101F00001DB116B1204602F0FFFF20680068C0F343
:101F1000C0152068C06800F080061DB116B12046CB
:101F200003F034F920680068C0F380152068C068A9
:101F300000F040061DB116B1204602F0CDFFE06B67
:101F400070B100BF20680068009020684068009071
:101F500000BF00BF012084F839002046FFF78FFF43
:101F6000F8BD10B504460CB9012010BDA06900B140
:101F700000E000BF94F8390028B9002084F8380048
:101F8000204600F025F8022084F839002068C06857
:101F900020F400502168C860204603F013F8206840
:101FA000006920F49040216808612068406920F0B1
:101FB0002A00216848612068C06840F40050216808
:101FC000C8600020E063012084F839000020CCE7DD
:101FD00010B586B0044625492068884244D100BF28
:101FE0002348806940F004002149886108468069DF
:101FF00000F00400019000BF00BF00BF08468069E8
:1020000040F4804088610846806900F48040019077
:1020100000BF00BF00BF0846806940F00100886132
:102020000846806900F00100019000BF00BF48151C
:10203000029002200390012004900320059002A941
:102040000C48FEF7D5FC4FF480600290002003900E
:1020500002A90848FEF7CCFC2520FEF79EFE0322CD
:1020600011462520FEF7A6FE06B010BD003801403F
:10207000001002400008014030B50346002493F8E8
:102080003940012C01D0122C37D101B10AB90120FD
:1020900030BD00BF93F83800012801D10220F7E7D6
:1020A000012083F8380000BF99629A85DA85002004
:1020B000D86393F83900122803D1322083F839000D
:1020C00002E0222083F8390000BF002083F83800A6
:1020D00000BF1868C06840F480701D68E860186828
:1020E000406940F001001D6868611868C06840F0F0
:1020F00020001D68E8600020CAE70220C8E7000051
:102100001D4A0168914236D11C49098801F40041F9
:1021100089BB1A49098801F4804171B118490978CD
:102120000A2903D00021154A118024E013490988A7
:1021300041F40041114A11801DE0114909780D292F
:1021400006D10E49098841F480410C4A118012E001
:102150000B490978094A1288C2F30D02094B9954B8
:1021600006490988491C054A118011460988C72972
:1021700001DD002111807047003801400800002077
:102180000A0000209C020020704700BFFEE700000C
:1021900070B504460026094805884088454300215B
:1021A000084602F0E7FC02F099FD00BF02E0044996
:1021B0000C80761CAE42FAD370BD0000E80300200C
:1021C0000008006C10B5044655488471002C51D1AC
:1021D000F020534908804FF4A0704880084680885A
:1021E00049F24131884205D04D48808845F210318E
:1021F000884214D12C204A4908812A2048812B206A
:1022000088810846808845F21031884206D14FF413
:10221000A070434908804FF4F07048807BE040484C
:10222000808845F21051884210D14FF430503C491B
:1022300008814FF4285048814FF42C5088814FF486
:10224000F07008804FF44870488064E0344880881B
:1022500041F6631188425ED12C20314908812B2040
:1022600048812A2088814FF4F07008804FF448702C
:10227000488050E04FF4A07029490880F020488041
:102280000846808849F24131884205D02448808838
:1022900045F21031884207D12C20214908812A209B
:1022A00048812B20888129E01D48808845F2105103
:1022B000884210D14FF43050194908814FF428500A
:1022C00048814FF42C5088814FF4487008804FF4B7
:1022D000F070488012E01248808841F6631188420D
:1022E0000CD12C200E4908812A2048812B2088817E
:1022F0004FF4487008804FF4F07048800848808898
:1023000045F21031884206D14FF4F070044908803C
:102310004FF4A0704880002002F0F2FA10BD0000D7
:10232000E803002030B504460D463E48808849F257
:102330004131884205D03B48808845F210318842BF
:1023400014D13849488902F0BDFC201202F0AEFCDD
:10235000E0B202F0ABFC3349888902F0B3FC2812EA
:1023600002F0A4FCE8B202F0A1FC54E02D48808801
:1023700045F21051884220D12A49488902F0A2FC36
:10238000201202F093FC27494989491C88B202F0C7
:1023900099FCE0B202F08AFC2249888902F092FCA2
:1023A000281202F083FC1F498989491C88B202F077
:1023B00089FCE8B202F07AFC2DE01A48808841F6E8
:1023C0006311884227D11748807920B915480088C1
:1023D000401E001B84B21349488902F073FC20128E
:1023E00002F064FCE0B202F061FC201202F05EFC3C
:1023F000E0B202F05BFC0B49888902F063FC281212
:1024000002F054FCE8B202F051FC281202F04EFC3B
:10241000E8B202F04BFC0348008903490880891C9C
:102420000A8030BDE8030020FE07006C00B593B0C1
:1024300000BFFE48806940F00800FC4988610846FA
:10244000806900F00800009000BF00BF01200F90DD
:1024500010901190032012900FA9F548FEF7C8FACA
:102460004FF02040F3490860F34848600620886038
:102470000021F048C16001611021416100218161AA
:10248000C16141624FF4805181620021C1624FF409
:102490008041016300214163816306200890002090
:1024A00009901A200A9000200E90049003200190B9
:1024B00000200290062003900020079001AA08A99E
:1024C000DC48FFF7DDFA32200AF09EFBD32002F051
:1024D000F9FB02F0E1F9D949888002F0DDF9D7492A
:1024E000888002F0D9F9D5498880084680884FF65F
:1024F000FF7101EA0020D149888002F0CDF9CF496F
:1025000089880843CD4988800846808849F241314E
:10251000884278D0D42002F0D5FB02F0BDF9C7493B
:10252000888002F0B9F9C549888002F0B5F9C3493D
:102530008880084680884FF6FF7101EA0020BF4975
:10254000888002F0A9F9BD4989880843BB49888081
:102550000846808845F21031884254D04FF45A40E2
:1025600002F0B0FB02F098F9B44988804FF45B4068
:1025700002F0A8FB02F090F9B049888008468088F4
:102580004FF6FF7101EA0020AC4988804FF45C40AF
:1025900002F098FB02F080F9A84989880843A7490E
:1025A000888008468088B0F5004F02D145F210506F
:1025B0008880A248808845F21051884223D0A1200B
:1025C00002F080FB02F068F99C49888002F064F90F
:1025D0009A498880084680884FF6FF7101EA0020FA
:1025E0009649888002F058F99449898808439349AC
:1025F00088800846808845F26171884203D141F69F
:1026000063108E4988808D4881888DA0FDF79AFEE1
:102610008A48808849F2413188427CD1CF2002F03B
:1026200051FB002002F042FBC12002F03FFB3020B2
:1026300002F03CFBED2002F045FB642002F036FB8B
:10264000032002F033FB122002F030FB812002F065
:102650002DFBE82002F036FB852002F027FB10203E
:1026600002F024FB7A2002F021FBCB2002F02AFBAF
:10267000392002F01BFB2C2002F018FB002002F096
:1026800015FB342002F012FB022002F00FFBF720B2
:1026900002F018FB202002F009FBEA2002F012FBF6
:1026A000002002F003FB002002F000FBC02002F03B
:1026B00009FB1B2002F0FAFAC12002F003FB012003
:1026C00002F0F4FAC52002F0FDFA302002F0EEFA32
:1026D000302002F0EBFAC72002F0F4FAB72002F043
:1026E000E5FA362002F0EEFA482002F0DFFA3A204E
:1026F00002F0E8FA552002F0D9FAB12002F0E2FA2D
:10270000002002F0D3FA1A2002F0D0FAB62002F02C
:10271000D9FA0A2000E0ACE002F0C8FAA22002F0E8
:10272000C5FAF22002F0CEFA002002F0BFFA26200D
:1027300002F0C8FA012002F0B9FAE02002F0C2FA71
:102740000F2002F0B3FA2A2002F0B0FA282002F09B
:10275000ADFA082002F0AAFA0E2002F0A7FA08202B
:1027600002F0A4FA542002F0A1FAA92002F09EFA85
:10277000432002F09BFA0A2002F098FA0F2002F0A0
:1027800095FA002002F092FA002002F08FFA002061
:1027900002F08CFA002002F089FAE12002F092FAAD
:1027A000002002F083FA152002F080FA172002F0D0
:1027B0007DFA072002F07AFA112002F077FA06205B
:1027C00002F074FA2B2002F071FA562002F06EFA31
:1027D0003C2002F06BFA052002F068FA102002F0AB
:1027E00065FA0F2002F062FA3F2002F05FFA3F2004
:1027F00002F05CFA0F2002F059FA2B2002F062FA84
:10280000002002F053FA002002F050FA012002F0FA
:102810004DFA3F2002F04AFA2A2002F053FA002033
:1028200002F044FA002002F041FA11E000100240E8
:10283000000C0140A4030020040100A0E8030020D4
:10284000204C43442049443A25780D0A00000000FA
:10285000002002F02BFAEF2002F028FA112002F0FB
:1028600031FA78200AF0D0F9292002F02BFA01F091
:10287000CBBFFE48808845F21031884240F07C870B
:10288000ED2002F01FFA012002F010FAFE2002F003
:102890000DFAEE2002F016FADE2002F007FA2120EF
:1028A00002F004FAF12002F00DFA012002F0FEF924
:1028B000DF2002F007FA102002F0F8F9C42002F03D
:1028C00001FA8F2002F0F2F9C62002F0FBF9002095
:1028D00002F0ECF9E22002F0E9F9E22002F0E6F978
:1028E000E22002F0E3F9BF2002F0ECF9AA2002F0A6
:1028F000DDF9B02002F0E6F90D2002F0D7F9002052
:1029000002F0D4F90D2002F0D1F9002002F0CEF946
:10291000112002F0CBF9002002F0C8F9192002F0D2
:10292000C5F9002002F0C2F9212002F0BFF9002011
:1029300002F0BCF92D2002F0B9F9002002F0B6F93E
:102940003D2002F0B3F9002002F0B0F95D2002F062
:10295000ADF9002002F0AAF95D2002F0A7F90020ED
:1029600002F0A4F9B12002F0ADF9802002F09EF946
:10297000002002F09BF98B2002F098F9002002F071
:1029800095F9962002F092F9002002F08FF9B2201A
:1029900002F098F9002002F089F9002002F086F98F
:1029A000022002F083F9002002F080F9032002F0F7
:1029B0007DF9002002F07AF9B32002F083F90020BB
:1029C00002F074F9002002F071F9002002F06EF9B3
:1029D000002002F06BF9002002F068F9002002F0FC
:1029E00065F9002002F062F9002002F05FF9002092
:1029F00002F05CF9002002F059F9002002F056F9CB
:102A0000002002F053F9002002F050F9002002F0FB
:102A10004DF9002002F04AF9002002F047F90020A9
:102A200002F044F9002002F041F9002002F03EF9E2
:102A3000002002F03BF9002002F038F9002002F0FB
:102A400035F9002002F032F9002002F02FF9B4200D
:102A500002F038F98B2002F029F9002002F026F963
:102A6000962002F023F9002002F020F9A12002F0C4
:102A70001DF9002002F01AF9B52002F023F9022016
:102A800002F014F9002002F011F9032002F00EF90F
:102A9000002002F00BF9042002F008F9002002F0F7
:102AA00005F9B62002F00EF9002002F0FFF8002030
:102AB00002F0FCF8B72002F005F9002002F0F6F869
:102AC000002002F0F3F83F2002F0F0F8002002F0BE
:102AD000EDF85E2002F0EAF8002002F0E7F864204A
:102AE00002F0E4F8002002F0E1F88C2002F0DEF8B9
:102AF000002002F0DBF8AC2002F0D8F8002002F051
:102B0000D5F8DC2002F0D2F8002002F0CFF87020D7
:102B100002F0CCF8002002F0C9F8902002F0C6F8CC
:102B2000002002F0C3F8EB2002F0C0F8002002F011
:102B3000BDF8DC2002F0BAF8002002F0B7F8B820A7
:102B400002F0C0F8002002F0B1F8002002F0AEF868
:102B5000002002F0ABF8002002F0A8F8002002F0FC
:102B6000A5F8002002F0A2F8002002F09FF8002053
:102B700002F09CF8BA2002F0A5F8242002F096F8A2
:102B8000002002F093F8002002F090F8002002F0FC
:102B90008DF8C12002F096F8202002F087F800207E
:102BA00002F084F8542002F081F8002002F07EF850
:102BB000FF2002F07BF8002002F078F8C22002F03B
:102BC00081F80A2002F072F8002002F06FF8042069
:102BD00002F06CF8002002F069F8C32002F072F8ED
:102BE0003C2002F063F8002002F060F83A2002F086
:102BF0005DF8002002F05AF8392002F057F8002062
:102C000002F054F8372002F051F8002002F04EF89C
:102C10003C2002F04BF8002002F048F8362002F089
:102C200045F8002002F042F8322002F03FF8002080
:102C300002F03CF82F2002F039F8002002F036F8BC
:102C40002C2002F033F8002002F030F8292002F0A6
:102C50002DF8002002F02AF8262002F027F80020A4
:102C600002F024F8242002F021F801E0E80300201B
:102C7000002002F01BF8242002F018F8002002F0D7
:102C800015F8232002F012F8002002F00FF83C2083
:102C900002F00CF8002002F009F8362002F006F8E5
:102CA000002002F003F8322002F000F8002001F0CA
:102CB000FDFF2F2001F0FAFF002001F0F7FF2C208C
:102CC00001F0F4FF002001F0F1FF292001F0EEFFF8
:102CD000002001F0EBFF262001F0E8FF002001F0CA
:102CE000E5FF242001F0E2FF002001F0DFFF2420B7
:102CF00001F0DCFF002001F0D9FF232001F0D6FF16
:102D0000002001F0D3FFC42001F0DCFF622001F0BD
:102D1000CDFF002001F0CAFF052001F0C7FF002011
:102D200001F0C4FF842001F0C1FF002001F0BEFFCC
:102D3000F02001F0BBFF002001F0B8FF182001F0E7
:102D4000B5FF002001F0B2FFA42001F0AFFF00208A
:102D500001F0ACFF182001F0A9FF002001F0A6FF50
:102D6000502001F0A3FF002001F0A0FF0C2001F093
:102D70009DFF002001F09AFF172001F097FF00202F
:102D800001F094FF952001F091FF002001F08EFFEB
:102D9000F32001F08BFF002001F088FFE62001F016
:102DA00085FF002001F082FFC52001F08BFF32205B
:102DB00001F07CFF002001F079FF442001F076FF54
:102DC000002001F073FF652001F070FF002001F08A
:102DD0006DFF762001F06AFF002001F067FF882078
:102DE00001F064FF002001F061FFC62001F06AFFDE
:102DF000202001F05BFF002001F058FF172001F0B8
:102E000055FF002001F052FF012001F04FFF00208C
:102E100001F04CFFC72001F055FF002001F046FFF4
:102E2000002001F043FF002001F040FF002001F0EE
:102E30003DFFC82001F046FF002001F037FF0020D1
:102E400001F034FF002001F031FF002001F02EFFDF
:102E5000C92001F037FF002001F028FF002001F019
:102E600025FF002001F022FF002001F01FFF0020BD
:102E700001F01CFF002001F019FF002001F016FFF7
:102E8000002001F013FF002001F010FF002001F0EE
:102E90000DFF002001F00AFF002001F007FF0020D5
:102EA00001F004FF002001F001FF002001F0FEFE10
:102EB000002001F0FBFEE02001F004FF162001F0ED
:102EC000F5FE002001F0F2FE1C2001F0EFFE0020D4
:102ED00001F0ECFE212001F0E9FE002001F0E6FE09
:102EE000362001F0E3FE002001F0E0FE462001F074
:102EF000DDFE002001F0DAFE522001F0D7FE0020B6
:102F000001F0D4FE642001F0D1FE002001F0CEFEDD
:102F10007A2001F0CBFE002001F0C8FE8B2001F0EA
:102F2000C5FE002001F0C2FE992001F0BFFE002086
:102F300001F0BCFEA82001F0B9FE002001F0B6FEB1
:102F4000B92001F0B3FE002001F0B0FEC42001F072
:102F5000ADFE002001F0AAFECA2001F0A7FE00206D
:102F600001F0A4FED22001F0A1FE002001F09EFE9F
:102F7000D92001F09BFE002001F098FEE02001F036
:102F800095FE002001F092FEF32001F08FFE00205C
:102F900001F08CFEE12001F095FE162001F086FE86
:102FA000002001F083FE1C2001F080FE002001F0D3
:102FB0007DFE222001F07AFE002001F077FE36200F
:102FC00001F074FE002001F071FE452001F06EFE5C
:102FD000002001F06BFE522001F068FE002001F09D
:102FE00065FE642001F062FE002001F05FFE7A20A1
:102FF00001F05CFE002001F059FE8B2001F056FE2E
:10300000002001F053FE992001F050FE002001F055
:103010004DFEA82001F04AFE002001F047FEB92035
:1030200001F044FE002001F041FEC42001F03EFE0C
:10303000002001F03BFECA2001F038FE002001F024
:1030400035FED22001F032FE002001F02FFED82004
:1030500001F02CFE002001F029FEE02001F026FE08
:10306000002001F023FEF32001F020FE002001F0FB
:103070001DFEE22001F026FE052001F017FE0020D3
:1030800001F014FE0B2001F011FE002001F00EFEF5
:103090001B2001F00BFE002001F008FE342001F09F
:1030A00005FE002001F002FE442001F0FFFD00209B
:1030B00001F0FCFD4F2001F0F9FD002001F0F6FDCC
:1030C000612001F0F3FD002001F0F0FD792001F016
:1030D000EDFD002001F0EAFD882001F0E7FD002071
:1030E00001F0E4FD972001F0E1FD002001F0DEFD9C
:1030F000A62001F0DBFD002001F0D8FDB72001F093
:10310000D5FD002001F0D2FDC22001F0CFFD00204E
:1031100001F0CCFDC72001F0C9FD002001F0C6FD83
:10312000D12001F0C3FD002001F0C0FDD62001F048
:10313000BDFD002001F0BAFDDD2001F0B7FD00204B
:1031400001F0B4FDF32001F0B1FD002001F0AEFD6F
:10315000E32001F0B7FD052001F0A8FD002001F0FB
:10316000A5FD0A2001F0A2FD002001F09FFD1C201A
:1031700001F09CFD002001F099FD332001F096FD47
:10318000002001F093FD442001F090FD002001F0AB
:103190008DFD502001F08AFD002001F087FD6220A6
:1031A00001F084FD002001F081FD782001F07EFD1A
:1031B000002001F07BFD882001F078FD002001F067
:1031C00075FD972001F072FD002001F06FFDA62033
:1031D00001F06CFD002001F069FDB72001F066FDF3
:1031E000002001F063FDC22001F060FD002001F02D
:1031F0005DFDC72001F05AFD002001F057FDD120F0
:1032000001F054FD002001F051FDD52001F04EFDEC
:10321000002001F04BFDDD2001F048FD002001F011
:1032200045FDF32001F042FD002001F03FFDE420C8
:1032300001F048FD012001F039FD002001F036FDCC
:10324000012001F033FD002001F030FD022001F0EB
:103250002DFD002001F02AFD2A2001F027FD00208D
:1032600001F024FD3C2001F021FD002001F01EFDB5
:103270004B2001F01BFD002001F018FD5D2001F046
:1032800015FD002001F012FD742001F00FFD00205B
:1032900001F00CFD842001F009FD002001F006FD85
:1032A000932001F003FD002001F000FDA22001F0B9
:1032B000FDFC002001F0FAFCB32001F0F7FC002037
:1032C00001F0F4FCBE2001F0F1FC002001F0EEFC66
:1032D000C42001F0EBFC002001F0E8FCCD2001F05F
:1032E000E5FC002001F0E2FCD32001F0DFFC00202F
:1032F00001F0DCFCDD2001F0D9FC002001F0D6FC5F
:10330000F32001F0D3FC002001F0D0FCE52001F017
:10331000D9FC002001F0CAFC002001F0C7FC00200D
:1033200001F0C4FC002001F0C1FC022001F0BEFC51
:10333000002001F0BBFC292001F0B8FC002001F0C6
:10334000B5FC3C2001F0B2FC002001F0AFFC4B20AA
:1033500001F0ACFC002001F0A9FC5D2001F0A6FC0E
:10336000002001F0A3FC742001F0A0FC002001F07B
:103370009DFC842001F09AFC002001F097FC932032
:1033800001F094FC002001F091FCA22001F08EFCE1
:10339000002001F08BFCB32001F088FC002001F03C
:1033A00085FCBE2001F082FC002001F07FFCC420DF
:1033B00001F07CFC002001F079FCCD2001F076FCCE
:1033C000002001F073FCD32001F070FC002001F01C
:1033D0006DFCDC2001F06AFC002001F067FCF320AA
:1033E00001F064FC002001F061FCE62001F06AFCC1
:1033F000112001F05BFC002001F058FC342001F0AA
:1034000055FC002001F052FC562001F04FFC00203A
:1034100001F04CFC762001F049FC002001F046FC54
:10342000772001F043FC002001F040FC662001F011
:103430003DFC002001F03AFC882001F037FC002020
:1034400001F034FC992001F031FC002001F02EFC49
:10345000BB2001F02BFC002001F028FC992001F09A
:1034600025FC002001F022FC662001F01FFC00205A
:1034700001F01CFC552001F019FC002001F016FCA5
:10348000552001F013FC002001F010FC452001F054
:103490000DFC002001F00AFC432001F007FC002095
:1034A00001F004FC442001F001FC002001F0FEFBCF
:1034B000E72001F007FC322001F0F8FB002001F0CA
:1034C000F5FB552001F0F2FB002001F0EFFB762028
:1034D00001F0ECFB002001F0E9FB662001F0E6FBC7
:1034E000002001F0E3FB672001F0E0FB002001F089
:1034F000DDFB672001F0DAFB002001F0D7FB87201D
:1035000001F0D4FB002001F0D1FB992001F0CEFBAB
:10351000002001F0CBFBBB2001F0C8FB002001F034
:10352000C5FB992001F0C2FB002001F0BFFB772012
:1035300001F0BCFB002001F0B9FB442001F0B6FB18
:10354000002001F0B3FB562001F0B0FB002001F099
:10355000ADFB232001F0AAFB002001F0A7FB3320E4
:1035600001F0A4FB002001F0A1FB452001F09EFB2F
:10357000002001F09BFBE82001F0A4FB002001F0FB
:1035800095FB002001F092FB992001F08FFB0020B9
:1035900001F08CFB872001F089FB002001F086FB05
:1035A000882001F083FB002001F080FB772001F0F0
:1035B0007DFB002001F07AFB662001F077FB002004
:1035C00001F074FB882001F071FB002001F06EFB1C
:1035D000AA2001F06BFB002001F068FBBB2001F08A
:1035E00065FB002001F062FB992001F05FFB0020E9
:1035F00001F05CFB662001F059FB002001F056FB56
:10360000552001F053FB002001F050FB552001F044
:103610004DFB002001F04AFB442001F047FB002055
:1036200001F044FB442001F041FB002001F03EFB8F
:10363000552001F03BFB002001F038FBE92001F0B0
:1036400041FBAA2001F032FB002001F02FFB0020FB
:1036500001F02CFB002001F029FB002001F032FBDF
:10366000AA2001F023FBCF2001F02CFB002001F069
:103670001DFB002001F01AFB002001F017FB0020C9
:1036800001F014FB002001F011FB002001F00EFB03
:10369000002001F00BFB002001F008FB002001F0EE
:1036A00005FB002001F002FB002001F0FFFA0020E2
:1036B00001F0FCFA002001F0F9FA002001F0F6FA1E
:1036C000002001F0F3FA002001F0F0FA002001F0F0
:1036D000EDFAF02001F0F6FA002001F0E7FA5020B0
:1036E00001F0E4FA002001F0E1FA002001F0DEFA36
:1036F000002001F0DBFAF32001F0E4FA002001F0F1
:10370000D5FAF92001F0DEFA062001F0CFFA1020F8
:1037100001F0CCFA292001F0C9FA002001F0C6FA24
:103720003A2001F0CFFA552001F0C0FA112001F043
:10373000C9FA642009F068FA292001F0C3FA35209B
:1037400001F0C0FA002001F0B1FA512001F0BAFAFC
:10375000FF2001F0ABFA532001F0B4FA2C2001F065
:10376000A5FA552001F0AEFA822001F09FFA2C2034
:1037700001F0A8FA01F048B8FE48808845F21051DF
:1037800088427DD155214FF4704001F0B1FAAA2151
:103790004FF2010001F0ACFA52214FF2020001F0A9
:1037A000A7FA08214FF2030001F0A2FA01214FF21B
:1037B000040001F09DFA0D214FF4304001F098FA19
:1037C0000D214BF2010001F093FA0D214BF20200A2
:1037D00001F08EFA34214FF4364001F089FA342199
:1037E0004BF2016001F084FA34214BF2026001F0E7
:1037F0007FFA0D214FF4314001F07AFA0D214BF29E
:10380000011001F075FA0D214BF2021001F070FA6F
:1038100034214FF4374001F06BFA34214BF2017040
:1038200001F066FA34214BF2027001F061FA0021D6
:103830004FF4324001F05CFA00214BF2012001F01C
:1038400057FA00214BF2022001F052FA24214FF4E2
:10385000384001F04DFA24214BF6010001F048FAFE
:1038600024214BF6020001F043FA01214FF43F40BE
:1038700001F03EFA0F214FF4334001F039FA00E035
:10388000FDE30F214BF2013001F032FA0F214BF230
:10389000023001F02DFA34214FF4394001F028FABA
:1038A00034214BF6011001F023FA34214BF60210BB
:1038B00001F01EFA08214FF4354001F019FA0821F1
:1038C0004BF2015001F014FA08214BF2025001F0C2
:1038D0000FFA03214FF4424001F00AFA24214FF479
:1038E0003A4001F005FA24214BF6012001F000FADC
:1038F00024214BF6022001F0FBF900214FF43C405B
:1039000001F0F6F978214BF6014001F0F1F90021C0
:103910004BF6024001F0ECF900214FF43D4001F07C
:10392000E7F978214BF6015001F0E2F900214BF65E
:10393000025001F0DDF900214FF43E4001F0D8F9CA
:1039400064214BF6016001F0D3F900214FF451409E
:1039500001F0CEF933214DF2011001F0C9F9002137
:103960004DF2021001F0C4F934214DF2031001F0C0
:10397000BFF900214DF2041001F0BAF93A214DF2DD
:10398000051001F0B5F900214DF2061001F0B0F973
:103990004A214DF2071001F0ABF900214DF2081059
:1039A00001F0A6F95C214DF2091001F0A1F9002106
:1039B0004DF20A1001F09CF981214DF20B1001F03B
:1039C00097F900214DF20C1001F092F9A6214DF269
:1039D0000D1001F08DF900214DF20E1001F088F963
:1039E000E5214DF20F1001F083F901214DF2101085
:1039F00001F07EF913214DF2111001F079F9012146
:103A00004DF2121001F074F954214DF2131001F02F
:103A10006FF901214DF2141001F06AF982214DF283
:103A2000151001F065F901214DF2161001F060F951
:103A3000CA214DF2171001F05BF902214DF2181066
:103A400001F056F900214DF2191001F051F902214F
:103A50004DF21A1001F04CF901214DF21B1001F04A
:103A600047F902214DF21C1001F042F934214DF2C8
:103A70001D1001F03DF902214DF21E1001F038F940
:103A800067214DF21F1001F033F902214DF2201091
:103A900001F02EF984214DF2211001F029F90221C3
:103AA0004DF2221001F024F9A4214DF2231001F06F
:103AB0001FF902214DF2241001F01AF9B7214DF23D
:103AC000251001F015F902214DF2261001F010F930
:103AD000CF214DF2271001F00BF902214DF22810F1
:103AE00001F006F9DE214DF2291001F001F9022161
:103AF0004DF22A1001F0FCF8F2214DF22B1001F0EA
:103B0000F7F802214DF22C1001F0F2F8FE214DF2EF
:103B10002D1001F0EDF803214DF22E1001F0E8F820
:103B200010214DF22F1001F0E3F803214DF2301077
:103B300001F0DEF833214DF2311001F0D9F8032104
:103B40004DF2321001F0D4F86D214DF2331001F036
:103B5000CFF800214FF4524001F0CAF833214DF262
:103B6000012001F0C5F800214DF2022001F0C0F85B
:103B7000342101E0E80300204DF2032001F0B8F801
:103B800000214DF2042001F0B3F83A214DF2052056
:103B900001F0AEF800214DF2062001F0A9F84A210B
:103BA0004DF2072001F0A4F800214DF2082001F0A9
:103BB0009FF85C214DF2092001F09AF800214DF2A6
:103BC0000A2001F095F881214DF20B2001F090F8C8
:103BD00000214DF20C2001F08BF8A6214DF20D20B2
:103BE00001F086F800214DF20E2001F081F8E52168
:103BF0004DF20F2001F07CF801214DF2102001F070
:103C000077F813214DF2112001F072F801214DF2E5
:103C1000122001F06DF854214DF2132001F068F8E4
:103C200001214DF2142001F063F882214DF215209C
:103C300001F05EF801214DF2162001F059F8CA2179
:103C40004DF2172001F054F802214DF2182001F036
:103C50004FF800214DF2192001F04AF802214DF2EF
:103C60001A2001F045F801214DF21B2001F040F827
:103C700002214DF21C2001F03BF834214DF21D20B1
:103C800001F036F802214DF21E2001F031F86721D3
:103C90004DF21F2001F02CF802214DF2202001F0FE
:103CA00027F884214DF2212001F022F802214DF263
:103CB000222001F01DF8A4214DF2232001F018F874
:103CC00002214DF2242001F013F8B7214DF22520F6
:103CD00001F00EF802214DF2262001F009F8CF2163
:103CE0004DF2272001F004F802214DF2282000F0C7
:103CF000FFFFDE214DF2292000F0FAFF02214DF2F4
:103D00002A2000F0F5FFF2214DF22B2000F0F0FF09
:103D100002214DF22C2000F0EBFFFE214DF22D2070
:103D200000F0E6FF03214DF22E2000F0E1FF10210C
:103D30004DF22F2000F0DCFF03214DF2302000F087
:103D4000D7FF33214DF2312000F0D2FF03214DF295
:103D5000322000F0CDFF6D214DF2332000F0C8FF7E
:103D600000214FF4534000F0C3FF33214DF20130E6
:103D700000F0BEFF00214DF2023000F0B9FF342107
:103D80004DF2033000F0B4FF00214DF2043000F09A
:103D9000AFFF3A214DF2053000F0AAFF00214DF2AD
:103DA000063000F0A5FF4A214DF2073000F0A0FFD9
:103DB00000214DF2083000F09BFF5C214DF20930EC
:103DC00000F096FF00214DF20A3000F091FF8121B2
:103DD0004DF20B3000F08CFF00214DF20C3000F062
:103DE00087FFA6214DF20D3000F082FF00214DF239
:103DF0000E3000F07DFFE5214DF20F3000F078FF2E
:103E000001214DF2103000F073FF13214DF21130FB
:103E100000F06EFF01214DF2123000F069FF5421D5
:103E20004DF2133000F064FF01214DF2143000F028
:103E30005FFF82214DF2153000F05AFF01214DF253
:103E4000163000F055FFCA214DF2173000F050FF38
:103E500002214DF2183000F04BFF00214DF21930D5
:103E600000F046FF02214DF21A3000F041FF01211F
:103E70004DF21B3000F03CFF02214DF21C3000F0EF
:103E800037FF34214DF21D3000F032FF02214DF298
:103E90001E3000F02DFF67214DF21F3000F028FF8B
:103EA00002214DF2203000F023FF84214DF2213019
:103EB00000F01EFF02214DF2223000F019FFA42174
:103EC0004DF2233000F014FF02214DF2243000F0B7
:103ED0000FFFB7214DF2253000F00AFF02214DF20D
:103EE000263000F005FFCF214DF2273000F000FF13
:103EF00002214DF2283000F0FBFEDE214DF2293088
:103F000000F0F6FE02214DF22A3000F0F1FEF2211F
:103F10004DF22B3000F0ECFE02214DF22C3000F07F
:103F2000E7FEFE214DF22D3000F0E2FE03214DF2BE
:103F30002E3000F0DDFE10214DF22F3000F0D8FEC3
:103F400003214DF2303000F0D3FE33214DF23130F9
:103F500000F0CEFE03214DF2323000F0C9FE6D219B
:103F60004DF2333000F0C4FE00214FF4544000F015
:103F7000BFFE33214DF2014000F0BAFE00214DF2A8
:103F8000024000F0B5FE34214DF2034000F0B0FED7
:103F900000214DF2044000F0ABFE3A214DF2054005
:103FA00000F0A6FE00214DF2064000F0A1FE4A21DD
:103FB0004DF2074000F09CFE00214DF2084000F059
:103FC00097FE5C214DF2094000F092FE00214DF277
:103FD0000A4000F08DFE81214DF20B4000F088FE7A
:103FE00000214DF20C4000F083FEA6214DF20D4061
:103FF00000F07EFE00214DF20E4000F079FEE5213A
:104000004DF20F4000F074FE01214DF2104000F01F
:104010006FFE13214DF2114000F06AFE01214DF2B6
:10402000124000F065FE54214DF2134000F060FE96
:1040300001214DF2144000F05BFE82214DF215404B
:1040400000F056FE01214DF2164000F051FECA214B
:104050004DF2174000F04CFE02214DF2184000F0E6
:1040600047FE00214DF2194000F042FE02214DF2C0
:104070001A4000F03DFE01214DF21B4000E005E337
:1040800000F036FE02214DF21C4000F031FE3421DA
:104090004DF21D4000F02CFE02214DF21E4000F0BA
:1040A00027FE67214DF21F4000F022FE02214DF253
:1040B000204000F01DFE84214DF2214000F018FE4A
:1040C00002214DF2224000F013FEA4214DF22340C4
:1040D00000F00EFE02214DF2244000F009FEB7214F
:1040E0004DF2254000F004FE02214DF2264000F082
:1040F000FFFDCF214DF2274000F0FAFD02214DF2E5
:10410000284000F0F5FDDE214DF2294000F0F0FDE1
:1041100002214DF22A4000F0EBFDF2214DF22B403E
:1041200000F0E6FD02214DF22C4000F0E1FDFE2101
:104130004DF22D4000F0DCFD03214DF22E4000F049
:10414000D7FD10214DF22F4000F0D2FD03214DF29A
:10415000304000F0CDFD33214DF2314000F0C8FD7C
:1041600003214DF2324000F0C3FD6D214DF233408A
:1041700000F0BEFD00214FF4554000F0B9FD3321A1
:104180004DF2015000F0B4FD00214DF2025000F05C
:10419000AFFD34214DF2035000F0AAFD00214DF295
:1041A000045000F0A5FD3A214DF2055000F0A0FDAD
:1041B00000214DF2065000F09BFD4A214DF20750C0
:1041C00000F096FD00214DF2085000F091FD5C21B9
:1041D0004DF2095000F08CFD00214DF20A5000F024
:1041E00087FD81214DF20B5000F082FD00214DF240
:1041F0000C5000F07DFDA6214DF20D5000F078FD31
:1042000000214DF20E5000F073FDE5214DF20F50EC
:1042100000F06EFD01214DF2105000F069FD1321F8
:104220004DF2115000F064FD01214DF2125000F0EA
:104230005FFD54214DF2135000F05AFD01214DF263
:10424000145000F055FD82214DF2155000F050FD44
:1042500001214DF2165000F04BFDCA214DF21750CE
:1042600000F046FD02214DF2185000F041FD002102
:104270004DF2195000F03CFD02214DF21A5000F0B1
:1042800037FD01214DF21B5000F032FD02214DF2AD
:104290001C5000F02DFD34214DF21D5000F028FD82
:1042A00002214DF21E5000F023FD67214DF21F50F8
:1042B00000F01EFD02214DF2205000F019FD842176
:1042C0004DF2215000F014FD02214DF2225000F079
:1042D0000FFDA4214DF2235000F00AFD02214DF202
:1042E000245000F005FDB7214DF2255000F000FDEF
:1042F00002214DF2265000F0FBFCCF214DF2275059
:1043000000F0F6FC02214DF2285000F0F1FCDE2115
:104310004DF2295000F0ECFC02214DF22A5000F041
:10432000E7FCF2214DF22B5000F0E2FC02214DF2AD
:104330002C5000F0DDFCFE214DF22D5000F0D8FC99
:1043400003214DF22E5000F0D3FC10214DF22F50DE
:1043500000F0CEFC03214DF2305000F0C9FC3321B7
:104360004DF2315000F0C4FC03214DF2325000F008
:10437000BFFC6D214DF2335000F0BAFC00214FF428
:10438000564000F0B5FC33214DF2016000F0B0FC66
:1043900000214DF2026000F0ABFC34214DF20360CD
:1043A00000F0A6FC00214DF2046000F0A1FC3A21CF
:1043B0004DF2056000F09CFC00214DF2066000F01B
:1043C00097FC4A214DF2076000F092FC00214DF26B
:1043D000086000F08DFC5C214DF2096000F088FC63
:1043E00000214DF20A6000F083FC81214DF20B6048
:1043F00000F07EFC00214DF20C6000F079FCA6215B
:104400004DF20D6000F074FC00214DF20E6000F0E2
:104410006FFCE5214DF20F6000F06AFC01214DF2C6
:10442000106000F065FC13214DF2116000F060FC9B
:1044300001214DF2126000F05BFC54214DF213603B
:1044400000F056FC01214DF2146000F051FC822175
:104450004DF2156000F04CFC01214DF2166000F0A9
:1044600047FCCA214DF2176000F042FC02214DF2D8
:10447000186000F03DFC00214DF2196000F038FC9E
:1044800002214DF21A6000F033FC01214DF21B6055
:1044900000F02EFC02214DF21C6000F029FC3421BA
:1044A0004DF21D6000F024FC02214DF21E6000F070
:1044B0001FFC67214DF21F6000F01AFC02214DF233
:1044C000206000F015FC84214DF2216000F010FC0A
:1044D00002214DF2226000F00BFCA4214DF223607A
:1044E00000F006FC02214DF2246000F001FCB7212F
:1044F0004DF2256000F0FCFB02214DF2266000F039
:10450000F7FBCF214DF2276000F0F2FB02214DF2C4
:10451000286000F0EDFBDE214DF2296000F0E8FBA1
:1045200002214DF22A6000F0E3FBF2214DF22B60F4
:1045300000F0DEFB02214DF22C6000F0D9FBFE21E1
:104540004DF22D6000F0D4FB03214DF22E6000F0FF
:10455000CFFB10214DF22F6000F0CAFB03214DF27A
:10456000306000F0C5FB33214DF2316000F0C0FB3C
:1045700003214DF2326000F0BBFB6D214DF2336040
:1045800000F0B6FB55214FF4704000F0B1FBAA21BA
:104590004FF2010000F0ACFB52214FF2020000F09C
:1045A000A7FB08214FF2030000F0A2FB00214FF20D
:1045B000040000F09DFBCC214FF4314000F098FB4B
:1045C00000214BF2011000F093FB05214FF436401F
:1045D00000F08EFB70214FF4374000F089FB702112
:1045E0004BF2017000F084FB01214FF4384000F0E1
:1045F0007FFB03214BF6010000F07AFB03214BF611
:10460000020000F075FB03214BF6030000F070FB85
:1046100002214FF43C4000F06BFB00214BF60140BF
:1046200000F066FB00214BF6024000F061FBD02158
:104630004FF4494000F05CFB02214CF6011000F001
:1046400057FB50214CF6021000F052FB50214CF663
:10465000031000F04DFB50214CF6041000F048FB15
:1046600000214FF4545000F043FB55214FF46850A3
:1046700000F03EFB4FF4885000F024FB782008F057
:10468000CFFA4FF4245000F01DFBBDE07F48808836
:1046900041F663118842F8D1E22000F013FB1D209F
:1046A00000F004FB022000F001FB042000F0FEFA01
:1046B000642008F0B5FAE02000F004FB012000F0CF
:1046C000F5FA0A2008F0A0FAE02000F0FBFA032037
:1046D00000F0ECFA0C2008F097FA012000F0F2FA52
:1046E0000A2008F091FAE62000F0ECFA2F2000F002
:1046F000DDFAFF2000F0DAFAFF2000F0D7FAB02050
:1047000000F0E0FA202000F0D1FA002000F0CEFA0C
:10471000032000F0CBFA40F21F3000F0C7FA01206E
:1047200000F0C4FA40F2DF1000F0C0FA002000F000
:10473000BDFAB42000F0C6FA042000F0B7FA40F247
:104740001F4000F0B3FA002000F0B0FA2E2000F075
:10475000ADFA002000F0AAFA002000F0A7FA00202D
:1047600000F0A4FA002000F0A1FAB62000F0AAFAA6
:10477000022000F09BFA4FF4037000F097FA00203B
:1047800000F094FA172000F091FA152000F08EFA4C
:10479000002000F08BFA002000F088FAF02000F0F2
:1047A00091FA032000F082FA292000F08BFAD02041
:1047B00000F088FA002000F079FABE2000F082FABA
:1047C000052000F073FAFE2000F070FA012000F0DE
:1047D0006DFA002000F06AFA002000F067FA00206D
:1047E00000F064FAB82000F06DFA032000F05EFAE1
:1047F000012000F05BFABA2000F064FA012000F01A
:1048000055FA642000F052F82048808849F241317E
:10481000884211D01D48808845F2103188420BD063
:104820001A48808845F21051884205D01748808880
:1048300041F6631188421CD11548006820F00F0032
:104840004FF02041C1F81C010846D0F81C0120F4AB
:104850007060C1F81C010846D0F81C0140F001004E
:10486000C1F81C010846D0F81C0140F48070C1F862
:104870001C010020FDF7A6FC0120064908604FF648
:10488000FF70FDF785FC13B000BD0000E8030020B9
:104890001C0100A08081214208B5034800880090D7
:1048A000BDF8000008BD00000008006C2DE9F047CD
:1048B0000446BE2000F006FA052000F0F7F9204675
:1048C00033F07FF807464FF066320C4B33F08CF82C
:1048D000054633F049F81FFA80F9484600F0E6F93A
:1048E000012000F0E3F9FF2000F0E0F9002000F0E3
:1048F000DDF9002000F0DAF9BDE8F08766660440D3
:10490000F0B505460024002799488079012805D193
:104910009748808841F66311884208D1944880798D
:10492000F0B99348808841F66311884218D1082D68
:1049300015D2DFE805F00406080A0C0E1012062551
:104940000DE007250BE0042509E0052507E001251A
:1049500005E0002503E0032501E0022500BF00BFBC
:104960008348808849F24131884211D0804880884C
:1049700045F2103188420BD07D48808845F21051B5
:10498000884205D07A48808841F6631188427DD1FB
:10499000082D1CD2DFE805F00406090C0F121518CB
:1049A00000BF14E044F0800411E044F040040EE045
:1049B00044F0C0040BE044F0200408E044F060043C
:1049C00005E044F0A00402E044F0E00400BF00BFB2
:1049D0006748808845F21051884202D14FF45857F9
:1049E00000E036276248808845F2103188420DD0B9
:1049F0005F48808845F21051884207D05C48808823
:104A000041F66311884201D044F00804214638463B
:104A100000F06EF95648808841F6631188421DD037
:104A200004F0200068B15248008851494988884202
:104A300014DA4F48068840884D4908800846468069
:104A40000CE04B4800884A494988884206DD4848BE
:104A50000688408846490880084646804448808841
:104A600045F21051884254D14149488900F02AF951
:104A7000002000F01BF93E494989491C88B200F02A
:104A800021F9002000F012F9394900E06FE049896E
:104A9000891C88B200F016F935490988491EC1F30E
:104AA0000F2000F003F932494989C91C88B200F08F
:104AB00009F92F490978491EC8B200F0F7F82C49C6
:104AC000888900F0FFF8002000F0F0F82849898973
:104AD000491C88B200F0F6F8002000F0E7F82449FD
:104AE0008989891C88B200F0EDF821494988491E5E
:104AF000C1F30F2000F0DAF81D498989C91C88B27A
:104B000000F0E0F81A498978491EC8B200F0CEF8E2
:104B10002DE01749488900F0D5F8002000F0C6F8CC
:104B2000002000F0C3F812490988491EC1F30F2084
:104B300000F0BCF80E490978491EC8B200F0B6F87A
:104B40000B49888900F0BEF8002000F0AFF8002083
:104B500000F0ACF806494988491EC1F30F2000F067
:104B6000A5F803498978491EC8B200F09FF8F0BD46
:104B7000E803002010B502460C464B48808849F2F5
:104B80004131884205D04848808845F2103188423A
:104B900014D14549488900F095F8101200F086F8C4
:104BA000D0B200F083F84049888900F08BF82012D9
:104BB00000F07CF8E0B200F079F873E03A488088C1
:104BC00041F66311884247D137488079A8B9364801
:104BD0000088401E801A82B23349488900F072F87A
:104BE000002000F063F8002000F060F8101200F0E0
:104BF0005DF8D0B200F05AF816E02B49488900F071
:104C000061F8101200F052F8D0B200F04FF82649C7
:104C10000988491EC1F30F2000F048F8224909789D
:104C2000491EC8B200F042F81F49888900F04AF8CE
:104C3000201200F03BF8E0B200F038F81A49498839
:104C4000491EC1F30F2000F031F817498978491E39
:104C5000C8B200F02BF825E01348808845F21051C7
:104C600088421FD11049488900F02CF8101200F03A
:104C70001DF80D494989491C88B200F023F8D0B2CB
:104C800000F014F80849888900F01CF8201200F0A0
:104C90000DF805498989491C88B200F013F8E0B283
:104CA00000F004F810BD0000E803002001B5BDF8D5
:104CB00000000090BDF800000149088008BD000018
:104CC0000008006C01B5BDF800000090BDF80000C0
:104CD0000149088008BD0000FE07006C02480089F9
:104CE0000249088070470000E8030020FE07006CBE
:104CF000024A1080921C118070470000FE07006C71
:104D000000BFFEE77047000002480068C0F30220C1
:104D1000704700000CED00E010B5002807DA0A0724
:104D2000140E054A00F00F031B1FD45403E00A07BA
:104D3000130E024A135410BD18ED00E000E400E029
:104D40007047704730B58FB00546002401200590AC
:104D5000000406900020079002200C90C1030D91E2
:104D60000E9505A8FCF750FA04460CB100BFFEE70B
:104D70000F20009002200190002002904FF48060EC
:104D800003900020049002216846FCF765F8044671
:104D90000CB100BFFEE70FB030BD10B5FBF7CEFF82
:104DA00010BD00001148006840F001000F49086084
:104DB000084640680E4908400C49486008460068AB
:104DC0000C490840094908600846006820F4802022
:104DD00008600846406820F4FE0048604FF41F0059
:104DE0008860C80304490860704700000010024052
:104DF0000000FFF8FFFFF6FE08ED00E010B50248E6
:104E0000FCF760FF10BD0000F803002010B5024859
:104E1000FCF758FF10BD00003404002070B50546B3
:104E20000C46074807490860084644600021816035
:104E3000C5600161FCF7DEFE0248FCF733FF70BD80
:104E40000008004034040020002202681D4B9842F4
:104E50000ED01D4B98420BD0B0F1804F08D01B4BA9
:104E6000984205D01A4B984202D01A4B984203D16F
:104E700022F070024B681A43124B98420ED0124B2C
:104E800098420BD0B0F1804F08D0104B984205D01B
:104E90000F4B984202D00F4B984203D122F440723C
:104EA000CB681A4302608B68C3620B688362054B50
:104EB000984202D0044B984201D10B69036301234D
:104EC00043617047002C0140003401400004004061
:104ED00000080040000C004010B504462068C0687F
:104EE00020F040002168C86094F83900322803D1CE
:104EF000222084F8390002E0012084F8390020469D
:104F0000FDF742F9002010BD70B50446002694F864
:104F10003960222E01D0322E52D1A068B0F5805FC8
:104F200013D1A56A206940B920684068C0F3080021
:104F30002880A06A801CA06219E020684068C0B286
:104F40002880A06A401CA06211E0206938B920685E
:104F50004068C1B2A26A501CA062117007E02068CC
:104F6000406800F07F01A26A501CA0621170E08DC1
:104F7000401E80B2E08508BB2068C06820F0200099
:104F80002168C86094F83900322803D1122084F8CF
:104F900039000EE02068C06820F480702168C86085
:104FA0002068406920F0010021684861012084F8F0
:104FB00039002046FDF7A4F8002070BD0020FCE772
:104FC0000220FAE72DE9F041044600252068006937
:104FD00020F44050E1680843216808612169A06815
:104FE0000843616940EA01052068C06841F20C612C
:104FF000884328432168C8602068406920F44070D5
:10500000A1690843216848615F49206888425CD1F2
:10501000FCF78AF800EBC00101EB00106168890021
:10502000B0FBF1F6FCF780F800EBC00101EB0010DB
:1050300061688900B0FBF1F06421B0FBF1F000EB96
:10504000C00101EB0010A6EB8000322101EB001043
:105050006421B0FBF1F000F0F006FCF765F800EB1E
:10506000C00101EB001061688900B0FBF1F0642120
:10507000B0FBF1F006EB0016FCF756F800EBC001B0
:1050800001EB001061688900B0FBF1F7FCF74CF808
:1050900000EBC00101EB001061688900B0FBF1F08A
:1050A0006421B0FBF1F000EBC00101EB0010A7EBB5
:1050B0008000322101EB00106421B0FBF1F000F020
:1050C0000F003044216888605BE0FCF717F800EBC4
:1050D000C00101EB001061688900B0FBF1F6FCF73C
:1050E0000DF800EBC00101EB001061688900B0FB16
:1050F000F1F06421B0FBF1F000EBC00101EB001016
:10510000A6EB8000322101EB00106421B0FBF1F02E
:1051100000F0F006FBF7F2FF00EBC00101EB00101E
:1051200061688900B0FBF1F06421B0FBF1F006EB9F
:105130000016FBF7E3FF00EBC00101EB0010616814
:105140008900B0FBF1F7FBF7D9FF00EBC00101EBE1
:10515000001061688900B0FBF1F06421B0FBF1F050
:1051600000EBC00101EB0010A7EB8000322101EB46
:1051700000106421B0FBF1F000F00F003044216812
:105180008860BDE8F08100000038014010B501469C
:10519000002391F83930122B01D0322B2CD18868A2
:1051A000B0F5805F0FD10A6A1088C0F308000C6860
:1051B0006060086918B9086A801C086209E0086A1A
:1051C000401C086205E00C6A601C086220780C68CC
:1051D0006060C88C401E80B2C88458B90868C06836
:1051E00020F080000C68E0600868C06840F0400073
:1051F0000C68E060002010BD0220FCE710B5002420
:105200000C48FCF741FE00BF01E0641C00BF0948E8
:10521000FCF736FE0128F8D100BF002401E0641C31
:1052200000BF012204490348FCF726FF0028F6D1FD
:1052300000BF10BD640300200A00002000BFFEE78D
:1052400070B50446002508E02168481C20600878F5
:10525000303805EB850100EB41052168087800F046
:1052600004F80028F0D1284670BD0146302903DB40
:10527000392901DC012070470020FCE710B54421EA
:105280000A4801F0E2FC2CF05BF8094908600023B1
:1052900004221E2107482AF0B1F80749086004F0EB
:1052A000CBF800200549087010BD00008C070020D5
:1052B00084000020299500088C0000208800002030
:1052C0002DE9F04705460F4616461C46152E30D2EE
:1052D000DFE806F00B3034495765839AAFCDD6F935
:1052E000F7F6F5F4F3F2F1F0EF00284611F0A1FD26
:1052F000814600EBD9704FEA600A384611F099FDFB
:10530000804600EBD870AAEB600000B220802846EF
:1053100011F00EFD814600EBD9704FEA600A384665
:1053200011F006FD804600EBD870AAEB600000B2D9
:1053300060806AE100202080608066E1284611F0EC
:1053400078FD814600EBD9704FEA600A384611F0CB
:1053500070FD804600EBD870AAEB600000B22080A0
:105360000020608051E1284611F063FD80463846F8
:1053700011F05FFDA8EB000000B2208000206080EB
:1053800043E100202080284611F0D2FC80463846B8
:1053900011F0CEFCA8EB000000B2608035E1284699
:1053A00011F047FD814600EBD9704FEA600A38469C
:1053B00011F03FFD804600EBD870AAEB600000B210
:1053C0002080284611F0B4FC8046384611F0B0FC2D
:1053D000A8EB000000B2608017E1284611F029FD1B
:1053E0008046384611F025FDA8EB000000B2208071
:1053F000284611F09DFC8046384611F099FCA8EB38
:10540000000000B2608000E100202080284611F0FA
:105410008FFC814600EBD9704FEA600A384611F0E4
:1054200087FC804600EBD870AAEB600000B2608079
:10543000EBE0284611F0FDFC8046384611F0F9FCFF
:10544000A8EB000000B22080284611F071FC8146D4
:1054500000EBD9704FEA600A384611F069FC8046CB
:1054600000EBD870AAEB600000B26080CDE00020B5
:105470002080384611F05CFC404200B26080C4E0FD
:10548000284611F0D6FC814600EBD9704FEA600A3D
:10549000384611F0CEFC804600EBD870AAEB6000D5
:1054A00000B22080384611F043FC404200B26080D8
:1054B000ABE09AE082E07AE067E04DE043E032E082
:1054C0001AE012E0FFE7284611F0B3FC80463846A8
:1054D00011F0AFFCA8EB000000B22080384611F0BC
:1054E00027FC404200B260808FE0002020802846E8
:1054F00011F01EFC608088E0284611F09AFC81467D
:1055000000EBD9704FEA600A384611F092FC8046F1
:1055100000EBD870AAEB600000B22080284611F0A2
:1055200007FC608071E0284611F083FC8046384615
:1055300011F07FFCA8EB000000B22080284611F09B
:10554000F7FB608061E0384611F073FC404200B226
:1055500020800020608058E0384611F06AFC40420C
:1055600000B22080284611F0E3FB814600EBD970A1
:105570004FEA600A384611F0DBFB804600EBD8703A
:10558000AAEB600000B260803FE0384611F051FCA9
:10559000404200B22080284611F0CAFB80463846BF
:1055A00011F0C6FBA8EB000000B260802DE0284699
:1055B00011F03FFC20800020608026E0284611F09A
:1055C00038FC2080284611F0B3FB814600EBD970EF
:1055D0004FEA600A384611F0ABFB804600EBD8700A
:1055E000AAEB600000B260800FE0284611F021FCB9
:1055F0002080284611F09CFB8046384611F098FB2D
:10560000A8EB000000B2608000BF00BF208829889E
:10561000084400B2208060886988084400B2608035
:10562000BDE8F08730B50346B1F90040B2F900504B
:10563000AC4202DDB1F9004001E0B2F900401C804B
:10564000B1F90240B2F90250AC4202DDB1F90240B8
:1056500001E0B2F902405C80B1F90440B2F90450B3
:10566000AC4202DAB1F9044001E0B2F904409C8096
:10567000B1F90640B2F90650AC4202DAB1F906407F
:1056800001E0B2F90640DC800120B3F90040B3F933
:105690000450AC4205DCB3F90240B3F90650AC4209
:1056A00000DD002030BDF8B504460D461646002743
:1056B000B4F90000B5F90010884212DBB4F9020019
:1056C000B5F9021088420CDBB4F90400B5F90410F6
:1056D000884206DCB4F90600B5F90610884200DC01
:1056E00001270FB90020F8BD0EB90120FBE7208883
:1056F000ADF800006088ADF80200324669462846E1
:1057000000F04CF808B90020EDE7A088ADF80000E3
:105710006088ADF8020032466946284600F03EF83F
:1057200008B90020DFE72088ADF80000E088ADF878
:10573000020032466946284600F030F808B90020D9
:10574000D1E7A088ADF80000E088ADF8020032464D
:105750006946284600F022F808B90020C3E7012076
:10576000C1E70246B2F90000B1F90430984213DCF7
:10577000B2F90400B1F9003098420DDBB2F9020031
:10578000B1F90630984207DCB2F90600B1F90230EF
:10579000984201DB012070470020FCE72DE9FC5F07
:1057A00005460E4614464FF0000AB6F90000B5F95A
:1057B0000010884213DBB6F90000B5F904108842E6
:1057C0000DDCB6F90200B5F90210884207DBB6F924
:1057D0000200B5F90610884201DC4FF0010ABAF167
:1057E000000F02D10020BDE8FC9F002C01DC01204D
:1057F000F9E7284611F01DFB834600EBDB704710EC
:10580000284611F095FA834600EBDB704FEA6008FA
:10581000474501DA384600E0404681464C4500DD08
:105820004C462888ADF800002888204400B2ADF826
:1058300004006888ADF802006888204400B2ADF822
:105840000600002231466846FFF7A8FF80B1BDF888
:105850000400204400B2ADF80400BDF80600204466
:1058600000B2ADF806003146684625F08FF9BAE778
:10587000E888001B00B2ADF80200E888ADF8060029
:10588000002231466846FFF789FF80B1BDF8040069
:10589000204400B2ADF80400BDF80200001B00B2C5
:1058A000ADF802003146684625F070F99BE7A888FC
:1058B000001B00B2ADF80000A888ADF8040000227B
:1058C00031466846FFF76AFF80B1BDF80000001B53
:1058D00000B2ADF80000BDF80200001B00B2ADF848
:1058E00002003146684625F051F97CE76888ADF83A
:1058F00002006888204400B2ADF80600002231465C
:105900006846FFF74BFF80B1BDF80000001B00B2F6
:10591000ADF80000BDF80600204400B2ADF8060066
:105920003146684625F032F95DE701205BE710B5A6
:10593000B1F90030B2F90040A34202DAB1F9003007
:1059400001E0B2F900300380B1F90230B2F902404F
:10595000A34202DAB1F9023001E0B2F90230438029
:10596000B1F90430B2F90440A34202DDB1F90430C8
:1059700001E0B2F904308380B1F90630B2F9064093
:10598000A34202DDB1F9063001E0B2F90630C3806E
:1059900010BD2DE9F04104460D461646204611F093
:1059A00048FA0746204611F0C3F9804625806680F4
:1059B0003946204611F089FA4146204611F07FFA17
:1059C000BDE8F081F0B506460D460024002E02DA4F
:1059D000601CC4B276423746002D02DAA01CC4B265
:1059E0006D42AC46674509D9CCEB0C1000EB40008A
:1059F000B0FBF7F304F11000C4B205E0C7EB0710E9
:105A000000EB4000B0FBFCF30022D9B2162910DDF8
:105A10002C2901DC501CC2B2292901DC501CC2B265
:105A2000252901DC501CC2B2202912DC501CC2B254
:105A30000FE0022901DB501CC2B2062901DB501C19
:105A4000C2B20A2901DB501CC2B20F2901DB501C73
:105A5000C2B2134404F0100008B1C3F15A0304F0B9
:105A6000020038B104F0010008B1B43307E0C3F11B
:105A7000B40304E004F0010008B1C3F5B47398B2B4
:105A8000F0BD2DE9FF4F87B01C46DDE91478B8F171
:105A9000020F02DA0BB0BDE8F08F07B9FAE702F0A7
:105AA00079F80546284616F0B3F8814609F1100644
:105AB000D9F808000690686A10B12846696A8847D4
:105AC00004A8DDE90712FFF7ADFD8346BBF1000F27
:105AD00000D1DFE7BDF810003188401A00B2ADF800
