:020000040800F2
:1000000080450020ED010008AF380008A73800083F
:10001000AB380008D9150008293D00080000000091
:10002000000000000000000000000000EB380008A5
:10003000DD15000800000000E93800084339000819
:10004000070200080702000807020008070200086C
:100050000702000807020008DF1500080702000871
:10006000E9150008F3150008FD150008070200084F
:10007000070200080702000807020008070200083C
:10008000070200080702000807020008070200082C
:10009000070200080702000807020008070200081C
:1000A000070200080702000807020008070200080C
:1000B00007020008A5390008B53900080702000842
:1000C00007020008070200080702000807020008EC
:1000D00007020008E93C00080702000807020008C0
:1000E00007020008070200080702000807020008CC
:1000F00007020008070200080702000807020008BC
:1001000007020008070200080702000807020008AB
:10011000070200080702000807020008070200089B
:10012000070200080702000807020008070200088B
:1001300000F002F800F04AF80AA090E8000C8244AF
:100140008344AAF10107DA4501D100F03FF8AFF28C
:10015000090EBAE80F0013F0010F18BFFB1A43F0A5
:10016000010318476C5800008C580000103A24BF57
:1001700078C878C1FAD8520724BF30C830C144BF0C
:1001800004680C607047000000230024002500264E
:10019000103A28BF78C1FBD8520728BF30C148BFEA
:1001A0000B607047662905F0BA83642900F08080EF
:1001B000002070471FB500F041FB04000020002123
:1001C00004F032FBE0601FBD10B510BD00F056FC1E
:1001D0001146FFF7EFFF03F007FE00F074FC03B4D5
:1001E000FFF7F2FF03BC03F0B5FD000009488047AC
:1001F00009480047FEE7FEE7FEE7FEE7FEE7FEE709
:10020000FEE7FEE7FEE7FEE704480549054A064B20
:10021000704700004D3900083101000880050020BA
:1002200080450020802500208025002070470000A8
:100230000FB4044910B503AA029800F0EDFA10BCFF
:100240005DF814FB2C0000202DE9F0410E46044619
:10025000002020622046E168884730B3252805D079
:10026000D4E901219047206A401CF2E7E16820466A
:1002700000278847050018D0A5F14100192802D8A9
:1002800020354FF400673246294620462760FFF7A5
:1002900089FF40B1012804D0F61D26F00706083674
:1002A000D8E7361DD6E72846DAE7206ABDE8F081B0
:1002B0002DE9F0410646002410687529314616A53F
:1002C00010D0AFF30080002802DA404213A507E007
:1002D00031688A0701D512A502E0490704D511A5A6
:1002E000012401E0AFF3008000210A2206F1240777
:1002F00009E0B0FBF2FCB0FBF2F302FB1C00303073
:1003000078541846491C0028F3D123462A46304623
:10031000BDE8F04100F017B8000000002D0000001B
:100320002B000000200000007047704770477047A6
:1003300010B500F087FA006810BD10B5044600F053
:1003400081FA046010BD2DE9F0470D4699469246AA
:10035000044600F124080168880604D5E06921F00C
:100360001001216000E00120A84201DD471B00E0F0
:100370000027A1697A1902EB0900081AA061207808
:10038000C00602D42046AFF30080002608E0D4E97E
:1003900001211AF806009047206A401C761C206252
:1003A0004E45F4DB2078C0060AD52046AFF3008026
:1003B00006E0D4E9012130209047206A401C2062E9
:1003C000381EA7F10107F4DC07E0D4E9012118F891
:1003D00005009047206A401C2062281EA5F10105F7
:1003E000F3DC2046AFF300802078000602D502201F
:1003F000BDE8F0870120FBE770472DE9FF4F0C4671
:100400001E464FF0FF378BB0D2E90001DDF8608067
:100410000A908A46C1F30A5505B93D4600210846AF
:100420004FF00000BAF1000F00F4400005DA00EBD5
:1004300080004FF4400101EA50004FEA9059B9F1B1
:10044000010F00DDB9460A9850EA4A000ED044F682
:100450001050A5F2FF3545432F14B8F1000F1ED000
:100460007542291E1EDDC9F100021CE0B8F1010F22
:100470004FF0000001D0302103E0F24305E02154A9
:10048000401CB042FBDB30460022002121540B9976
:10049000C1F80880C1E900200FB0BDE8F08FBD1B96
:1004A0006D1CDEE74A4600DA694206A800F06CFAE5
:1004B00006AB93E8070003AB83E8070050460A99B0
:1004C00000F04AFB8DE80700A0F500501F380090AF
:1004D0000398002D0ADD42F21F014A46084400231A
:1004E00003A90390684600F0B3FD09E0A0F50050B1
:1004F0004A461F38002303A90390684600F0BDFD5B
:100500008DE807000004000C03D04FF0FF304108D5
:1005100000E01046B8F1000F03D00022009215460B
:100520001EE0751E05D400F091F9303262556D1E43
:10053000F9D5B3460122084302D000227F1C04E013
:100540002078302801D100227F1E002A099784D00C
:100550001DE0112D07DA00F079F9303262556D1C7B
:1005600050EA0102F5D1084302D00098C8B10EE06C
:100570000021681E05E0235C625C63542254401E27
:10058000491C8142F7DBAB46A81B401E09900020A6
:1005900004F80B000B98099AC0F80880C0E9002BFA
:1005A0007AE711264FF0000857E72DE9F04F88460B
:1005B0000446D21D22F0070191B0D1E90001CDE936
:1005C0000A0103F0B3FB02460B98C00F01D02D20A7
:1005D00007E02068810701D52B2002E0202101EAF5
:1005E000C000032A099001D0072A05DB03464146D3
:1005F000204600F089F90BE12078800601D5E069FA
:1006000000E00620B8F1650F814606D0B8F1660F0C
:1006100018D0B8F1670F70D131E00020B9F1110F97
:10062000009001DB112301E009F101030AAA01A9ED
:100630000CA8FFF7E2FEDDE90C70002609F10105C8
:10064000834647E001204B4600904FF000470AAA3E
:1006500001A90CA8FFF7D1FEDDE90DB00C995D46AC
:10066000002610B909F101000D18B9EB050003D4FB
:10067000C0F1FF3609F10105A5EB09002BE0B9F146
:10068000010F01DA4FF001090020B9F1110F0090BC
:10069000484601DD112300E003460AAA01A90CA87F
:1006A000FFF7ABFEDDE90C704D460026834620784F
:1006B00000070AD4AB4500DA5D4601A8012D04DD30
:1006C000411911F8011C302907D04F4502DA17F102
:1006D000040F04DA012082460FE06D1EEEE7002FC2
:1006E00002DCED1B3E4403E0781CA84200DD7D1CCB
:1006F000B81B00F1010A4FF000472078000703D42F
:10070000AA4501DB4FF0FF3A0021B7F1004F0DF190
:1007100043088DF8431024D002202B23002F01DA48
:100720007F422D230A21021EA0F1010000DC5FB1EF
:1007300097FBF1FC97FBF1F201FB1C7C17460CF1D7
:10074000300C08F801CDEEE7A8F101000370218814
:10075000090501D5452100E06521A0F1010800F857
:10076000011C09980FA9A1EB0807FF1D00B101208A
:10077000411901EBEA70A1693844081A401EA061D2
:100780002078C00602D42046AFF30080099828B133
:10079000D4E901219047206A401C20622078C006DD
:1007A00022D52046AFF300801EE0002E04DBB345C7
:1007B00002DD01A8805D00E03020D4E901219047EE
:1007C000206A401C2062761CAAF101005FEA000A40
:1007D0000AD100F033F8C0680168405CD4E9012117
:1007E0009047206A401C2062281EA5F10105DCDC30
:1007F00007E0D4E9012118F8010B9047206A401C5A
:100800002062381EA7F10107F3DC2046AFF3008019
:10081000032011B041E60000074B70B50D467B4444
:1008200000F05FF80446284600F020F910B14FF0C0
:10083000FF3070BD204670BDAB35000000487047EA
:1008400040050020004870472005002030B5B0F179
:100850000A024FEA900E71F100034EEA817EB0EB7E
:100860000E0061EB91014FEA101E4EEA017E10EB83
:100870000E0041EB11114FEA102E4EEA016E10EB03
:100880000E0041EB11214FEA104E4EEA014E10EBE3
:100890000E0041EB1141401841F100014FEAD00038
:1008A00040EA41704FEAD10110EB80054FEA810424
:1008B00044EA907444EB01046D1944EB0404521BA8
:1008C000A3414FF0000348BF0A3200D530BD401CA1
:1008D00041F1000130BD000001694A1C0261087845
:1008E000704700B58FB0CDE9013100210591054970
:1008F0007944CDE9031011466846FFF7A5FC0FB017
:1009000000BD0000E5FFFFFF2DE9F0411F46044652
:1009100003260168072A01F4006004DB08B116A56C
:1009200005E016A503E008B115A500E015A521F026
:1009300010002060A069C01EA0610FB1401EA06120
:100940002046AFF300804FB1D4E9012138469047EB
:10095000206A401C2062C01C206206E0206AFAE780
:10096000D4E9012115F8010B9047761EF8D22046F4
:10097000AFF30080BDE8F0814E414E006E616E0025
:10098000494E4600696E66002DE9F04781461646DD
:100990008AB0354878440DC88DE80D003248784457
:1009A000801C03AC0DC884E80D0041F69B30084460
:1009B000372190FBF1F290FBF1F5A5F1800501FBE9
:1009C00012041B3C02D56442012000E00020DFF845
:1009D00098A080460027FA44AAF1BE0A0EE0E0077C
:1009E0000AD03246684607EB470101230AEB810132
:1009F00000F043FB8DE8070064107F1C002CEED153
:100A0000194F7F44AE3F19E0E80715D007EB0410FB
:100A10000DF1180A90E80E008AE80E00C068F04256
:100A200001D1981908903246012306A903A800F0C5
:100A300024FB03AB83E807006D10641C002DE3D199
:100A40004FF0010332466946B8F1000F03A802D007
:100A500000F0FEFA01E000F010FBC9E90001C9F85E
:100A600008200AB0BDE8F08720500000007B00F0AD
:100A70008000704700487047200500207546FFF74A
:100A8000F9FFAE4605006946534620F0070085464B
:100A900018B020B5FFF7B8FBBDE820404FF00006C6
:100AA0004FF000074FF000084FF0000B21F0070156
:100AB000AC46ACE8C009ACE8C009ACE8C009ACE899
:100AC000C0098D46704710B50446AFF3008020463C
:100AD000BDE81040FFF783BB4FF0013C50F8042BFA
:100AE00051F8043B9A4221D1A2EB0C03934313EA41
:100AF000CC1317D150F8042B51F8043B9A4215D16E
:100B0000A2EB0C03934313EACC130BD150F8042B44
:100B100051F8043B9A4209D1A2EB0C03934313EA28
:100B2000CC13DBD04FF00000704700BFD01A01BAE1
:100B3000B1FA81F101F0180122FA01F0CB40C1F1C4
:100B40002001DBB2C0B2C01A2CFA01F3D11A9143D2
:100B500011EAC311E6D170475FEA400C08BF91F07B
:100B6000000F4FEA8C234FEAC12243EA51514FEA6A
:100B70001C5018BF00F5F0404FEA300018BF41F09C
:100B800000415FEA6C5C00F02980BCF1FF3F08BFC8
:100B900040F080407047130C06BF12044FF0100C59
:100BA0004FF0000C130E04BF12020CF1080C130FCF
:100BB00004BF12010CF1040C930F04BF92000CF15E
:100BC000020CD30F04BF52000CF1010C11464FF080
:100BD0000002A0F11F00A0EB0C00704711F0004FC5
:100BE00008BF704731F000413FF4D5AF0B0C06BF92
:100BF00009044FF0100C4FF0000C0B0E04BF09025B
:100C00000CF1080C0B0F04BF09010CF1040C8B0F45
:100C100004BF89000CF1020CCB0F04BF49000CF19A
:100C2000010CCCF12003A0EB0C0022FA03F302FA32
:100C30000CF241EA030100F10100704720F07F4C03
:100C400080EA030023F07F47ACEB070303F57C53F6
:100C500000F0004003F1FF032DE980494FEA154BF6
:100C600009B44FEA144325EA0B4E24EA03480FF275
:100C7000042606EB132749083E785FEA320203FB9D
:100C80000667C7F5000707FB06F64FEA54374FEA39
:100C9000D64606F1020607FB066CCCF1005C4FEA73
:100CA0001C472CEA074C07FB06F40CFB06F504EB8B
:100CB00015464FEA961634BF00204FF000404FEA29
:100CC000D13706FB07FC4FEA1C4C0CFB0BF7D21B81
:100CD00003FB0CF761EB07010CFB0EF7B0EB0740D1
:100CE00072EB17420CFB08F734BFA2EB0742B2EBE2
:100CF000074261EB17414FEA0C444FEA910706FBAC
:100D000007FC4FEA1C4C0CFB0BF7B0EBC74072EB37
:100D1000573203FB0CF734BFA2EBC742B2EBC7421A
:100D200061EB57310CFB0EF7B0EBC70072EB57725B
:100D30000CFB08F734BFA2EBC702B2EBC70261EBB2
:100D40005771039F4FEA816141EA921104EBCC0491
:100D50004FEAD1374FEA826206FB07FC42EA901263
:100D60004FEA80604FEA1C4C0CFB0BF7D21B03FBD5
:100D70000CF761EB07010CFB0EF7B0EB074072EBD1
:100D800017420CFB08F734BFA2EB0742B2EB074255
:100D900061EB17414FEA8C554FEA910704EB9C2415
:100DA00006FB07FC4FEA1C4C0CFB0BF7B0EBC740F3
:100DB00072EB573203FB0CF734BFA2EBC742B2EB26
:100DC000C74261EB57310CFB0EF7B0EBC70072EB7B
:100DD00057720CFB08F734BFA2EBC702B2EBC70295
:100DE00061EB577115EB4C254FEA816141EA921195
:100DF0004FEA82624FEAD13742EA901206FB07FCC3
:100E000044F100044FEA80604FEA1C4C0CFB0BF7E6
:100E1000D21B03FB0CF761EB07010CFB0EF7B0EBE9
:100E2000074072EB17420CFB08F734BFA2EB0742F6
:100E3000B2EB074261EB174115EB1C154FEA81310C
:100E400041EA92414FEA823242EA90424FEA8030D0
:100E50004FEA0C7644F1000448EA03434EEA0B489B
:100E60004FF0000EB2EB080C71EB030724BF624693
:100E700039464EEB0E0E4FF0000B0018524149411F
:100E80004BEB0B0BB2EB080C71EB03077BF1000B88
:100E900024BF624639464EEB0E0E4FF0000B001891
:100EA000524149414BEB0B0BB2EB080C71EB0307C2
:100EB0007BF1000B24BF624639464EEB0E0E51EA21
:100EC000020718BF46F0010616EB0E7655F1000238
:100ED00054F1000103D5BDE88901BDE80088BDE8F3
:100EE0008901BDE80048B619524141EB0101A3F167
:100EF0000103704780807F7E7D7C7B7A797877766E
:100F000076757473727171706F6E6E6D6C6C6B6AE6
:100F10006A69686867666665646463636261616084
:100F2000605F5F5E5E5D5D5C5C5B5B5A5A59595801
:100F3000585757565655555554545353525252516B
:100F4000515050504F4F4F4E4E4D4D4D4C4C4C4BC1
:100F50004B4B4A4A4A494949484848474747474608
:100F60004646454545444444444343434342424244
:100F700042414141002B9C4630D477002BD01CB518
:100F80004FEA370703B44FF010004FF01001BAF1E9
:100F9000000F06D0BCF1000FDCBF40F0080040F0AD
:100FA00008014FF000000FBCBDE810400BF1010B31
:100FB000BBF1010F08BF5FEA170722BF12F1010260
:100FC00011F101014FF0004143F1000300F0004036
:100FD00043EA00007047F9D35708D0E746EA0646CF
:100FE00013F1400F4FEA16461FDD13F1200FDFBF4C
:100FF00016430A46002120335B42BED0C3F12007CE
:1010000046EA064602FA07F74FEA164646EA070698
:10101000C3F1200722FA03F201FA07F721FA03F1DC
:101020004FF0000342EA0702A7E746EA020646EA53
:1010300006464FEA164646EA0106BCBF46EA0646A1
:10104000360C4FF000034FF000024FF0000194E720
:101050002DE9804C9A46934670B491E8380007C851
:1010600031EA400C48BF34EA430C03D5FFF7E6FDF4
:10107000FFF780FFF0BCBDE8008C2DE9804C9A465C
:10108000934670B491E8380007C810F0804F08BF4D
:1010900013F0804F03D100F005F8FFF76BFFF0BCB1
:1010A000BDE8008C20F07F4780EA030023F07F4CEE
:1010B00007EB0C03A3F57C5300F00040A3F1FE0303
:1010C00092F0000F00F0B38095F0000F00F07780F1
:1010D0002DE901494FEA11404FEA144621EA004840
:1010E00000FB06FC24EA064708FB06F607FB08F8A7
:1010F00000FB07F718EB06484CEB164C4FEA124B77
:1011000018EB07484FEA15464CEB174022EA0B4E06
:101110000BFB06FC25EA06470EFB06F607FB0EFE58
:101120000BFB07F71EEB064E4CEB164C4FF0000680
:101130001EEB074E4CEB174B18EB0B0840F1000071
:1011400018EB0E0B58EB000840F100008F1A4FF01F
:1011500000013CBFC943661B14BFB5EB040C002162
:101160003CBFC943F61B4FEA17444EEA8E0E27EAEE
:1011700004454FEA1C4704FB07622CEA074C05FBB9
:1011800007F70CFB05F604FB0CFC16EB074642EBDD
:10119000174216EB0C4642EB1C421BEB060658EBC3
:1011A0000202414146EA9E0601D5BDE80189B61911
:1011B000524141EB0101A3F10103BDE801894FEA6E
:1011C00014454FEA114724EA054621EA074C05FB7E
:1011D00007F406FB07F70CFB06F105FB0CFC11EB13
:1011E000074144EB17444FEA124711EB0C4144EB23
:1011F0001C4422EA074C05FB07F206FB07F70CFB31
:1012000006F605FB0CFC16EB074642EB174216EB05
:101210000C4642EB1C456A1854F1000148BF704768
:10122000B619524141EB0101A3F10103704795F05A
:10123000000F37D04FEA11424FEA144721EA024625
:1012400024EA074C02FB07F106FB07F70CFB06F448
:1012500002FB0CFC14EB074441EB17414FEA154726
:1012600014EB0C4441EB1C4125EA074C02FB07F54B
:1012700006FB07F70CFB06F602FB0CFC16EB074619
:1012800045EB174516EB0C4645EB1C42121951F184
:10129000000148BF7047B619524141EB0101A3F16B
:1012A000010370474FEA14454FEA114724EA054607
:1012B00021EA074C05FB07F106FB07F70CFB06F2DA
:1012C0004FF0000605FB0CFC12EB074241EB174107
:1012D00012EB0C4251EB1C4148BF7047921841EB96
:1012E0000101A3F10103704700B585B000BF1848A4
:1012F000806940F00800164988610846806900F05E
:101300000800009000BF00BF00BF0846806940F0A1
:10131000100088610846806900F01000009000BF4E
:1013200000BF4FF4604001900120049002900390B0
:1013300001A9084800F064FE7F200190012004907C
:101340000290039001A9044800F05AFE05B000BDC8
:1013500000100240000C01400010014010B50022B6
:1013600010211F4800F0F4FF002202211C4800F069
:10137000EFFF002204211A4800F0EAFF01220821B1
:10138000174800F0E5FF642002F0FCFC0022082171
:10139000134800F0DDFF00224FF40051114800F027
:1013A000D7FF002201210E4800F0D2FF072000F0F5
:1013B00059F8002000F056F84A2000F053F80020B9
:1013C00000F050F8602000F04DF80122042104489C
:1013D00000F0BEFF00220421014800F0B9FF10BD5B
:1013E00000100140000C01402DE9F04107460C4679
:1013F0000026384600F054F906250CE016B9022004
:1014000000F030F8691EC9B20D46144A505C00F075
:1014100029F8701CC6B2002DF0DC082000F022F87C
:10142000C4F3072000F01EF8E0B200F01BF809201A
:1014300000F018F8C4F3072000F014F8E0B200F050
:1014400011F801220421064800F082FF0022042145
:10145000034800F07DFFBDE8F08100003C00002063
:101460000010014070B5044608251CE004F080001F
:1014700028B10122D1030D4800F06AFF05E00022E7
:101480004FF40041094800F063FF6006040E00229B
:101490000221074800F05CFF01220221044800F00D
:1014A00057FF681EC5B2002DE0DC70BD000C014086
:1014B0000010014000B587B0022001908003039026
:1014C00001A801F091F80C480C4908600020486020
:1014D00000210A488160C160012101610021416150
:1014E00081614FF46021C16100F0D2FA034800F03D
:1014F00067F907B000BD0000002401407804002017
:1015000070B5044600252068806800F00100F0B145
:101510002068806820F001002168886000F01EFFCC
:1015200005460EE000F01AFF401B022809D9A06A08
:1015300040F01000A062E06A40F00100E06201208B
:1015400070BD2068806800F001000028EAD100200A
:10155000F6E7000038B5044600250020009020681A
:10156000806800F0010080BB2068806840F00100C6
:1015700021688860164800681649B0FBF1F00090B9
:1015800002E00098401E009000980028F9D100F079
:10159000E5FE054613E000F0E1FE401B02280ED9EF
:1015A000A06A40F01000A062E06A40F00100E06232
:1015B00000BF002084F8240000BF012038BD20684F
:1015C000806800F001000028E5D00020F6E7000068
:1015D0002800002040420F0000BFFEE7704710B512
:1015E000012000F0FFFC10BD10B5042000F0FAFC53
:1015F00010BD10B5082000F0F5FC10BD10B510208E
:1016000000F0F0FC10BD000000B585B000BF204820
:10161000806940F004001E4988610846806900F036
:101620000400009000BF00BF00BF0846806940F082
:10163000400088610846806900F04000009000BFCB
:1016400000BF01200190134802900220039001A9DD
:10165000114800F0D5FC102001900E4802900120A6
:10166000039001A90D4800F0CBFC002202210620C6
:1016700000F0B6FE062000F0A6FE032202210A209A
:1016800000F0AEFE0A2000F09EFE05B000BD000096
:101690000010024000001110000801400018014035
:1016A00018B50146144ACBB28DF800300B0A8DF8FC
:1016B00001300B0C8DF802300B0E8DF803309DF8C5
:1016C000003003FB02F00D4C2070000A9DF8013041
:1016D00002FB03006070000A9DF8023002FB030069
:1016E000A070000A9DF8033002FB0300E070000ABE
:1016F0002071030A637118BD0A510E003C000020DE
:1017000000B585B000BF1348806940F4807011496E
:1017100088610846806900F48070009000BF00BFB7
:101720004FF4204001900120029003900320049088
:1017300001A9094800F064FC00224FF4004106486A
:1017400000F006FE00224FF40051034800F000FEB6
:1017500005B000BD00100240002001403EB5044627
:10176000009401200190072002906946074800F08C
:10177000A9F8064800F04CFB0A21044800F090FA52
:10178000024800F081F980B23EBD000078040020DC
:101790002DE9F04107460C460025002608E03846B2
:1017A000FFF7DCFF0544142002F0ECFA701CC6B20F
:1017B000A642F4DBB5FBF4F080B2BDE8F081000096
:1017C000F8B5044600260020009000BF94F82400DD
:1017D000012801D10220F8BD012084F8240000BFB7
:1017E0002046FFF78DFE0646002E62D1A06A20F447
:1017F000885040F00200A062022000F043FE304911
:101800000968B1FBF0F04000009002E00098401E33
:10181000009000980028F9D12046FFF79BFE206831
:10182000806840F008002168886000F097FD054658
:1018300011E000F093FD401B0A280CD9A06A20F0AB
:10184000020040F01000A06200BF002084F82400D5
:1018500000BF0120BFE72068806800F00800002872
:10186000E7D12068806840F004002168886000F0BB
:1018700075FD054611E000F071FD401B0A280CD9EA
:10188000A06A20F0020040F01000A06200BF00201B
:1018900084F8240000BF01209DE72068806800F0E4
:1018A00004000028E7D1A06A20F0020040F0010007
:1018B000A06200BF002084F8240000BF30468AE701
:1018C0002800002078B5024600230020009000BFC9
:1018D00092F82400012801D1022078BD012082F86D
:1018E000240000BF486807281DD21068446B08799F
:1018F000401E4FF4787595FAA5F5B5FA85F568435D
:101900001F25854024EA05000C79641E4FF4787683
:1019100096FAA6F6B6FA86F674430D68A5402843F3
:10192000146860633DE048680D281DD21068046BA0
:101930000879C01F4FF4787595FAA5F5B5FA85F5C5
:1019400068431F25854024EA05000C79E41F4FF405
:10195000787696FAA6F6B6FA86F674430D68A54030
:101960002843146820631CE01068C46A08790D38A5
:101970004FF4787595FAA5F5B5FA85F568431F25F6
:10198000854024EA05000C790D3C4FF4787696FAF0
:10199000A6F6B6FA86F674430D68A5402843146887
:1019A000E06208680A281BD31068C46808780A38FF
:1019B000382595FAA5F5B5FA85F5684307258540DC
:1019C00024EA05000C780A3C382696FAA6F6B6FA00
:1019D00086F674438D68A54028431468E06017E0DC
:1019E000106800690C78382595FAA5F5B5FA85F5E3
:1019F0006C430725A540A8430D78382696FAA6F62D
:101A0000B6FA86F675438C68AC40204314682061B2
:101A10000868102802D00868112827D1174C1068D0
:101A2000A0421ED11068806800F40000F0B9106870
:101A3000806840F400001468A0600868102815D180
:101A40000F4800680F4CB0FBF4F000EB8000400042
:101A5000009002E00098401E009000980028F9D104
:101A600004E0906A40F020009062012300BF002053
:101A700082F8240000BF18462FE700000024014030
:101A80002800002040420F0001460868C06C7047E3
:101A90002DE9F0410446002700250026A84614B988
:101AA0000120BDE8F081A06810B1606900B100BFFD
:101AB000A06A30B90020E06284F82400204600F0DB
:101AC000A9F82046FFF71CFD0746A06A00F01000A9
:101AD00000287DD1002FFCD1A06A20F4885040F06E
:101AE0000200A062484AD4E90001904208D1E069AE
:101AF000B0F5402F02D14FF4002002E0E06900E091
:101B0000E0690843022292FAA2F2B2FA82F2E16894
:101B1000914008430643A068B0F5807F02D0A068DA
:101B2000012802D14FF4807000E000200543606975
:101B3000012816D1E06860B9A069401E4FF46041E9
:101B400091FAA1F1B1FA81F1884040F400600543B7
:101B500007E0A06A40F02000A062E06A40F00100C7
:101B6000E0622068406820F46940284321684860AA
:101B70002068806825490840304321688860A06853
:101B8000B0F5807F02D0A068012802D14FF48070A8
:101B900000E00020B0F5807F09D12069401E4FF49D
:101BA000700191FAA1F1B1FA81F100FA01F820680F
:101BB000C06A20F4700040EA08002168C86220680A
:101BC000806813490840B0420AD10020E06200E07A
:101BD00012E0A06A20F0020040F00100A06210E0D4
:101BE000A06A20F0020040F01000A062E06A40F01D
:101BF0000100E062012704E0A06A40F01000A0624A
:101C0000012738464DE70000003C0140FDF7E1FFA9
:101C1000FE0E1FFF10B586B0044600BF1E48806947
:101C200040F400701C4988610846806900F4007027
:101C3000019000BF00BF00BF0846806940F004006B
:101C400088610846806900F00400019000BF00BF71
:101C500002200290032003900020049002A90F4864
:101C600000F0CEF90420029002A90C4800F0C8F957
:101C70000820029002A9094800F0C2F91020029041
:101C800002A9064800F0BCF92020029002A90348EE
:101C900000F0B6F906B010BD001002400008014087
:101CA000F8B504460D46002600200090002700F0FD
:101CB00055FB06462068806800F4807050B1A06A29
:101CC00040F02000A06200BF002084F8240000BF84
:101CD0000120F8BD2068406800F48070F8B92068E1
:101CE000C06A00F47000D0B912E0681C80B125B160
:101CF00000F034FB801BA8420AD9A06A40F004001F
:101D0000A06200BF002084F8240000BF0320E0E7A9
:101D10002068006800F002000028E6D050E00220B1
:101D200000F0B0FB36490968B1FBF0F021680969A1
:101D3000344A114091B92168C9689211114069B9BA
:101D400021680969304A114031B92168C968921186
:101D5000114009B9142117E0292115E0216809690A
:101D6000294A114021B92168C9689211114041B135
:101D700021680969254A114029B92168C9681140BB
:101D800009B9542100E0FC2100FB01F715E0681CB3
:101D900080B125B100F0E2FA801BA8420AD9A06AFE
:101DA00040F00400A06200BF002084F8240000BFBF
:101DB00003208EE70098401C00900098B842E6D3BC
:101DC0006FF0120021680860A06A40F40070A06201
:101DD0002068806800F46020B0F5602F0DD1E068C5
:101DE00058B9A06A20F48070A062A06A00F4805004
:101DF00018B9A06A40F00100A062002069E7000065
:101E00002800002024499224922449124992240057
:101E100070B50446002500BF94F82400012801D1C4
:101E2000022070BD012084F8240000BF2046FFF787
:101E300091FB0546002D77D1A06A40F2012188432D
:101E400040F48070A0623C492068884208D13B4839
:101E5000006800F4702008B9012002E0002000E0D2
:101E6000012078B1A06A20F48010A0622068406848
:101E700000F4806000B3A06A20F4005040F4805069
:101E8000A06219E0A06A40F48010A0622B49091FEB
:101E90002068884203D028492068884204D1274816
:101EA000006800F4806000E0002028B1A06A20F4FF
:101EB000005040F48050A062A06A00F4805020B12D
:101EC000E06A20F00600E06201E00020E06200BF6E
:101ED000002084F8240000BFC01E2168086020682C
:101EE000806800F46020B0F5602F16D11249206898
:101EF000884208D11148006800F4702008B9012018
:101F000002E0002000E0012038B12068806840F441
:101F1000A000216888600CE006E02068806840F43A
:101F200080102168886004E000BF002084F824004D
:101F300000BF284675E70000002801400424014046
:101F400031B5002400F00AFA044600BF00F006FA9A
:101F5000001B00998842F9D338BD000010B5044633
:101F6000052001F003FF012C02D0102C24D11AE02F
:101F70000121124800F0E4F9012813D1104800783B
:101F800030B910A0FEF754F901200D49087009E09E
:101F90000B480078012805D10DA0FEF749F9002073
:101FA0000749087008E010210C4800F0C9F9012821
:101FB00001D10B49087000BF00BF10BD00080140EF
:101FC0000000002075617274206F70656E00000063
:101FD0007561727420636C6F7365000000180140B6
:101FE0000100002010B5044604480068204020B1DC
:101FF000024804602046FFF7B1FF10BD1404014001
:102000002DE9F847024600240020002584460027D9
:1020100000237BE14FF0010808FA03F4D1F80080B7
:1020200008EA0400A0427DD1DFF8ECA2D1F80480D8
:10203000A8EB0A09D0453AD014DCB8F1030F50D010
:1020400009DCB8F1000F31D0B8F1010F1CD0B8F1A4
:10205000020F49D120E0B8F1110F18D0B8F1120FDA
:1020600042D11EE0B9F5881F25D006DCB9F5803FC6
:1020700020D0B9F5801F37D11AE0B9F5001F18D06C
:10208000B9F5041F30D117E0D1F80CC02DE0D1F81C
:102090000C8008F1040C28E0D1F80C8008F1080C41
:1020A00023E0D1F80C8008F10C0C1EE000BF00BF4B
:1020B00000BF00BF00BF00BFD1F80880B8F1000F1B
:1020C00002D14FF0040C0BE0D1F80880B8F1010FF9
:1020D00003D14FF0080C146102E04FF0080C54617A
:1020E00003E04FF0000C00E000BF00BFFF2801D864
:1020F000904601E002F104084646FF2802D84FEA64
:10210000830803E0A3F108084FEA88084746D6F899
:1021100000804FF00F0909FA07F928EA09080CFABC
:1021200007F900E07AE048EA0908C6F80080D1F82B
:10213000048008F08058B8F1805F6FD100BFDFF8ED
:10214000DC81D8F8188048F00108DFF8D091C9F890
:102150001880C846D8F8188008F00108CDF800802B
:1021600000BF00BF4FEAB9384FEA930958F8295029
:102170004FEA83784FEA18794FF00F0808FA09F808
:1021800025EA0805DFF89881424502D14FF00008A2
:1021900024E0DFF89081424502D14FF001081DE0B4
:1021A000DFF88481424502D14FF0020816E0DFF8E3
:1021B0007C81424502D14FF003080FE0DFF87081C7
:1021C000424502D14FF0040808E0DFF8688142453B
:1021D00002D14FF0050801E04FF006084FEA83797D
:1021E0004FEA197908FA09F848EA0505DFF8488145
:1021F0004FEA930948F82950D1F8048008F4803850
:10220000B8F5803F0BD1DFF83481D8F8008048EA78
:102210000008DFF82891C9F800800AE075E0DFF8CF
:102220001C81D8F8008028EA0008DFF81091C9F86E
:102230000080D1F8048008F40038B8F5003F0ED1D2
:10224000DFF8F88008F10408D8F8008048EA0008B0
:10225000DFF8E89009F10409C9F800800DE0DFF823
:10226000DC8008F10408D8F8008028EA0008DFF8CC
:10227000CC9009F10409C9F80080D1F8048008F471
:102280008018B8F5801F0ED1DFF8B08008F108087B
:10229000D8F8008048EA0008DFF8A09009F10809A2
:1022A000C9F800800DE0DFF8948008F10808D8F83C
:1022B000008028EA0008DFF8849009F10809C9F8CD
:1022C0000080D1F8048008F40018B8F5001F0ED182
:1022D000DFF8688008F10C08D8F8008048EA0008A8
:1022E000DFF8589009F10C09C9F800800DE0DFF81B
:1022F0004C8008F10C08D8F8008028EA0008DFF8C4
:102300003C9009F10C09C9F800805B1C102BFFF40C
:1023100081AEBDE8F88700000000111000100240F7
:1023200000080140000C0140001001400014014071
:1023300000180140001C0140080001400004014059
:10234000024693680B400BB1012000E0002070476B
:102350000AB1016101E00B040361704701480068A4
:10236000704700003800002002480068401C014906
:10237000086070473800002010B50848006840F039
:10238000100006490860032000F068F80F2000F0F4
:1023900007F800F017F8002010BD000000200240F0
:1023A00070B5044600F02AFB4FF47A71B0FBF1F5EA
:1023B000284600F0FFFF00222146501E00F010F8D2
:1023C000002070BD704700BF00F01F020121914046
:1023D0004209920002F1E022C2F8001100BF7047EA
:1023E0002DE9F05F80460D461646002701F060FAA1
:1023F000074639462A46334601F00700C0F1070A6E
:10240000BAF1040F02D94FF0040A01E0C0F1070A43
:10241000D14600F1040ABAF1070F02D24FF0000AC8
:1024200001E0A0F1030AD4464FF0010A0AFA09FAC2
:10243000AAF1010A0AEA020A0AFA0CFA4FF0010BA1
:102440000BFA0CFBABF1010B0BEA030B4AEA0B0492
:102450002146404601F034FABDE8F09F00BF00F08D
:102460000702064B19684FF6FF031940044B0B4354
:1024700043EA0221014B196000BF70470CED00E0F8
:102480000000FA052DE9F04385B006464EA30FCBB8
:1024900001AC0FC450A0006800900024A046A146E3
:1024A00000250027042E43D004DC012E48D0022E44
:1024B00070D170E0082E3FD0102E7FD1474844687D
:1024C000006800F0807068B304F470104FF470116D
:1024D00091FAA1F1B1FA81F1C84001A90F5C04F4AD
:1024E0008030A0B13D48406800F40030710391FA9B
:1024F000A1F1B1FA81F1C8401DF8009004F48030D8
:1025000040B13748B0FBF9F000FB07F502E0354871
:1025100007FB00F53148406800F48000B0F5800FFB
:1025200001D1A84603E068000321B0FBF1F846E0C2
:1025300000F096FA804642E000F092FA80463EE0D3
:102540002648046A04F44070B0F5807F05D104F099
:10255000020010B14FF400481BE004F44070B0F5E5
:10256000007F07D11D48406A00F0020010B149F613
:1025700040480EE004F44070B0F5407F07D11748A2
:10258000006800F4003010B14FF2244801E04FF031
:10259000000814E012E000F04DFA01460F484068D0
:1025A00000F440404FF4804292FAA2F2B2FA82F272
:1025B000D040401C4000B1FBF0F800E000BF00BF7D
:1025C000404605B0BDE8F08302030405060708098C
:1025D0000A0B0C0D0E0F101001020000001002403B
:1025E00000127A0000093D00F8B5044600260025D7
:1025F000207800F00100002877D000BF5648C0695D
:1026000040F080505449C8610846C06900F08050CD
:10261000009000BF00BF5148006840F480704F49EF
:102620000860FFF79BFE064606E0FFF797FE801B5B
:10263000642801D90320F8BD4848006800F4807080
:102640000028F2D04448006A00F44075002D5ED0A6
:10265000A08800F44070A84259D03F48006A20F496
:1026600040750120010491FAA1F1B1FA81F13C4ACF
:1026700002EB8101C1F8000400204FF4803191FA8F
:10268000A1F1B1FA81F102EB8101C1F800043248F5
:10269000056205F0010048B3FFF760FE064608E05A
:1026A000FFF75CFE801B41F28831884201D903208C
:1026B000C1E74020022191FAA1F1B1FA81F108436A
:1026C0000121B1EB601F02D12348006811E04020D6
:1026D000022191FAA1F1B1FA81F108430221B1EB93
:1026E000601F04D11C48006A03E018E00FE01A489C
:1026F000406A4021022292FAA2F2B2FA82F2114317
:1027000001F01F020121914008400028C8D0124862
:10271000006A20F44070616808430F49086220781D
:1027200000F00200022807D10B48406820F4404026
:10273000A168084308494860207800F0100010287C
:1027400007D10548406820F48000616908430249C8
:10275000486000206FE70000001002400070004059
:102760000000424270B504460D4600269F480068AE
:1027700000F00700A8420ED29C48006820F0070035
:1027800028439A4908600846006800F00700A842FC
:1027900001D0012070BD207800F00200022807D18E
:1027A0009348406820F0F000A168084390494860D1
:1027B000207800F0010000287CD0606801282DD12D
:1027C0002020010391FAA1F1B1FA81F1084301211E
:1027D000B1EB601F02D1864800680FE020200103A2
:1027E00091FAA1F1B1FA81F108430221B1EB601F26
:1027F00002D17F48006A01E07D48406A20210A0337
:1028000092FAA2F2B2FA82F2114301F01F02012100
:1028100091400840002860D10120BBE76068022891
:102820002CD12020010591FAA1F1B1FA81F10843E0
:102830000121B1EB601F02D16D4800680FE020203C
:10284000010591FAA1F1B1FA81F108430221B1EB3E
:10285000601F02D16648006A01E06548406A202195
:102860000A0592FAA2F2B2FA82F2114301F01F02B3
:1028700001219140084078BB01208BE720200221F4
:1028800091FAA1F1B1FA81F108430121B1EB601F86
:1028900002D15748006810E02020022191FAA1F1EE
:1028A000B1FA81F108430221B1EB601F03D1504816
:1028B000006A02E054E04E48406A2021022292FA67
:1028C000A2F2B2FA82F2114301F01F0201219140FB
:1028D000084008B901205DE7FFE74548406820F05F
:1028E00003006168084342494860FFF737FD064628
:1028F0006068012810D108E0FFF730FD801B41F22D
:102900008831884201D9032044E73948406800F003
:102910000C000428F0D123E06068022810D108E000
:10292000FFF71CFD801B41F28831884201D903204A
:1029300030E72F48406800F00C000828F0D10FE085
:1029400008E0FFF70BFD801B41F28831884201D976
:1029500003201FE72648406800F00C000028F0D153
:102960002248006800F00700A8420ED91F480068FE
:1029700020F0070028431D4908600846006800F061
:102980000700A84201D0012004E7207800F00400ED
:10299000042807D11648406820F4E060E168084345
:1029A00013494860207800F00800082808D1104832
:1029B000406820F46050216940EAC1000C49486039
:1029C00000F04EF80A49496801F0F001F02292FA4D
:1029D000A2F2B2FA82F2D140064A515CC8400649DE
:1029E00008600F20FFF7DCFC0020D3E60020024047
:1029F0000010024022590008280000200148006809
:102A0000704700002800002000B5FFF7F7FF0749D6
:102A1000496801F4E0614FF4E06292FAA2F2B2FA7E
:102A200082F2D140024A515CC84000BD0010024011
:102A30003259000800B5FFF7E1FF0749496801F482
:102A400060514FF4605292FAA2F2B2FA82F2D1408F
:102A5000024A515CC84000BD0010024032590008D3
:102A6000F0B585B00FF28C0C9CE8E01001A8A0E84E
:102A7000E01024A52D6800950021002400220023E9
:102A80000020214D696801F00C056DB3042D02D0C2
:102A9000082D28D101E01D4828E001F470154FF4FD
:102AA000701696FAA6F6B6FA86F6F54001AE735D94
:102AB00001F4803595B1144D6D6805F400354FF47F
:102AC000003696FAA6F6B6FA86F6F5401DF80540E9
:102AD0000E4DB5FBF4F505FB03F202E00C4D03FBD4
:102AE00005F2104602E000BF084800BF00BF05B075
:102AF000F0BD000002030405060708090A0B0C0DCF
:102B00000E0F1010010200000010024000127A00A7
:102B100000093D0038B504460025207800F001008A
:102B200000287CD0F848406800F00C0004280CD045
:102B3000F548406800F00C00082837D1F24840689A
:102B400000F48030B0F5803F30D12020010391FAAD
:102B5000A1F1B1FA81F108430121B1EB601F02D16B
:102B6000E94800680FE02020010391FAA1F1B1FAD1
:102B700081F108430221B1EB601F02D1E248006AF3
:102B800001E0E148406A20210A0392FAA2F2B2FA77
:102B900082F2114301F01F020121914008400028F8
:102BA000BFD0606800283AD1012038BD00BF6068FE
:102BB000B0F5803F06D1D448006840F48030D24957
:102BC000086028E0606858B9CF48006820F4803079
:102BD000CD4908600846006820F4802008601AE0AB
:102BE0006068B0F5A02F0BD1C748006840F4802082
:102BF000C54908600846006840F4803008600AE073
:102C0000C148006820F48030BF4908600846006869
:102C100020F48020086000BF6068C8B300E06FE067
:102C2000FFF79CFB054606E0FFF798FB401B642876
:102C300001D90320B9E72020010391FAA1F1B1FAEB
:102C400081F108430121B1EB601F02D1AE48006859
:102C50000FE02020010391FAA1F1B1FA81F10843BC
:102C60000221B1EB601F02D1A748006A01E0A6482B
:102C7000406A20210A0392FAA2F2B2FA82F21143C8
:102C800001F01F020121914008400028CCD037E01C
:102C9000FFE7FFF763FB054606E0FFF75FFB401B1E
:102CA000642801D9032080E72020010391FAA1F1D3
:102CB000B1FA81F108430121B1EB601F02D19248C2
:102CC00000680FE02020010391FAA1F1B1FA81F12F
:102CD00008430221B1EB601F02D18B48006A01E07A
:102CE0008948406A20210A0392FAA2F2B2FA82F2DB
:102CF000114301F01F020121914008400028CCD16E
:102D0000207800F0020002284ED17F48406800F091
:102D10000C0050B17C48406800F00C00082844D1F9
:102D20007948406800F4803078BB2020022191FA75
:102D3000A1F1B1FA81F108430121B1EB601F02D189
:102D4000714800680FE02020022191FAA1F1B1FA48
:102D500081F108430221B1EB601F02D16A48006A89
:102D600001E06948406A2021022292FAA2F2B2FAF6
:102D700082F2114301F01F0201219140084028B165
:102D80002069012802D001200FE70EE05E480068AC
:102D900020F0F800F82292FAA2F2B2FA82F2616907
:102DA000914008435849086091E02069F0B3012040
:102DB00090FAA0F1B1FA81F1544A42F82100FFF7EC
:102DC000CDFA054606E0FFF7C9FA401B022801D9F3
:102DD0000320EAE62020022191FAA1F1B1FA81F163
:102DE00008430121B1EB601F02D1474800680FE0A2
:102DF0002020022191FAA1F1B1FA81F108430221C8
:102E0000B1EB601F02D14048006A01E03E48406AD1
:102E10002021022292FAA2F2B2FA82F2114301F0C8
:102E20001F02012191400840002800E00FE0CAD0B5
:102E30003548006820F0F800F82292FAA2F2B2FABF
:102E400082F26169914008432F4908603FE0002009
:102E5000012191FAA1F1B1FA81F12C4A42F8210045
:102E6000FFF77CFA054606E0FFF778FA401B0228D8
:102E700001D9032099E62020022191FAA1F1B1FAAB
:102E800081F108430121B1EB601F02D11E480068A7
:102E90000FE02020022191FAA1F1B1FA81F108435B
:102EA0000221B1EB601F02D11748006A01E0164809
:102EB000406A2021022292FAA2F2B2FA82F211436F
:102EC00001F01F020121914008400028CCD1207858
:102ED00000F0080008284BD1A069A8B3012191FA9D
:102EE000A1F0B0FA80F0094A02EB8000C0F880142B
:102EF000FFF734FA05460BE0FFF730FA401B0228D3
:102F000006D9032051E600000010024000004242B2
:102F10006020022191FAA1F1B1FA81F10843012167
:102F2000B1EB601F02D1F948006810E06020022177
:102F300091FAA1F1B1FA81F108430221B1EB601FCE
:102F400003D1F248006A02E013E0F048406A6021D1
:102F5000022292FAA2F2B2FA82F2114301F01F02A7
:102F60000121914008400028C6D00120FEF7E8FF6B
:102F700041E00020012191FAA1F1B1FA81F1E44A86
:102F800002EB8101C1F88004FFF7E8F9054606E08D
:102F9000FFF7E4F9401B022801D9032005E6602071
:102FA000022191FAA1F1B1FA81F108430121B1EBBB
:102FB000601F02D1D54800680FE06020022191FA1D
:102FC000A1F1B1FA81F108430221B1EB601F02D1F6
:102FD000CE48006A01E0CD48406A6021022292FAA0
:102FE000A2F2B2FA82F2114301F01F0201219140D4
:102FF00008400028CCD1207800F00400042875D1C6
:1030000000BFC248C06940F08050C049C86108464E
:10301000C06900F08050009000BF00BFBD4800684C
:1030200040F48070BB490860FFF798F9054606E058
:10303000FFF794F9401B642801D90320B5E5B54892
:10304000006800F480700028F2D000BFE06801281A
:1030500006D1AE48006A40F00100AC49086227E0A2
:10306000E06858B9A948006A20F00100A749086241
:103070000846006A20F00400086219E0E0680528AC
:103080000BD1A248006A40F00400A049086208463B
:10309000006A40F0010008620AE09C48006A20F0E3
:1030A00001009A4908620846006A20F0040008629C
:1030B00000BFE068D0B3FFF751F9054608E0FFF71D
:1030C0004DF9401B41F28831884201D903206CE55B
:1030D0004020022191FAA1F1B1FA81F108430121C6
:1030E000B1EB601F03D18948006810E058E0402030
:1030F000022191FAA1F1B1FA81F108430221B1EB69
:10310000601F02D18148006A01E08048406A402186
:10311000022292FAA2F2B2FA82F2114301F01F02E5
:103120000121914008400028C9D039E0FFE7FFF7AE
:1031300015F9054608E0FFF711F9401B41F2883107
:10314000884201D9032030E54020022191FAA1F103
:10315000B1FA81F108430121B1EB601F02D16B4844
:1031600000680FE04020022191FAA1F1B1FA81F14B
:1031700008430221B1EB601F02D16448006A01E0FC
:103180006248406A4021022292FAA2F2B2FA82F226
:10319000114301F01F020121914008400028CAD1CB
:1031A000E069002873D05948406800F00C000828F6
:1031B0006ED0E06902286CD100204FF0807191FA46
:1031C000A1F1B1FA81F1524A42F82100FFF7C6F8A5
:1031D000054606E0FFF7C2F8401B022801D903208C
:1031E000E3E42020010591FAA1F1B1FA81F108434D
:1031F0000121B1EB601F02D1444800680FE020209C
:10320000010591FAA1F1B1FA81F108430221B1EB74
:10321000601F02D13D48006A01E03C48406A20211D
:103220000A0592FAA2F2B2FA82F2114301F01F02E9
:103230000121914008400028CCD1206AB0F5803FA0
:1032400007D13248406820F40030A16808432F4974
:103250004860D4E9080108432C49496821F47411F5
:1032600008432A4948600121080690FAA0F0B0FA04
:1032700080F0274A42F82010FFF770F8054609E071
:10328000FFF76CF8401B022804D903208DE479E095
:1032900076E02CE02020010591FAA1F1B1FA81F14C
:1032A00008430121B1EB601F02D1184800680FE00C
:1032B0002020010591FAA1F1B1FA81F10843022120
:1032C000B1EB601F02D11148006A01E00F48406A6B
:1032D00020210A0592FAA2F2B2FA82F2114301F019
:1032E0001F020121914008400028C9D04AE0002077
:1032F0004FF0807191FAA1F1B1FA81F1044A42F8DC
:103300002100FFF72BF805460DE0000000100240F9
:103310000000424200700040FFF720F8401B0228E6
:1033200001D9032041E42020010591FAA1F1B1FA6D
:1033300081F108430121B1EB601F02D112480068FE
:103340000FE02020010591FAA1F1B1FA81F10843C3
:103350000221B1EB601F02D10B48006A01E00A486C
:10336000406A20210A0592FAA2F2B2FA82F21143CF
:1033700001F01F020121914008400028CCD101E05A
:10338000012012E4002010E400100240042808D1BB
:103390004FF0E021096941F004014FF0E022116192
:1033A00007E04FF0E021096921F004014FF0E0222D
:1033B0001161704770B504462546681EB0F1807FE4
:1033C00001D301200FE0681E4FF0E02148610F217A
:1033D0004FF0FF3000F074FA00204FF0E0218861D8
:1033E00007200861002070BD70477047704710B516
:1033F000044620680069C0F34000D8B12068C06866
:10340000C0F34000B0B16FF00200216808610120F4
:1034100020762068806900F0030018B12046FFF78D
:10342000E5FF05E0204600F0ADF8204600F0ABF8DF
:103430000020207620680069C0F38000D8B12068A1
:10344000C068C0F38000B0B16FF00400216808616B
:10345000022020762068806900F4407018B1204670
:10346000FFF7C4FF05E0204600F08CF8204600F08E
:103470008AF80020207620680069C0F3C000D8B127
:103480002068C068C0F3C000B0B16FF008002168C8
:103490000861042020762068C06900F0030018B19C
:1034A0002046FFF7A3FF05E0204600F06BF820461A
:1034B00000F069F80020207620680069C0F3001051
:1034C000D8B12068C068C0F30010B0B16FF0100030
:1034D00021680861082020762068C06900F44070E7
:1034E00018B12046FFF782FF05E0204600F04AF8B9
:1034F000204600F048F8002020762068006900F09F
:10350000010058B12068C06800F0010030B16FF0D0
:10351000010021680861204600F036F82068006943
:10352000C0F3C01058B12068C068C0F3C01030B1FB
:103530006FF08000216808612046FFF755FF206882
:103540000069C0F3801058B12068C068C0F38010D3
:1035500030B16FF0400021680861204600F01CF88F
:1035600020680069C0F3401058B12068C068C0F3FB
:10357000401030B16FF02000216808612046FFF74D
:1035800034FF10BD704770470249884200D000BF29
:1035900070470000A804002070477047014691F86A
:1035A00039007047F8B504460025002620680068F9
:1035B00000F001052068C06800F4807625B11EB1D6
:1035C000E06B40F00100E06320680068C0F3400554
:1035D0002068406900F0010625B11EB1E06B40F0A3
:1035E0000400E06320680068C0F3800525B11EB1C7
:1035F000E06B40F00200E06320680068C0F3C005A3
:1036000025B11EB1E06B40F00800E063206800685F
:10361000C0F340152068C06800F020061DB116B147
:10362000204600F0E7F920680068C0F3C015206864
:10363000C06800F080061DB116B1204600F01CFBEA
:1036400020680068C0F380152068C06800F040065C
:103650001DB116B1204600F0B5F9E06B70B100BFA6
:1036600020680068009020684068009000BF00BF9C
:10367000012084F839002046FFF78FFFF8BD10B510
:1036800004460CB9012010BDA06900B100E000BFE4
:1036900094F8390028B9002084F83800204600F05A
:1036A00025F8022084F839002068C06820F4005012
:1036B0002168C860204600F0FBF92068006920F40A
:1036C0009040216808612068406920F02A00216844
:1036D00048612068C06840F400502168C86000203C
:1036E000E063012084F839000020CCE710B586B0F3
:1036F000044625492068884244D100BF2348806998
:1037000040F00400214988610846806900F0040007
:10371000019000BF00BF00BF0846806940F48040B0
:1037200088610846806900F48040019000BF00BFB6
:1037300000BF0846806940F0010088610846806942
:1037400000F00100019000BF00BF48150290022068
:103750000390012004900320059002A90C48FEF775
:103760004FFC4FF4806002900020039002A90848AB
:10377000FEF746FC2520FEF726FE032211462520F3
:10378000FEF72EFE06B010BD0038014000100240CA
:103790000008014030B50346002493F83940012C5D
:1037A00001D0122C37D101B10AB9012030BD00BFC0
:1037B00093F83800012801D10220F7E7012083F8AF
:1037C000380000BF99629A85DA850020D86393F8A3
:1037D0003900122803D1322083F8390002E0222078
:1037E00083F8390000BF002083F8380000BF186854
:1037F000C06840F480701D68E8601868406940F057
:1038000001001D6868611868C06840F020001D68EC
:10381000E8600020CAE70220C8E700001D4A0168EE
:10382000914236D11C49098801F4004189BB1A49EB
:10383000098801F4804171B1184909780A2903D037
:103840000021154A118024E01349098841F4004100
:10385000114A11801DE0114909780D2906D10E4940
:10386000098841F480410C4A118012E00B49097823
:10387000094A1288C2F30D02094B99540649098876
:10388000491C054A118011460988C72901DD00211C
:1038900011807047003801403000002032000020C5
:1038A00070030020704700BFFEE700BFFEE77047CF
:1038B00002480068C0F30220704700000CED00E0F1
:1038C00010B5002807DA0A07140E054A00F00F03A6
:1038D0001B1FD45403E00A07130E024A135410BDF1
:1038E00018ED00E000E400E07047704730B58FB09D
:1038F0000546002401200590000406900020079052
:1039000002200C90C1030D910E9505A8FFF702F956
:1039100004460CB100BFFEE70F200090022001908A
:10392000002002904FF48060039000200490022158
:103930006846FEF717FF04460CB100BFFEE70FB064
:1039400030BD10B5FEF710FD10BD00001148006835
:1039500040F001000F490860084640680E490840E1
:103960000C494860084600680C490840094908604D
:103970000846006820F4802008600846406820F46B
:10398000FE0048604FF41F008860C80304490860C7
:1039900070470000001002400000FFF8FFFFF6FE35
:1039A00008ED00E010B50248FFF721FD10BD000052
:1039B000A804002010B50248FFF719FD10BD000053
:1039C000E404002010B504462068C06820F04000E0
:1039D0002168C86094F83900322803D1222084F885
:1039E000390002E0012084F839002046FFF75AFF31
:1039F000002010BD70B50446002694F83960222ED0
:103A000001D0322E52D1A068B0F5805F13D1A56AE3
:103A1000206940B920684068C0F308002880A06A87
:103A2000801CA06219E020684068C0B22880A06AAB
:103A3000401CA06211E0206938B920684068C1B21A
:103A4000A26A501CA062117007E02068406800F074
:103A50007F01A26A501CA0621170E08D401E80B2EE
:103A6000E08508BB2068C06820F020002168C8609D
:103A700094F83900322803D1122084F839000EE07E
:103A80002068C06820F480702168C86020684069A0
:103A900020F0010021684861012084F839002046A7
:103AA000FFF7BCFE002070BD0020FCE70220FAE713
:103AB0002DE9F041044600252068006920F44050BB
:103AC000E1680843216808612169A06808436169C9
:103AD00040EA01052068C06841F20C618843284330
:103AE0002168C8602068406920F44070A1690843DB
:103AF000216848615F49206888425CD1FEF79AFFDF
:103B000000EBC00101EB001061688900B0FBF1F629
:103B1000FEF790FF00EBC00101EB00106168890027
:103B2000B0FBF1F06421B0FBF1F000EBC00101EB60
:103B30000010A6EB8000322101EB00106421B0FBE5
:103B4000F1F000F0F006FEF775FF00EBC00101EBAD
:103B5000001061688900B0FBF1F06421B0FBF1F066
:103B600006EB0016FEF766FF00EBC00101EB00104C
:103B700061688900B0FBF1F7FEF75CFF00EBC00164
:103B800001EB001061688900B0FBF1F06421B0FB2B
:103B9000F1F000EBC00101EB0010A7EB8000322137
:103BA00001EB00106421B0FBF1F000F00F00304495
:103BB000216888605BE0FEF727FF00EBC00101EBA6
:103BC000001061688900B0FBF1F6FEF71DFF00EB05
:103BD000C00101EB001061688900B0FBF1F06421C5
:103BE000B0FBF1F000EBC00101EB0010A6EB800090
:103BF000322101EB00106421B0FBF1F000F0F0067F
:103C0000FEF702FF00EBC00101EB001061688900C4
:103C1000B0FBF1F06421B0FBF1F006EB0016FEF70B
:103C2000F3FE00EBC00101EB001061688900B0FBFE
:103C3000F1F7FEF7E9FE00EBC00101EB001061684F
:103C40008900B0FBF1F06421B0FBF1F000EBC001A2
:103C500001EB0010A7EB8000322101EB0010642182
:103C6000B0FBF1F000F00F00304421688860BDE83F
:103C7000F08100000038014010B50146002391F8A2
:103C80003930122B01D0322B2CD18868B0F5805FEF
:103C90000FD10A6A1088C0F308000C6860600869D8
:103CA00018B9086A801C086209E0086A401C0862AA
:103CB00005E00C6A601C086220780C686060C88CA3
:103CC000401E80B2C88458B90868C06820F08000DF
:103CD0000C68E0600868C06840F040000C68E06074
:103CE000002010BD0220FCE710B500240C48FFF7AF
:103CF00059FC00BF01E0641C00BF0948FFF74EFCFF
:103D00000128F8D100BF002401E0641C00BF01229B
:103D100004490348FFF73EFD0028F6D100BF10BD5F
:103D2000380400203200002000BFFEE7490050EABE
:103D3000C12018BF04204A0D18BF40F0010040F216
:103D4000FF72B2EB515F08BF40F00200012808BFCC
:103D50000520704700BF704710B504460420FFF7E8
:103D600015FB0148046010BD3400002030B5044646
:103D7000002504E04FF47A7000F004F86D1CA542B1
:103D8000F8D330BD70B5034600224FF0E0267569C8
:103D90000D4E366803FB06F44FF0E026B16910E0E3
:103DA0004FF0E026B06988420BD0884202D20E1A4A
:103DB000324402E02E1A0E4432440146A24200D39D
:103DC00000E0EDE700BF70BD3400002000BF054AF1
:103DD000126802F04002002AF9D0C2B2014B1B1D4A
:103DE0001A607047003801408AB0002400BFFEF717
:103DF000C3FA4FF4E010FFF779FD4820FFF7ACFF5E
:103E00004FF4E13000F0F4FCFDF7FEFBFDF752FB50
:103E1000FDF776FCFDF768FA0020FE490860FE49D0
:103E20000860FE490860FE490860FE490860FE49D6
:103E30000860FE490860FE490860FDF78FFA40F609
:103E4000FF714FF4FA70FDF7CFFA68E3F948007894
:103E50000128FAD140F6FF714FF47A70FDF7C4FAE9
:103E6000F5A0FCF7E5F90122D103F848FEF770FA56
:103E70006420FFF77BFF03210420FDF789FCF44950
:103E8000088000224FF40041F048FEF761FA4FF439
:103E90009670FFF76BFF00241DE04FF4FA7104FBEE
:103EA00001F000F57A7940F6FF714846FDF79CFA7B
:103EB0000A20FFF75BFF0A210220FDF769FCE549B4
:103EC00021F814000A210320FDF762FCE24921F8E1
:103ED0001400601C84B2C82CDFDB00241BE0DD4929
:103EE00031F8140001F0BCFB0546CC4801682846B7
:103EF00001F07AFAC9490860D74931F8140001F095
:103F0000AFFB0546C6480168284601F06DFAC44972
:103F10000860601C84B2642CE1DBD049BF480068B3
:103F200001F0C4FABD490860CC49BD48006801F001
:103F3000BDFABB490860C648008800F0C9FE824649
:103F40000022C74B01F048F8CDE90601C0480088BF
:103F500001F086FB824601F01BFA0746DDE90623E5
:103F600000F05EFD0022BF4BCDE9080100F000FF2C
:103F7000054600F06FFCA8490860B5480088B0F518
:103F8000166F03DD0020B84908700BE0B0480088C8
:103F9000B0F5967F03DA0120B349087002E00220F1
:103FA000B1490870B0480278A9480188AFA0FCF771
:103FB0003FF99948006801F0EBF905462A460B469F
:103FC000AFA0FCF735F9A848007800287ED1A248B8
:103FD000008840F24E21884236DB9F48008840F23C
:103FE0007621884230DC9C48B0F8500040F24E21E7
:103FF000884229DB9848B0F8500040F27621884288
:1040000022DC9548B0F8780040F24E2188421BDD52
:104010009148B0F8780040F27621884214DC8E484E
:10402000B0F89E0040F24E2188420DDB8A48B0F87D
:104030009E0040F27621884206DC95A0FCF7F8F855
:10404000002094490870D3E16421834800F01AFBF2
:10405000022802D0042872D15EE07F48B0F89E00AA
:10406000462855DA01208B49087000241FE06B4870
:10407000006801F08DF98246874A884B00F078FE8F
:1040800005460E46744931F8140000F021FE07463B
:104090002A46334600F030FE07D86F4830F8142027
:1040A00021467FA0FCF7C4F803E0601C84B2502CCA
:1040B000DDDB00BF4FF4FA7204FB02F101F57A7008
:1040C00001F0B6FA57490860084600E038E0006899
:1040D00001F05EF9774A784BCDE9060100F048FE21
:1040E000074600225F4B00F043FE05462A460B467A
:1040F0000020724900F094FC82460022704B00F0D0
:1041000037FECDE9080100F0A5FB4749086002E051
:1041100002206049087012E000240DE04E4830F89B
:104120001400C82803DA04205A49087006E0032066
:1041300058490870601C84B2642CEFDB00BF57E163
:1041400049480078012863D1434800880A2812DAD8
:104150004148B0F850000A280DDA3F48B0F878001E
:104160000A2808DA3C48B0F89E000A2803DA05203D
:10417000484908703CE16421374800F083FA01287F
:1041800002D0032845D101E133480088642803DDCB
:10419000062040490870F8E007203E4908700024D6
:1041A0001FE01E48006801F0F3F807463A4A454B05
:1041B00000F0DEFD82468B46274931F8140000F0FE
:1041C00087FD054652465B4600F0D0FE07D82248E0
:1041D00030F81420214632A0FCF72AF803E0601CD6
:1041E00084B2C82CDDDB00BF04EB4401C1EBC41179
:1041F0004FF47A7202EB810001F01AFA0C49086060
:104200000846006801F0C4F805460E4608485BE021
:10421000C1E0BFE0080000200C00002010000020DA
:1042200014000020180000201C00002020000020A6
:1042300024000020010000206D6561737572656DBA
:10424000656E7420626567696E0D0A00002001408A
:1042500004000020E0010020500000200000C842BF
:104260000032A34000C05840020000204443203DDB
:1042700025642C204443747970653D25640D0A0043
:1042800052657353616D706C653D25660D0A0000C3
:10429000310D0A000300002039B4C876BE9FE63F06
:1042A000693D25642C204261636B41433D25640DCB
:1042B0000A0000004AD8124DFB2119400000F03FCF
:1042C000D0126341BE9FD63F006801F061F80746F7
:1042D000934A944B00F04CFD82462A46334600F048
:1042E00047FDCDE9020190480168904801F0CCF902
:1042F00080468D4801688E4801F0C6F982468A489A
:104300000168504601F0C0F907468A4901F088FA71
:104310000646414601F068F8054601F039F8CDE956
:104320000001DDE9022300F07BFBCDE9040100F090
:1043300083F90022804BCDE9060100F019FDCDE99B
:10434000080100F087FA7D4908600846006801F01E
:104350001FF807467A4A7B4B00F00AFD82467A4AEC
:104360007A4B00F0A9FA05460E467448006801F041
:104370000FF82A463346CDE9060100F09DFACDE953
:10438000080100F067FA6D49086003E00B207049EE
:10439000087000BF2CE06F480078022828D1642103
:1043A0006D4800F06FF960B1012802D002281ED1DB
:1043B00003E008206649087019E009206449087084
:1043C00015E00A2062490870644801686448006882
:1043D00001F030FA054661480168624801F054F97D
:1043E0000646294601F062F85F49086000BF00BF39
:1043F0005748007818B95DA0FBF71AFF74E05448DD
:10440000007801280DD15BA0FBF712FF5A48006825
:1044100000F0BEFF05462A460B4658A0FBF708FFF2
:1044200062E04B480078022803D156A0FBF700FF5A
:104430005AE047480078032803D155A0FBF7F8FE5F
:1044400052E043480078042803D155A0FBF7F0FE62
:104450004AE03F480078052803D154A0FBF7E8FE66
:1044600042E03B480078062803D152A0FBF7E0FE6B
:104470003AE03748007807280DD152A0FBF7D8FE64
:104480002E48006800F084FF05462A460B464EA0E1
:10449000FBF7CEFE28E02E480078082803D14CA078
:1044A000FBF7C6FE20E02A480078092803D14BA07C
:1044B000FBF7BEFE18E0264800780A280DD14BA075
:1044C000FBF7B6FE2848006800F062FF05462A4662
:1044D0000B4647A0FBF7ACFE06E01D4800780B2812
:1044E00002D145A0FBF7A4FE47480078012813D16C
:1044F0001848017845A0FBF79BFE00240AE0164807
:1045000030F81420444830F8141044A0FBF790FE13
:10451000601C84B2502CF2DB00204649087095E400
:10452000289D4830954571400C000020000046430E
:104530000000E0400024194680842E412000002025
:10454000448B6CE7FBA9C13F986E1283C0CAF13F50
:104550000300002002000020500000201400002072
:10456000100000200000C642080000206F70656E39
:104570000D0A0000430D0A001C0000202566754648
:104580000D0A000052432073657269616C0D0A00C8
:10459000524C432073657269616C0D0A0000000083
:1045A0004C432073657269616C0D0A0073686F7209
:1045B000740D0A004C5220706172616C6C656C0D58
:1045C0000A0000004C0D0A00256675480D0A00001F
:1045D000524C2073657269616C0D0A005243207061
:1045E0006172616C6C656C0D0A000000520D0A006E
:1045F00025666F686D0D0A004C4320706172616C16
:104600006C656C0D0A0000000000002044435479E2
:1046100070653D25640D0A00E0010020666F727729
:104620006172643D25642C6261636B3D25640D0AF3
:1046300000000000010000202DE9F04106460F4671
:1046400000F0D6FC041E0D4618BF0120284320F0C0
:104650000040C0F17F6000F1E040C00F0ED0301C80
:1046600018BF0120384320F00040C0F17F6000F106
:10467000E040C00F04BF0120FBF75FFE2046294643
:10468000BDE8F0812DE9FE4F04460D464FF0000ACB
:10469000D346B4F80090B4F80080002610E034F857
:1046A0001600484503DD34F81690B24606E034F8AB
:1046B0001600404502DA34F81680B346701CC6B2C4
:1046C000AE42ECDBA9EB08001E2801DA00274CE023
:1046D0002188681E34F81000814207DAA81F50456F
:1046E00004DABBF1050F01DA01273EE0681E34F859
:1046F0001000218888420BDABAF1050F08DA681E2B
:1047000034F81000A0EB08001E2801DA02272CE084
:104710002088484509DA681E34F81000484504DA54
:10472000BAF1050F01DD03271FE02088404509DDB0
:10473000681E34F81000404504DDBBF1050F01DDB3
:10474000042712E012A0FBF773FD681E34F8100076
:10475000218853464246CDE900B10290494610A057
:10476000FBF766FD0520BDE8FE8F681E34F81000DB
:10477000218853464246CDE900B10290494608A03F
:10478000FBF756FD394616A0FBF752FD3846EAE71F
:104790006A75646765206661696C65640D0A00006E
:1047A0004D6178446174613D25642C4D696E4461AE
:1047B00074613D25642C694D61783D25642C694DFB
:1047C000696E3D25642C646174615B305D3D2564D8
:1047D0002C646174615B39395D3D25640D0A00000C
:1047E0007472656E64547970653D25640D0A00002D
:1047F00010B5044609480A4908600846446000218B
:104800008160C160016181610C214161FEF737FF68
:10481000012204490248FEF7BDFF10BD00380140E7
:10482000380400203200002010B500290AD0087892
:10483000002807D005487844FCF74EF9002801D03D
:10484000002010BD0248784410BD0000BA110000DD
:10485000B211000021F00042A2F16052B2F5801FB7
:1048600001F0004328BFD2F17F6C0BD95FEA001C36
:1048700043EAC20242EB507018BF704728BF20F0D5
:1048800001007047B2F5801FBCBF184670474FEA61
:10489000410C1CF5001F02D2084600F0BCBF70B5E9
:1048A00000F010FB00000089FFF7F6BF4FF000405A
:1048B000A0F580007047000010B591EA030F48BFD3
:1048C00083F0004300F18284841A71EB030C05D25B
:1048D000121943EB0C03001B61EB0C01DFF824E120
:1048E0004FEA1154A4EB135C1EEA430F18BF9EEA73
:1048F000445F73D023EA0E03DCF1200E21EA045159
:1049000043F4801332D322FA0CFE10EB0E0023FA8C
:104910000CFE41EB0E01CCF1200E03FA0EFE10EB63
:104920000E0051F10001B1F5801FCCF1200E32D202
:1049300001EB045112FA0EF2BDE8104058BF704767
:10494000401C38BF5FEA420218BF7047002814BFFE
:1049500020F0010041F100014FEA410313F5001F6F
:1049600038BF7047A1F1C04100F0FABA012A43EB09
:104970000302ACF1200CDCF11F0E32BF4FF0000E31
:1049800023FA0CF310EB030041EB0451B4EB115F7D
:10499000D0D0A1EB045101F5801149085FEA300045
:1049A00001EB04510ED350F1000038BF12FA0EFE95
:1049B00008D1BDE81040C9E7401C38BF5FEA420299
:1049C000CAD1C3E7BDE810404FEA410313F5001F09
:1049D00038BF7047A1F1C04100F0C2BA9EEA445FFF
:1049E00008D011EA5E0FBDE8104004BF01F000419D
:1049F00000207047BDE8104070B500F063FA00BFBA
:104A000064FBBE3E0000E0FF491058BFC1F14041C9
:104A10005B1058BFC3F140438B42EFF300807047F7
:104A20002DE9C04130B4DFF8A0C23CEA111418BF30
:104A30003CEA131400F0EC8081EA03051CEA11142F
:104A400044EAD57418BF1CEA131500F0C780A4EB24
:104A500005044FF0004545EAC12145EAC32341EA78
:104A6000505143EA525304F17F74994204F50034E3
:104A70004FEAC0204FEAC22208BF904200F09C805B
:104A80004FEA13650FF24016765D4FEA134506FBB9
:104A900005F7C7F1807706FB07F74FEAD737A7FB83
:104AA00003687642C8F58038A7FB06CE38BFA8F168
:104AB000010807FB08E64FF0000EA6FB028CE6FBA0
:104AC00003CEDCF1000CCEF1004E38BFAEF1010E8A
:104AD000A6FB0C584FF000074FF00005E6FB0E87D1
:104AE000A1FB08C6A0FB07CE16EB0E0645F100059C
:104AF000E1FB076515F1E04E7EBFA4F580345FEA67
:104B000046066D4116F1800745F100054FEA17276B
:104B10004FEA066647EA0567A6F1DE46B6F1805F12
:104B20004FEA15251FD9384624F0010C05EBC47156
:104B3000BCF1FE6F01EB0C1102D8F0BCBDE80081A6
:104B400024425CBF01F5801E9EEAC47F02D4F0BC03
:104B5000BDE80081244238D4F0BCA1F1C041BDE8D9
:104B6000004100F0FDB94FEAD22242EA43524FEA37
:104B7000D323A7FB02864FEAD02040EA415007FB2F
:104B800003661EEA0E0F4FEAD12105FB026658BFED
:104B9000A6EB0056B6EB00564FEA520E4EEAC37E25
:104BA00018EB0E0E56EB530EBDD518EB02085E4106
:104BB0007F1C55F10005B6E74FF480154FF0000754
:104BC0004FF000064FF00008ADE7F0BC4FF00000DA
:104BD00001F1C04101F00041BDE8008111EA0C1F64
:104BE0000CEA131500D00CE013EA0C1F00F025802E
:104BF0004FF00000F0BC81EA030101F00041BDE884
:104C00000081F0BCBDE8004181EA030100F0A8B9D1
:104C1000F0BCBDE8004170B500F054F9097EFC3EDF
:104C200000F007B881EA03014FF0000001F00041F5
:104C3000704781EA030100F093B9F0BCBDE8004180
:104C40004FF0000021497047FFFDFBF9F7F5F4F242
:104C5000F0EEEDEBE9E8E6E4E3E1E0DEDDDBDAD817
:104C6000D7D5D4D3D1D0CFCDCCCBCAC8C7C6C5C475
:104C7000C2C1C0BFBEBDBCBBBAB9B8B7B6B5B4B38C
:104C8000B2B1B0AFAEADACABAAA9A8A8A7A6A5A477
:104C9000A3A3A2A1A09F9F9E9D9C9C9B9A9999983B
:104CA0009797969595949393929191908F8F8E8EDE
:104CB0008D8C8C8B8B8A898988888787868585846B
:104CC00084838382828181800000FF070000F87F57
:104CD000B0FA80F310FA03F10AD0C3F11D0303F513
:104CE00080634FEA41504FEA035202EBD1217047F3
:104CF0004FF000007047000051EA030C17D41CF578
:104D0000801F58BFBCF5801F00F10680994218BF74
:104D1000704708BF9042704707D711F5801F58BFF2
:104D200013F5801F19D499427047894270471CF5CA
:104D3000801F08D5BCF5801FF7D58B4218BF704780
:104D400008BF824270474FF4001C1CEB410F38BF74
:104D50001CEB430F01D28B42704770B500F0B2F8E4
:104D6000922449004FF000514FF08053FFF74CBEA2
:104D7000DFF848C170B51CEA111E1EBF1CEA1315EE
:104D80009EEA0C0F95EA0C0F00F06F8081EA030495
:104D900023EA4C134EEAD47E21EA4C1141F48011EF
:104DA00043F48013AE44A1FB024CA0FB0365AEF1BB
:104DB0007F7E361955EB0C05A1FB034C4CF100032B
:104DC000A0FB021C16EB0C06654153F100030942DF
:104DD00018BF46F0010613F4007F0BD14FEA0331F0
:104DE0004FEA0530340341EA155140EA16506FF09E
:104DF00003020AE04FEAC3214FEAC520F40241EA68
:104E0000555140EA56506FF0020202EB2E4201EB80
:104E1000025585EACE710AD05FEA440C18BF24F02F
:104E2000004450F1000041F1000120EAD47040F24A
:104E3000FE7C624500D270BDA84214BF4FF0804492
:104E40004FF04044002E08BF0024BEF1806FA8BF81
:104E5000A1F1C041BDE8704080F282804FF00000B7
:104E600001F1C04101F0004170479EEA0C0F0CEACD
:104E7000131518BF95EA0C0F06D04FF0000081EA19
:104E8000030E0EF0004170BD00F01CF88900013ED9
:104E900000F007B800F009B84FEA430C5FEA5C5C29
:104EA00008D081EA030100F05BB84FEA410C5FEAE9
:104EB0005C5CF6D14FF00000014970470000FF072D
:104EC0000000F87F0EF1020E2EF0030E5EF8046B68
:104ED000364205D4012A43EB030515F5001F12D80D
:104EE000012841EB010C1CF5001F0CD80ED14FEA34
:104EF000D17C15F5001F0CEB4C0C0CF1020C08BF1B
:104F00004CEBD37C04E04FF0080C01E04FEAD37C7B
:104F10000CEB4C0526FA05F606F00706B6F1040C74
:104F200006D20EEB860CBDE870404CF0010C6047D9
:104F3000DFE80CF0090B02024FF000414FF00000D7
:104F4000A1F5002170BD19461046012851EB01045E
:104F500018BFD4F5001484BF002001F0004170BDDB
:104F60000808A0F500114FEA3101704753EA010C1F
:104F700017D41CF5801F58BFBCF5801F00F10680B8
:104F80008B4218BF704708BF8242704707D713F59E
:104F9000801F58BF11F5801F19D48B4270479B4268
:104FA00070471CF5801F08D5BCF5801FF7D59942C6
:104FB00018BF704708BF904270474FF4001C1CEBAD
:104FC000430F38BF1CEB410F01D2994270470FB419
:104FD0000CBC03BCFFF7C1BE91EA030F10B581F012
:104FE00000413FF571AC83F0004300F0EFB80000E2
:104FF0002DE9F04101F5801CBCF5001FC0F2C38013
:105000004FEA115C21EA0C510CF1FD0C41F48011C6
:105010005FEA5C0C0CF5C07C01D3400049413DA423
:10502000890241EA905187028E0E0A0CA45D04FBAE
:1050300004F602FB06F6C6F14046A4FB0662F60D36
:1050400046EA422606FB06F4A4FB01235242C3F1C2
:10505000404338BF5B1EA6FB02420024E6FB03244C
:10506000D20B42EA4446A6FB0623A1FB02E2A3FBC5
:1050700007E4A4184FF0000252F10002E3FB0142E2
:105080006442C2F1404E38BFAEF1010EA6FB0423CC
:105090004FF00002E6FB0E32A2FB03464FF0000485
:1050A000B61954F10004E2FB0264A1FB06E6A4FB7E
:1050B00007E816EB08064FF0000858F10008E4FB7B
:1050C00001687642C8F1405838BFA8F10108A2FB38
:1050D00006E4A3FB08E52D194FF0000454F1000489
:1050E000E2FB0854A1FB05E6A7FB04E818EB060861
:1050F0004FF0000656F10006E1FB048618F120058A
:1051000056F10006A809A8F11B08B10908F03F08EC
:10511000B8F10A0F40EA86601CD901EB0C51BDE8DA
:10512000F08100BFFCF5EEE8E2DDD8D3CFCBC7C3FA
:10513000C0BDB9B6B4B1AEACA9A7A5A3A19F9D9BB4
:105140009A9896959392908F8D8C8B898887868577
:1051500084838281A0FB006800FB01F208EB420817
:10516000B8EB872807D5341858EB0104D5D5401C77
:1051700051F10001D1E7341A78EB0104CDD4401E7F
:1051800071F10001C9E75FEA4C0C5FEA9C5C0DD14C
:1051900005D34FF0000001F00041BDE8F081BDE80B
:1051A000F04170B5FFF78EFE6DDBFFBEBDE8F0414C
:1051B0004FF00000004970470000F87F10B591EAF9
:1051C000030F48BF83F000433FF57EAB841A71EBB9
:1051D000030C07D212198CF0004C43EB0C03001B9C
:1051E00061EB0C01DFF8A4E14FEA1154A4EB135C6E
:1051F0001EEA430F18BF9EEA445F00F0B08023EA26
:105200006E03524221EA0451C3EB6E0338BF5B1EAA
:10521000DCF1200E25D322FA0CFE10EB0E0043FA2F
:105220000CFE41EB0E01CCF1200E03FA0EFE10EB4A
:105230000E0051F10001CCF1200E29D412FA0EF229
:1052400001EB0451BDE8104058BF7047401C1CBF23
:10525000B2F1004F704700280CBF491C20F001003C
:10526000704712EB020E43EB030218BF4FF0010E22
:105270004EEA4202ACF1200CDCF11E0E54D943FA86
:105280000CFE10EB0E0051F1FF31CCF11E0ED5D506
:105290000EF1010E12FA0EFE404141EB010101EB4D
:1052A000445C5FEA5C5C10D910EBDE7001EB0451EA
:1052B00038BFBEF1004FBDE8104018BF704700284E
:1052C0000CBF491C20F00100704730D24FEAD42CAB
:1052D00011F5001124F400641BD0B1FA81F20B3AED
:1052E000A41AA41ED2F12003914030FA03F319430B
:1052F000904001EBCC71002C01EB0451BDE8104053
:10530000A8BF704701F1C0414FF0000001F000411B
:105310007047B0FA80F310FA03F100D110BDE41A1F
:10532000173C4805C90AE4E701EB045110BD4910D8
:1053300001EB0451BDE810404FEA300002E04FF0AD
:10534000000170474A0008BF0042F8D0B2F5001FC4
:1053500028BF704701F000414FF0000070479EEAFF
:10536000445F07D011EA5E0FBDE8104004BF002182
:1053700000207047BDE8104070B5FFF7A3FD00BFE7
:1053800040DFF63E83F00041104670470000E0FF2A
:1053900043004FEAD30C4FEA3C0C43401FBF400789
:1053A0000CF1605113F0FE4F70471CF0006F03D1F9
:1053B00000200CF0004170470CF0004343EA5070AD
:1053C00010B540EACC0000F0E0F900BF0000009208
:1053D0004FEA0001FFF7C4BD4FF000414FF000005D
:1053E000A1F500217047000090EA010F48BF81F04D
:1053F000004100F12682421A3CBF801A89184FEA08
:10540000D0524FF07F4C1CEA410FA2EBD15318BF92
:105410009CEA026F00F03B804FF0004C4CEA002009
:105420004CEA012121FA03FC10EB0C0C1ED202F114
:10543000FF325FEA1C2040EBC25038BF70471CF0BF
:105440007F0F4FEA400C18BFBCF17F4F38BF704749
:10545000C3F12003994008BF20F00100BCF17F4F49
:1054600038BF7047A0F1C04000F0D5B94FEA3C000A
:10547000000A40EBC25028BF1CF0FF0F4FEA400C5F
:10548000E6D018BFBCF17F4F38BF7047EAE79CEA0F
:10549000026F05D010EA5C0F08BF00F000407047B3
:1054A00010B500F072F900BF64FBBE3E4FF47F0CF4
:1054B0001CEAD0121EBF1CEAD11392EA0C0F93EA29
:1054C0000C0F00F0858090EA010F48BF42F4807213
:1054D00040F4000C41F400002CF07F4120F07F40AC
:1054E00000B58142A2EB03020FF2081CACEB504E58
:1054F000C0F100009EF800E04FEA4E0E00FB0EFCEB
:1055000038BF49004FEA2C1C02F5FA020CFB0EF3DF
:105510004FEACE1E4FEA112C4FEAC1210EEB635E1B
:1055200042EB22420EFB0CFC4FEA1C5300FB031122
:105530004FEA112C4FEA01310EFB0CFC4FEADC4C18
:1055400000FB0C11C14228BF09184CEB03335DF876
:1055500004EB10EB410143EBC250B2F57C0F38BFB6
:10556000704729D512F0F00F1CBF00F1C04000F0C9
:1055700000407047008182838485868788898B8C70
:105580008D8E8F919293959697999A9C9D9FA0A2AC
:10559000A3A5A7A8AAACAEB0B2B3B5B7B9BCBEC0FC
:1055A000C2C5C7C9CCCED1D4D7D9DCDFE2E6E9EC9D
:1055B000F0F3F7FAFE0000004FEA400C0CF1807C9B
:1055C000BCF17E4F28BF7047B0F1C04000F023B956
:1055D00090EA010F0CEAD11348BF42F48072624591
:1055E00038BF634507D213F47F0F16D080EA01005D
:1055F00000F00040704710B500F0C7F8097EFC3E8F
:1056000000F005B880EA010000F00040704780EA31
:10561000010000F0004000F0FEB812F47F0F04BF5C
:105620000248704780EA010000F0F5B80000C07F32
:1056300010F0004148BF4042B0FA80F310FA03F284
:10564000C3F19D030BD051EAC35101EB1220530665
:1056500038BF704700F1010008BF20F0010070471B
:10566000B0FA80F310FA03F2C3F19D030AD0D90512
:1056700001EB1220530638BF704700F1010008BF4C
:1056800020F00100704700004FF47F0C1CEAD0129C
:105690001EBF1CEAD11392EA0C0F93EA0C0F00F024
:1056A000478090EA010F48BF42F480724FF0004CEF
:1056B0004CEA00204CEA012102EB0302A0FB01139B
:1056C000A2F50002002918BF43F001035B0028BFC8
:1056D0004FEA330342EB22425FEA132C4CEBC250F9
:1056E0002EBFBCEB436FB2F57C0F70474FEA036CE3
:1056F000BCF1004F08BF20F00100B2F57C0F38BFAD
:1057000070470BD582F0FF0212F5803FC8BF70478B
:1057100000F1C040D8BF00F00040704700F5000C19
:105720005FEA4C0C48BF7047B0F1C04000F073B85E
:1057300090EA010F0CEAD11348BF42F4807262452F
:1057400038BF634504D280EA010000F00040704792
:1057500010B500F01AF800BF8900013E00F007B84C
:1057600000F009B85FEA410C5FEA1C6C08D080EADF
:10577000010000F050B85FEA400C5FEA1C6CF6D103
:105780004FF00040A0F5800070470EF1020E2EF0A1
:10579000030E5EF8044B244204D44FEA4102B2F1F6
:1057A0007F4F11D84FEA4003B3F17F4F0CD80ED191
:1057B0004FEAD07CB2F17F4F0CEB4C0C0CF1020C99
:1057C00008BF4CEBD17C04E04FF0080C01E04FEA3D
:1057D000D17C0CEB4C0324FA03F404F00704B4F17D
:1057E000040C06D20EEB840CBDE810404CF0010C0A
:1057F0006047DFE80CF0070802024FF00040A0F518
:10580000800010BD0846420018BFD2F1807288BFE8
:1058100000F0004010BDFF2141EAD050C0057047A4
:1058200080F0004090EA010F7FF5E5AD81F0004186
:1058300000F007B890EA010F48BF81F000413FF542
:10584000DAAD421A04D882F00042A0EB0200114403
:105850004FEAD0524FF07F4C1CEA410FA2EBD153DC
:1058600018BF9CEA026F4AD04FF0004C4CEA00206F
:105870004CEA012121FA03FCB0EB0C0C0FD412F01E
:10588000FE0F36D05FEA4C001DD5001240EBC2502F
:1058900038BF70471CF03F0F18BF70470BE0A2F1F4
:1058A00001025FEA1C2040EBC25038BF70471CF079
:1058B0007F0F18BF7047C3F12003994014BF401EEB
:1058C00020F00100704780084FEA122308BF70479C
:1058D000B0FA80FCA2EB0C02CCF1280C60FA0CF0C0
:1058E00093EA122F04BF00EBC25070474FEAC37017
:1058F0007047130A5FEADC1008BF7047F6E79CEABE
:10590000026F04D010EA5C0F08BF0020704710B58A
:10591000FFF73BFF40DFF63E81F000407047FAF7AB
:1059200044BE00000000000000000102030406075E
:10593000080900000000010203040000024000000A
:10594000000000A00000000005400000000000C8AA
:10595000000000000C4000000000409C000000001F
:10596000194000000020BCBE0000000034400000D0
:10597000BFC91B8E00000004B5400000504BCFD0C3
:105980006607E2CF010000006C4100003E8251AA90
:10599000DFEEA73401000000D9420000DCB5A0E230
:1059A0003A301F97FFFFFFFFB4450000FD25A0C858
:1059B000E9A3C14FFFFFFFFFFF3F00000000008091
:1059C00000000000FF3F0000000000800000000019
:1059D0000C5A000800000020500000006C01000874
:1059E0005C5A000850000020304500008801000883
:1059F0001C00000043000000F8FFFFFF0C00000047
:105A00000E0000000F0000002E000000000000004B
:105A10000000000000000000000000000000000086
:105A20000000000000000000000000000000000076
:105A30000000000000A24A04000000000000000076
:105A40000000000000000000000000000000000056
:0C5A50000000000000000000000000004A
:0400000508000131BD
:00000001FF
