:020000040800F2
:1000000048420020D5010008AF290008A7290008B0
:10001000AB2900087D070008292E00080000000019
:10002000000000000000000000000000EB290008B4
:100030008107000800000000E9290008432A0008A1
:10004000EF010008EF010008EF010008EF010008D0
:10005000EF010008EF01000883070008EF01000826
:100060008D07000897070008A1070008EF010008A6
:10007000EF010008EF010008EF010008EF010008A0
:10008000EF010008EF010008EF010008EF01000890
:10009000EF010008EF010008EF010008EF01000880
:1000A000EF010008EF010008EF010008EF01000870
:1000B000EF010008A52A0008B52A0008EF01000892
:1000C000EF010008EF010008EF010008EF01000850
:1000D000EF010008E92D0008EF010008EF0100081A
:1000E000EF010008EF010008EF010008EF01000830
:1000F000EF010008EF010008EF010008EF01000820
:10010000EF010008EF010008EF010008EF0100080F
:10011000EF010008EF010008EF010008EF010008FF
:10012000EF010008EF010008EF010008EF010008EF
:1001300000F002F800F03FF80AA090E8000C8244BA
:100140008344AAF10107DA4501D100F034F8AFF297
:10015000090EBAE80F0013F0010F18BFFB1A43F0A5
:1001600001031847682E0000882E0000103A24BFB3
:1001700078C878C1FAD8520724BF30C830C144BF0C
:1001800004680C607047000000230024002500264E
:10019000103A28BF78C1FBD8520728BF30C148BFEA
:1001A0000B607047642900F07780002070471FB50E
:1001B0001FBD10B510BD00F037F91146FFF7F7FF6E
:1001C00002F07EFE00F055F903B4FFF7F2FF03BC26
:1001D00002F02CFE0948804709480047FEE7FEE789
:1001E000FEE7FEE7FEE7FEE7FEE7FEE7FEE7FEE7E7
:1001F00004480549054A064B704700004D2A00088F
:100200003101000848020020484200204822002016
:1002100048220020704700000FB4044910B503AA1B
:10022000029800F0D3F810BC5DF814FB0800002021
:100230002DE9F0410E460446002020622046E16888
:10024000884730B3252805D0D4E901219047206A9A
:10025000401CF2E7E168204600278847050018D0D7
:10026000A5F14100192802D820354FF40067324625
:10027000294620462760FFF795FF40B1012804D0AA
:10028000F61D26F007060836D8E7361DD6E72846BD
:10029000DAE7206ABDE8F0812DE9F0410646002446
:1002A00010687529314616A510D0AFF300800028DC
:1002B00002DA404213A507E031688A0701D512A58A
:1002C00002E0490704D511A5012401E0AFF3008045
:1002D00000210A2206F1240709E0B0FBF2FCB0FB82
:1002E000F2F302FB1C00303078541846491C0028F9
:1002F000F3D123462A463046BDE8F04100F00CB861
:10030000000000002D0000002B0000002000000075
:1003100070477047704770472DE9F0470D46994682
:100320009246044600F124080168880604D5E06975
:1003300021F01001216000E00120A84201DD471BEF
:1003400000E00027A1697A1902EB0900081AA061F0
:100350002078C00602D42046AFF30080002608E0D3
:10036000D4E901211AF806009047206A401C761C47
:1003700020624E45F4DB2078C0060AD52046AFF354
:10038000008006E0D4E9012130209047206A401C1B
:100390002062381EA7F10107F4DC07E0D4E901214F
:1003A00018F805009047206A401C2062281EA5F11D
:1003B0000105F3DC2046AFF300802078000602D56B
:1003C0000220BDE8F0870120FBE70000074B70B575
:1003D0000D467B4400F011F80446284600F020F852
:1003E00010B14FF0FF3070BD204670BDCF2A000025
:1003F00001694A1C02610878704700B58FB0CDE9E9
:1004000001310021059105497944CDE903101146D8
:100410006846FFF70DFF0FB000BD0000E5FFFFFFCE
:10042000007B00F080007047754600F02BF8AE4668
:1004300005006946534620F00700854618B020B5F0
:10044000FFF7D6FEBDE820404FF000064FF0000752
:100450004FF000084FF0000B21F00701AC46ACE86C
:10046000C009ACE8C009ACE8C009ACE8C0098D46D9
:10047000704710B50446AFF300802046BDE8104039
:10048000FFF7A2BE00487047E801002000B585B024
:1004900000BF1848806940F0080016498861084686
:1004A000806900F00800009000BF00BF00BF084650
:1004B000806940F0100088610846806900F01000F3
:1004C000009000BF00BF4FF46040019001200490F5
:1004D0000290039001A9084800F012FE7F200190CD
:1004E000012004900290039001A9044800F008FE46
:1004F00005B000BD00100240000C0140001001409A
:1005000010B5002210211F4800F0A2FF0022022196
:100510001C4800F09DFF002204211A4800F098FFBB
:1005200001220821174800F093FF642002F096FC96
:1005300000220821134800F08BFF00224FF40051E5
:10054000114800F085FF002201210E4800F080FFD5
:10055000072000F059F8002000F056F84A2000F07B
:1005600053F8002000F050F8602000F04DF8012210
:100570000421044800F06CFF00220421014800F02F
:1005800067FF10BD00100140000C01402DE9F04153
:1005900007460C460026384600F054F906250CE0C4
:1005A00016B9022000F030F8691EC9B20D46144A8F
:1005B000505C00F029F8701CC6B2002DF0DC082059
:1005C00000F022F8C4F3072000F01EF8E0B200F0BB
:1005D0001BF8092000F018F8C4F3072000F014F805
:1005E000E0B200F011F801220421064800F030FFCB
:1005F00000220421034800F02BFFBDE8F081000039
:10060000180000200010014070B5044608251CE0C9
:1006100004F0800028B10122D1030D4800F018FF3A
:1006200005E000224FF40041094800F011FF600688
:10063000040E00220221074800F00AFF01220221D5
:10064000044800F005FF681EC5B2002DE0DC70BD57
:10065000000C01400010014000B587B0022001905D
:100660008003039001A801F03FF80C480C49086092
:100670000020486000210A488160C16001210161B9
:100680000021416181614FF46021C16100F0A4FA51
:10069000034800F039F907B000BD00000024014014
:1006A0004001002070B5044600252068806800F0F5
:1006B0000100F0B12068806820F0010021688860A6
:1006C00000F0CCFE05460EE000F0C8FE401B0228FC
:1006D00009D9A06A40F01000A062E06A40F0010071
:1006E000E062012070BD2068806800F001000028F1
:1006F000EAD10020F6E7000038B5044600250020C6
:1007000000902068806800F0010080BB206880684D
:1007100040F0010021688860164800681649B0FB67
:10072000F1F0009002E00098401E00900098002830
:10073000F9D100F093FE054613E000F08FFE401B58
:1007400002280ED9A06A40F01000A062E06A40F0D2
:100750000100E06200BF002084F8240000BF0120F7
:1007600038BD2068806800F001000028E5D0002036
:10077000F6E700000400002040420F0000BFFEE743
:10078000704710B5012000F0ADFC10BD10B504207D
:1007900000F0A8FC10BD10B5082000F0A3FC10BDAF
:1007A00010B5102000F09EFC10BD000000B585B013
:1007B00000BF2048806940F004001E498861084657
:1007C000806900F00400009000BF00BF00BF084631
:1007D000806940F0400088610846806900F0400070
:1007E000009000BF00BF012001901348029002203A
:1007F000039001A9114800F083FC102001900E48DD
:1008000002900120039001A90D4800F079FC00221C
:100810000221062000F064FE062000F054FE0322B0
:1008200002210A2000F05CFE0A2000F04CFE05B018
:1008300000BD00000010024000001110000801403F
:100840000018014018B50146144ACBB28DF80030AB
:100850000B0A8DF801300B0C8DF802300B0E8DF861
:1008600003309DF8003003FB02F00D4C2070000AAD
:100870009DF8013002FB03006070000A9DF8023011
:1008800002FB0300A070000A9DF8033002FB030086
:10089000E070000A2071030A637118BD0A510E004E
:1008A000180000203EB50446009401200190072066
:1008B00002906946074800F0A9F8064800F04CFB92
:1008C0000A21044800F090FA024800F081F980B251
:1008D0003EBD0000400100202DE9F04107460C46D6
:1008E0000025002608E03846FFF7DCFF0544142009
:1008F00002F0B4FA701CC6B2A642F4DBB5FBF4F009
:1009000080B2BDE8F0810000F8B504460026002062
:10091000009000BF94F82400012801D10220F8BD06
:10092000012084F8240000BF2046FFF7BBFE0646E6
:10093000002E62D1A06A20F4885040F00200A0622C
:10094000022000F01FFE30490968B1FBF0F04000C2
:10095000009002E00098401E009000980028F9D115
:100960002046FFF7C9FE2068806840F00800216833
:10097000886000F073FD054611E000F06FFD401B3C
:100980000A280CD9A06A20F0020040F01000A062F2
:1009900000BF002084F8240000BF0120BFE72068CA
:1009A000806800F008000028E7D12068806840F0E7
:1009B00004002168886000F051FD054611E000F058
:1009C0004DFD401B0A280CD9A06A20F0020040F01F
:1009D0001000A06200BF002084F8240000BF0120A6
:1009E0009DE72068806800F004000028E7D1A06A35
:1009F00020F0020040F00100A06200BF002084F857
:100A0000240000BF30468AE70400002078B5024683
:100A100000230020009000BF92F82400012801D19B
:100A2000022078BD012082F8240000BF4868072812
:100A30001DD21068446B0879401E4FF4787595FA02
:100A4000A5F5B5FA85F568431F25854024EA05001C
:100A50000C79641E4FF4787696FAA6F6B6FA86F606
:100A600074430D68A5402843146860633DE04868FE
:100A70000D281DD21068046B0879C01F4FF47875DB
:100A800095FAA5F5B5FA85F568431F25854024EA52
:100A900005000C79E41F4FF4787696FAA6F6B6FABC
:100AA00086F674430D68A5402843146820631CE053
:100AB0001068C46A08790D384FF4787595FAA5F571
:100AC000B5FA85F568431F25854024EA05000C79B1
:100AD0000D3C4FF4787696FAA6F6B6FA86F674438D
:100AE0000D68A54028431468E06208680A281BD3F3
:100AF0001068C46808780A38382595FAA5F5B5FA5B
:100B000085F568430725854024EA05000C780A3CF2
:100B1000382696FAA6F6B6FA86F674438D68A5408E
:100B200028431468E06017E0106800690C783825E5
:100B300095FAA5F5B5FA85F56C430725A540A843B8
:100B40000D78382696FAA6F6B6FA86F675438C68BE
:100B5000AC402043146820610868102802D008685F
:100B6000112827D1174C1068A0421ED11068806848
:100B700000F40000F0B91068806840F400001468C8
:100B8000A0600868102815D10F4800680F4CB0FB12
:100B9000F4F000EB80004000009002E00098401E5E
:100BA000009000980028F9D104E0906A40F02000FD
:100BB0009062012300BF002082F8240000BF184685
:100BC0002FE70000002401400400002040420F00F5
:100BD00001460868C06C70472DE9F04104460027C3
:100BE00000250026A84614B90120BDE8F081A068C0
:100BF00010B1606900B100BFA06A30B90020E062A6
:100C000084F82400204600F0A9F82046FFF74AFDAA
:100C10000746A06A00F0100000287DD1002FFCD10B
:100C2000A06A20F4885040F00200A062484AD4E94B
:100C30000001904208D1E069B0F5402F02D14FF495
:100C4000002002E0E06900E0E0690843022292FA35
:100C5000A2F2B2FA82F2E168914008430643A0682A
:100C6000B0F5807F02D0A068012802D14FF48070D7
:100C700000E0002005436069012816D1E06860B9F2
:100C8000A069401E4FF4604191FAA1F1B1FA81F1DF
:100C9000884040F40060054307E0A06A40F020006F
:100CA000A062E06A40F00100E0622068406820F441
:100CB00069402843216848602068806825490840C9
:100CC000304321688860A068B0F5807F02D0A068BA
:100CD000012802D14FF4807000E00020B0F5807F41
:100CE00009D12069401E4FF4700191FAA1F1B1FAC7
:100CF00081F100FA01F82068C06A20F4700040EA2F
:100D000008002168C8622068806813490840B04222
:100D10000AD10020E06200E012E0A06A20F00200A8
:100D200040F00100A06210E0A06A20F0020040F054
:100D30001000A062E06A40F00100E062012704E0D8
:100D4000A06A40F01000A062012738464DE700007D
:100D5000003C0140FDF7E1FFFE0E1FFF10B586B01D
:100D6000044600BF1E48806940F400701C49886139
:100D70000846806900F40070019000BF00BF00BF0A
:100D80000846806940F0040088610846806900F0E8
:100D90000400019000BF00BF0220029003200390D6
:100DA0000020049002A90F4800F0AAF90420029044
:100DB00002A90C4800F0A4F90820029002A90948F1
:100DC00000F09EF91020029002A9064800F098F960
:100DD0002020029002A9034800F092F906B010BD4D
:100DE0000010024000080140F8B504460D460026F8
:100DF00000200090002700F031FB06462068806844
:100E000000F4807050B1A06A40F02000A06200BFE2
:100E1000002084F8240000BF0120F8BD206840684D
:100E200000F48070F8B92068C06A00F47000D0B98E
:100E300012E0681C80B125B100F010FB801BA842B5
:100E40000AD9A06A40F00400A06200BF002084F824
:100E5000240000BF0320E0E72068006800F00200E3
:100E60000028E6D050E0022000F08CFB36490968EB
:100E7000B1FBF0F021680969344A114091B9216849
:100E8000C9689211114069B921680969304A114055
:100E900031B92168C9689211114009B9142117E0CC
:100EA000292115E021680969294A114021B92168E1
:100EB000C9689211114041B121680969254A114060
:100EC00029B92168C968114009B9542100E0FC2101
:100ED00000FB01F715E0681C80B125B100F0BEFAF7
:100EE000801BA8420AD9A06A40F00400A06200BF9B
:100EF000002084F8240000BF03208EE70098401CE7
:100F000000900098B842E6D36FF0120021680860A4
:100F1000A06A40F40070A0622068806800F460203D
:100F2000B0F5602F0DD1E06858B9A06A20F4807048
:100F3000A062A06A00F4805018B9A06A40F00100D5
:100F4000A062002069E700000400002024499224E8
:100F5000922449124992240070B50446002500BF2E
:100F600094F82400012801D1022070BD012084F8EA
:100F7000240000BF2046FFF7BFFB0546002D77D1B8
:100F8000A06A40F20121884340F48070A0623C498D
:100F90002068884208D13B48006800F4702008B9F6
:100FA000012002E0002000E0012078B1A06A20F4D6
:100FB0008010A0622068406800F4806000B3A06ADE
:100FC00020F4005040F48050A06219E0A06A40F480
:100FD0008010A0622B49091F2068884203D028494D
:100FE0002068884204D12748006800F4806000E04F
:100FF000002028B1A06A20F4005040F48050A06284
:10100000A06A00F4805020B1E06A20F00600E0629F
:1010100001E00020E06200BF002084F8240000BF4F
:10102000C01E216808602068806800F46020B0F568
:10103000602F16D112492068884208D111480068F3
:1010400000F4702008B9012002E0002000E0012037
:1010500038B12068806840F4A000216888600CE006
:1010600006E02068806840F480102168886004E011
:1010700000BF002084F8240000BF284675E7000068
:10108000002801400424014031B5002400F0E6F9B5
:10109000044600BF00F0E2F9001B00998842F9D332
:1010A00038BD000010B50446052001F0CBFE012C30
:1010B00002D0102C0ED104E00121074800F0C0F945
:1010C00008E01021054800F0BBF9012801D10449CE
:1010D000087000BF00BF10BD0008014000180140AB
:1010E0000100002010B5044604480068204020B1EB
:1010F000024804602046FFF7D5FF10BD14040140EC
:101100002DE9F847024600240020002584460027E8
:1011100000237BE14FF0010808FA03F4D1F80080C6
:1011200008EA0400A0427DD1DFF8ECA2D1F80480E7
:10113000A8EB0A09D0453AD014DCB8F1030F50D01F
:1011400009DCB8F1000F31D0B8F1010F1CD0B8F1B3
:10115000020F49D120E0B8F1110F18D0B8F1120FE9
:1011600042D11EE0B9F5881F25D006DCB9F5803FD5
:1011700020D0B9F5801F37D11AE0B9F5001F18D07B
:10118000B9F5041F30D117E0D1F80CC02DE0D1F82B
:101190000C8008F1040C28E0D1F80C8008F1080C50
:1011A00023E0D1F80C8008F10C0C1EE000BF00BF5A
:1011B00000BF00BF00BF00BFD1F80880B8F1000F2A
:1011C00002D14FF0040C0BE0D1F80880B8F1010F08
:1011D00003D14FF0080C146102E04FF0080C546189
:1011E00003E04FF0000C00E000BF00BFFF2801D873
:1011F000904601E002F104084646FF2802D84FEA73
:10120000830803E0A3F108084FEA88084746D6F8A8
:1012100000804FF00F0909FA07F928EA09080CFACB
:1012200007F900E07AE048EA0908C6F80080D1F83A
:10123000048008F08058B8F1805F6FD100BFDFF8FC
:10124000DC81D8F8188048F00108DFF8D091C9F89F
:101250001880C846D8F8188008F00108CDF800803A
:1012600000BF00BF4FEAB9384FEA930958F8295038
:101270004FEA83784FEA18794FF00F0808FA09F817
:1012800025EA0805DFF89881424502D14FF00008B1
:1012900024E0DFF89081424502D14FF001081DE0C3
:1012A000DFF88481424502D14FF0020816E0DFF8F2
:1012B0007C81424502D14FF003080FE0DFF87081D6
:1012C000424502D14FF0040808E0DFF8688142454A
:1012D00002D14FF0050801E04FF006084FEA83798C
:1012E0004FEA197908FA09F848EA0505DFF8488154
:1012F0004FEA930948F82950D1F8048008F480385F
:10130000B8F5803F0BD1DFF83481D8F8008048EA87
:101310000008DFF82891C9F800800AE075E0DFF8DE
:101320001C81D8F8008028EA0008DFF81091C9F87D
:101330000080D1F8048008F40038B8F5003F0ED1E1
:10134000DFF8F88008F10408D8F8008048EA0008BF
:10135000DFF8E89009F10409C9F800800DE0DFF832
:10136000DC8008F10408D8F8008028EA0008DFF8DB
:10137000CC9009F10409C9F80080D1F8048008F480
:101380008018B8F5801F0ED1DFF8B08008F108088A
:10139000D8F8008048EA0008DFF8A09009F10809B1
:1013A000C9F800800DE0DFF8948008F10808D8F84B
:1013B000008028EA0008DFF8849009F10809C9F8DC
:1013C0000080D1F8048008F40018B8F5001F0ED191
:1013D000DFF8688008F10C08D8F8008048EA0008B7
:1013E000DFF8589009F10C09C9F800800DE0DFF82A
:1013F0004C8008F10C08D8F8008028EA0008DFF8D3
:101400003C9009F10C09C9F800805B1C102BFFF41B
:1014100081AEBDE8F8870000000011100010024006
:1014200000080140000C0140001001400014014080
:1014300000180140001C0140080001400004014068
:10144000024693680B400BB1012000E0002070477A
:101450000AB1016101E00B040361704701480068B3
:10146000704700001400002002480068401C014939
:10147000086070471400002010B50848006840F06C
:10148000100006490860032000F068F80F2000F003
:1014900007F800F017F8002010BD000000200240FF
:1014A00070B5044600F02AFB4FF47A71B0FBF1F5F9
:1014B000284600F0FFFF00222146501E00F010F8E1
:1014C000002070BD704700BF00F01F020121914055
:1014D0004209920002F1E022C2F8001100BF7047F9
:1014E0002DE9F05F80460D461646002701F060FAB0
:1014F000074639462A46334601F00700C0F1070A7D
:10150000BAF1040F02D94FF0040A01E0C0F1070A52
:10151000D14600F1040ABAF1070F02D24FF0000AD7
:1015200001E0A0F1030AD4464FF0010A0AFA09FAD1
:10153000AAF1010A0AEA020A0AFA0CFA4FF0010BB0
:101540000BFA0CFBABF1010B0BEA030B4AEA0B04A1
:101550002146404601F034FABDE8F09F00BF00F09C
:101560000702064B19684FF6FF031940044B0B4363
:1015700043EA0221014B196000BF70470CED00E007
:101580000000FA052DE9F04385B006464EA30FCBC7
:1015900001AC0FC450A0006800900024A046A146F2
:1015A00000250027042E43D004DC012E48D0022E53
:1015B00070D170E0082E3FD0102E7FD1474844688C
:1015C000006800F0807068B304F470104FF470117C
:1015D00091FAA1F1B1FA81F1C84001A90F5C04F4BC
:1015E0008030A0B13D48406800F40030710391FAAA
:1015F000A1F1B1FA81F1C8401DF8009004F48030E7
:1016000040B13748B0FBF9F000FB07F502E0354880
:1016100007FB00F53148406800F48000B0F5800F0A
:1016200001D1A84603E068000321B0FBF1F846E0D1
:1016300000F096FA804642E000F092FA80463EE0E2
:101640002648046A04F44070B0F5807F05D104F0A8
:10165000020010B14FF400481BE004F44070B0F5F4
:10166000007F07D11D48406A00F0020010B149F622
:1016700040480EE004F44070B0F5407F07D11748B1
:10168000006800F4003010B14FF2244801E04FF040
:10169000000814E012E000F04DFA01460F484068DF
:1016A00000F440404FF4804292FAA2F2B2FA82F281
:1016B000D040401C4000B1FBF0F800E000BF00BF8C
:1016C000404605B0BDE8F08302030405060708099B
:1016D0000A0B0C0D0E0F101001020000001002404A
:1016E00000127A0000093D00F8B5044600260025E6
:1016F000207800F00100002877D000BF5648C0696C
:1017000040F080505449C8610846C06900F08050DC
:10171000009000BF00BF5148006840F480704F49FE
:101720000860FFF79BFE064606E0FFF797FE801B6A
:10173000642801D90320F8BD4848006800F480708F
:101740000028F2D04448006A00F44075002D5ED0B5
:10175000A08800F44070A84259D03F48006A20F4A5
:1017600040750120010491FAA1F1B1FA81F13C4ADE
:1017700002EB8101C1F8000400204FF4803191FA9E
:10178000A1F1B1FA81F102EB8101C1F80004324804
:10179000056205F0010048B3FFF760FE064608E069
:1017A000FFF75CFE801B41F28831884201D903209B
:1017B000C1E74020022191FAA1F1B1FA81F1084379
:1017C0000121B1EB601F02D12348006811E04020E5
:1017D000022191FAA1F1B1FA81F108430221B1EBA2
:1017E000601F04D11C48006A03E018E00FE01A48AB
:1017F000406A4021022292FAA2F2B2FA82F2114326
:1018000001F01F020121914008400028C8D0124871
:10181000006A20F44070616808430F49086220782C
:1018200000F00200022807D10B48406820F4404035
:10183000A168084308494860207800F0100010288B
:1018400007D10548406820F48000616908430249D7
:10185000486000206FE70000001002400070004068
:101860000000424270B504460D4600269F480068BD
:1018700000F00700A8420ED29C48006820F0070044
:1018800028439A4908600846006800F00700A8420B
:1018900001D0012070BD207800F00200022807D19D
:1018A0009348406820F0F000A168084390494860E0
:1018B000207800F0010000287CD0606801282DD13C
:1018C0002020010391FAA1F1B1FA81F1084301212D
:1018D000B1EB601F02D1864800680FE020200103B1
:1018E00091FAA1F1B1FA81F108430221B1EB601F35
:1018F00002D17F48006A01E07D48406A20210A0346
:1019000092FAA2F2B2FA82F2114301F01F0201210F
:1019100091400840002860D10120BBE760680228A0
:101920002CD12020010591FAA1F1B1FA81F10843EF
:101930000121B1EB601F02D16D4800680FE020204B
:10194000010591FAA1F1B1FA81F108430221B1EB4D
:10195000601F02D16648006A01E06548406A2021A4
:101960000A0592FAA2F2B2FA82F2114301F01F02C2
:1019700001219140084078BB01208BE72020022103
:1019800091FAA1F1B1FA81F108430121B1EB601F95
:1019900002D15748006810E02020022191FAA1F1FD
:1019A000B1FA81F108430221B1EB601F03D1504825
:1019B000006A02E054E04E48406A2021022292FA76
:1019C000A2F2B2FA82F2114301F01F02012191400A
:1019D000084008B901205DE7FFE74548406820F06E
:1019E00003006168084342494860FFF737FD064637
:1019F0006068012810D108E0FFF730FD801B41F23C
:101A00008831884201D9032044E73948406800F012
:101A10000C000428F0D123E06068022810D108E00F
:101A2000FFF71CFD801B41F28831884201D9032059
:101A300030E72F48406800F00C000828F0D10FE094
:101A400008E0FFF70BFD801B41F28831884201D985
:101A500003201FE72648406800F00C000028F0D162
:101A60002248006800F00700A8420ED91F4800680D
:101A700020F0070028431D4908600846006800F070
:101A80000700A84201D0012004E7207800F00400FC
:101A9000042807D11648406820F4E060E168084354
:101AA00013494860207800F00800082808D1104841
:101AB000406820F46050216940EAC1000C49486048
:101AC00000F04EF80A49496801F0F001F02292FA5C
:101AD000A2F2B2FA82F2D140064A515CC8400649ED
:101AE00008600F20FFF7DCFC0020D3E60020024056
:101AF00000100240B42F00080400002001480068D4
:101B0000704700000400002000B5FFF7F7FF074909
:101B1000496801F4E0614FF4E06292FAA2F2B2FA8D
:101B200082F2D140024A515CC84000BD0010024020
:101B3000C42F000800B5FFF7E1FF0749496801F429
:101B400060514FF4605292FAA2F2B2FA82F2D1409E
:101B5000024A515CC84000BD00100240C42F00087A
:101B6000F0B585B00FF28C0C9CE8E01001A8A0E85D
:101B7000E01024A52D6800950021002400220023F8
:101B80000020214D696801F00C056DB3042D02D0D1
:101B9000082D28D101E01D4828E001F470154FF40C
:101BA000701696FAA6F6B6FA86F6F54001AE735DA3
:101BB00001F4803595B1144D6D6805F400354FF48E
:101BC000003696FAA6F6B6FA86F6F5401DF80540F8
:101BD0000E4DB5FBF4F505FB03F202E00C4D03FBE3
:101BE00005F2104602E000BF084800BF00BF05B084
:101BF000F0BD000002030405060708090A0B0C0DDE
:101C00000E0F1010010200000010024000127A00B6
:101C100000093D0038B504460025207800F0010099
:101C200000287CD0F848406800F00C0004280CD054
:101C3000F548406800F00C00082837D1F2484068A9
:101C400000F48030B0F5803F30D12020010391FABC
:101C5000A1F1B1FA81F108430121B1EB601F02D17A
:101C6000E94800680FE02020010391FAA1F1B1FAE0
:101C700081F108430221B1EB601F02D1E248006A02
:101C800001E0E148406A20210A0392FAA2F2B2FA86
:101C900082F2114301F01F02012191400840002807
:101CA000BFD0606800283AD1012038BD00BF60680D
:101CB000B0F5803F06D1D448006840F48030D24966
:101CC000086028E0606858B9CF48006820F4803088
:101CD000CD4908600846006820F4802008601AE0BA
:101CE0006068B0F5A02F0BD1C748006840F4802091
:101CF000C54908600846006840F4803008600AE082
:101D0000C148006820F48030BF4908600846006878
:101D100020F48020086000BF6068C8B300E06FE076
:101D2000FFF79CFB054606E0FFF798FB401B642885
:101D300001D90320B9E72020010391FAA1F1B1FAFA
:101D400081F108430121B1EB601F02D1AE48006868
:101D50000FE02020010391FAA1F1B1FA81F10843CB
:101D60000221B1EB601F02D1A748006A01E0A6483A
:101D7000406A20210A0392FAA2F2B2FA82F21143D7
:101D800001F01F020121914008400028CCD037E02B
:101D9000FFE7FFF763FB054606E0FFF75FFB401B2D
:101DA000642801D9032080E72020010391FAA1F1E2
:101DB000B1FA81F108430121B1EB601F02D19248D1
:101DC00000680FE02020010391FAA1F1B1FA81F13E
:101DD00008430221B1EB601F02D18B48006A01E089
:101DE0008948406A20210A0392FAA2F2B2FA82F2EA
:101DF000114301F01F020121914008400028CCD17D
:101E0000207800F0020002284ED17F48406800F0A0
:101E10000C0050B17C48406800F00C00082844D108
:101E20007948406800F4803078BB2020022191FA84
:101E3000A1F1B1FA81F108430121B1EB601F02D198
:101E4000714800680FE02020022191FAA1F1B1FA57
:101E500081F108430221B1EB601F02D16A48006A98
:101E600001E06948406A2021022292FAA2F2B2FA05
:101E700082F2114301F01F0201219140084028B174
:101E80002069012802D001200FE70EE05E480068BB
:101E900020F0F800F82292FAA2F2B2FA82F2616916
:101EA000914008435849086091E02069F0B301204F
:101EB00090FAA0F1B1FA81F1544A42F82100FFF7FB
:101EC000CDFA054606E0FFF7C9FA401B022801D902
:101ED0000320EAE62020022191FAA1F1B1FA81F172
:101EE00008430121B1EB601F02D1474800680FE0B1
:101EF0002020022191FAA1F1B1FA81F108430221D7
:101F0000B1EB601F02D14048006A01E03E48406AE0
:101F10002021022292FAA2F2B2FA82F2114301F0D7
:101F20001F02012191400840002800E00FE0CAD0C4
:101F30003548006820F0F800F82292FAA2F2B2FACE
:101F400082F26169914008432F4908603FE0002018
:101F5000012191FAA1F1B1FA81F12C4A42F8210054
:101F6000FFF77CFA054606E0FFF778FA401B0228E7
:101F700001D9032099E62020022191FAA1F1B1FABA
:101F800081F108430121B1EB601F02D11E480068B6
:101F90000FE02020022191FAA1F1B1FA81F108436A
:101FA0000221B1EB601F02D11748006A01E0164818
:101FB000406A2021022292FAA2F2B2FA82F211437E
:101FC00001F01F020121914008400028CCD1207867
:101FD00000F0080008284BD1A069A8B3012191FAAC
:101FE000A1F0B0FA80F0094A02EB8000C0F880143A
:101FF000FFF734FA05460BE0FFF730FA401B0228E2
:1020000006D9032051E600000010024000004242C1
:102010006020022191FAA1F1B1FA81F10843012176
:10202000B1EB601F02D1F948006810E06020022186
:1020300091FAA1F1B1FA81F108430221B1EB601FDD
:1020400003D1F248006A02E013E0F048406A6021E0
:10205000022292FAA2F2B2FA82F2114301F01F02B6
:102060000121914008400028C6D00120FFF70CF85C
:1020700041E00020012191FAA1F1B1FA81F1E44A95
:1020800002EB8101C1F88004FFF7E8F9054606E09C
:10209000FFF7E4F9401B022801D9032005E6602080
:1020A000022191FAA1F1B1FA81F108430121B1EBCA
:1020B000601F02D1D54800680FE06020022191FA2C
:1020C000A1F1B1FA81F108430221B1EB601F02D105
:1020D000CE48006A01E0CD48406A6021022292FAAF
:1020E000A2F2B2FA82F2114301F01F0201219140E3
:1020F00008400028CCD1207800F00400042875D1D5
:1021000000BFC248C06940F08050C049C86108465D
:10211000C06900F08050009000BF00BFBD4800685B
:1021200040F48070BB490860FFF798F9054606E067
:10213000FFF794F9401B642801D90320B5E5B548A1
:10214000006800F480700028F2D000BFE068012829
:1021500006D1AE48006A40F00100AC49086227E0B1
:10216000E06858B9A948006A20F00100A749086250
:102170000846006A20F00400086219E0E0680528BB
:102180000BD1A248006A40F00400A049086208464A
:10219000006A40F0010008620AE09C48006A20F0F2
:1021A00001009A4908620846006A20F004000862AB
:1021B00000BFE068D0B3FFF751F9054608E0FFF72C
:1021C0004DF9401B41F28831884201D903206CE56A
:1021D0004020022191FAA1F1B1FA81F108430121D5
:1021E000B1EB601F03D18948006810E058E040203F
:1021F000022191FAA1F1B1FA81F108430221B1EB78
:10220000601F02D18148006A01E08048406A402195
:10221000022292FAA2F2B2FA82F2114301F01F02F4
:102220000121914008400028C9D039E0FFE7FFF7BD
:1022300015F9054608E0FFF711F9401B41F2883116
:10224000884201D9032030E54020022191FAA1F112
:10225000B1FA81F108430121B1EB601F02D16B4853
:1022600000680FE04020022191FAA1F1B1FA81F15A
:1022700008430221B1EB601F02D16448006A01E00B
:102280006248406A4021022292FAA2F2B2FA82F235
:10229000114301F01F020121914008400028CAD1DA
:1022A000E069002873D05948406800F00C00082805
:1022B0006ED0E06902286CD100204FF0807191FA55
:1022C000A1F1B1FA81F1524A42F82100FFF7C6F8B4
:1022D000054606E0FFF7C2F8401B022801D903209B
:1022E000E3E42020010591FAA1F1B1FA81F108435C
:1022F0000121B1EB601F02D1444800680FE02020AB
:10230000010591FAA1F1B1FA81F108430221B1EB83
:10231000601F02D13D48006A01E03C48406A20212C
:102320000A0592FAA2F2B2FA82F2114301F01F02F8
:102330000121914008400028CCD1206AB0F5803FAF
:1023400007D13248406820F40030A16808432F4983
:102350004860D4E9080108432C49496821F4741104
:1023600008432A4948600121080690FAA0F0B0FA13
:1023700080F0274A42F82010FFF770F8054609E080
:10238000FFF76CF8401B022804D903208DE479E0A4
:1023900076E02CE02020010591FAA1F1B1FA81F15B
:1023A00008430121B1EB601F02D1184800680FE01B
:1023B0002020010591FAA1F1B1FA81F1084302212F
:1023C000B1EB601F02D11148006A01E00F48406A7A
:1023D00020210A0592FAA2F2B2FA82F2114301F028
:1023E0001F020121914008400028C9D04AE0002086
:1023F0004FF0807191FAA1F1B1FA81F1044A42F8EB
:102400002100FFF72BF805460DE000000010024008
:102410000000424200700040FFF720F8401B0228F5
:1024200001D9032041E42020010591FAA1F1B1FA7C
:1024300081F108430121B1EB601F02D1124800680D
:102440000FE02020010591FAA1F1B1FA81F10843D2
:102450000221B1EB601F02D10B48006A01E00A487B
:10246000406A20210A0592FAA2F2B2FA82F21143DE
:1024700001F01F020121914008400028CCD101E069
:10248000012012E4002010E400100240042808D1CA
:102490004FF0E021096941F004014FF0E0221161A1
:1024A00007E04FF0E021096921F004014FF0E0223C
:1024B0001161704770B504462546681EB0F1807FF3
:1024C00001D301200FE0681E4FF0E02148610F2189
:1024D0004FF0FF3000F074FA00204FF0E0218861E7
:1024E00007200861002070BD70477047704710B525
:1024F000044620680069C0F34000D8B12068C06875
:10250000C0F34000B0B16FF0020021680861012003
:1025100020762068806900F0030018B12046FFF79C
:10252000E5FF05E0204600F0ADF8204600F0ABF8EE
:102530000020207620680069C0F38000D8B12068B0
:10254000C068C0F38000B0B16FF00400216808617A
:10255000022020762068806900F4407018B120467F
:10256000FFF7C4FF05E0204600F08CF8204600F09D
:102570008AF80020207620680069C0F3C000D8B136
:102580002068C068C0F3C000B0B16FF008002168D7
:102590000861042020762068C06900F0030018B1AB
:1025A0002046FFF7A3FF05E0204600F06BF8204629
:1025B00000F069F80020207620680069C0F3001060
:1025C000D8B12068C068C0F30010B0B16FF010003F
:1025D00021680861082020762068C06900F44070F6
:1025E00018B12046FFF782FF05E0204600F04AF8C8
:1025F000204600F048F8002020762068006900F0AE
:10260000010058B12068C06800F0010030B16FF0DF
:10261000010021680861204600F036F82068006952
:10262000C0F3C01058B12068C068C0F3C01030B10A
:102630006FF08000216808612046FFF755FF206891
:102640000069C0F3801058B12068C068C0F38010E2
:1026500030B16FF0400021680861204600F01CF89E
:1026600020680069C0F3401058B12068C068C0F30A
:10267000401030B16FF02000216808612046FFF75C
:1026800034FF10BD704770470249884200D000BF38
:10269000704700007001002070477047014691F8B4
:1026A00039007047F8B50446002500262068006808
:1026B00000F001052068C06800F4807625B11EB1E5
:1026C000E06B40F00100E06320680068C0F3400563
:1026D0002068406900F0010625B11EB1E06B40F0B2
:1026E0000400E06320680068C0F3800525B11EB1D6
:1026F000E06B40F00200E06320680068C0F3C005B2
:1027000025B11EB1E06B40F00800E063206800686E
:10271000C0F340152068C06800F020061DB116B156
:10272000204600F0E7F920680068C0F3C015206873
:10273000C06800F080061DB116B1204600F01CFBF9
:1027400020680068C0F380152068C06800F040066B
:102750001DB116B1204600F0B5F9E06B70B100BFB5
:1027600020680068009020684068009000BF00BFAB
:10277000012084F839002046FFF78FFFF8BD10B51F
:1027800004460CB9012010BDA06900B100E000BFF3
:1027900094F8390028B9002084F83800204600F069
:1027A00025F8022084F839002068C06820F4005021
:1027B0002168C860204600F0FBF92068006920F419
:1027C0009040216808612068406920F02A00216853
:1027D00048612068C06840F400502168C86000204B
:1027E000E063012084F839000020CCE710B586B002
:1027F000044625492068884244D100BF23488069A7
:1028000040F00400214988610846806900F0040016
:10281000019000BF00BF00BF0846806940F48040BF
:1028200088610846806900F48040019000BF00BFC5
:1028300000BF0846806940F0010088610846806951
:1028400000F00100019000BF00BF48150290022077
:102850000390012004900320059002A90C48FEF784
:102860004FFC4FF4806002900020039002A90848BA
:10287000FEF746FC2520FEF726FE03221146252002
:10288000FEF72EFE06B010BD0038014000100240D9
:102890000008014030B50346002493F83940012C6C
:1028A00001D0122C37D101B10AB9012030BD00BFCF
:1028B00093F83800012801D10220F7E7012083F8BE
:1028C000380000BF99629A85DA850020D86393F8B2
:1028D0003900122803D1322083F8390002E0222087
:1028E00083F8390000BF002083F8380000BF186863
:1028F000C06840F480701D68E8601868406940F066
:1029000001001D6868611868C06840F020001D68FB
:10291000E8600020CAE70220C8E700001D4A0168FD
:10292000914236D11C49098801F4004189BB1A49FA
:10293000098801F4804171B1184909780A2903D046
:102940000021154A118024E01349098841F400410F
:10295000114A11801DE0114909780D2906D10E494F
:10296000098841F480410C4A118012E00B49097832
:10297000094A1288C2F30D02094B99540649098885
:10298000491C054A118011460988C72901DD00212B
:1029900011807047003801400C0000200E0000201C
:1029A00038000020704700BFFEE700BFFEE7704719
:1029B00002480068C0F30220704700000CED00E000
:1029C00010B5002807DA0A07140E054A00F00F03B5
:1029D0001B1FD45403E00A07130E024A135410BD00
:1029E00018ED00E000E400E07047704730B58FB0AC
:1029F0000546002401200590000406900020079061
:102A000002200C90C1030D910E9505A8FFF702F965
:102A100004460CB100BFFEE70F2000900220019099
:102A2000002002904FF48060039000200490022167
:102A30006846FEF717FF04460CB100BFFEE70FB073
:102A400030BD10B5FEF710FD10BD00001148006844
:102A500040F001000F490860084640680E490840F0
:102A60000C494860084600680C490840094908605C
:102A70000846006820F4802008600846406820F47A
:102A8000FE0048604FF41F008860C80304490860D6
:102A900070470000001002400000FFF8FFFFF6FE44
:102AA00008ED00E010B50248FFF721FD10BD000061
:102AB0007001002010B50248FFF719FD10BD00009D
:102AC000AC01002010B504462068C06820F040002A
:102AD0002168C86094F83900322803D1222084F894
:102AE000390002E0012084F839002046FFF75AFF40
:102AF000002010BD70B50446002694F83960222EDF
:102B000001D0322E52D1A068B0F5805F13D1A56AF2
:102B1000206940B920684068C0F308002880A06A96
:102B2000801CA06219E020684068C0B22880A06ABA
:102B3000401CA06211E0206938B920684068C1B229
:102B4000A26A501CA062117007E02068406800F083
:102B50007F01A26A501CA0621170E08D401E80B2FD
:102B6000E08508BB2068C06820F020002168C860AC
:102B700094F83900322803D1122084F839000EE08D
:102B80002068C06820F480702168C86020684069AF
:102B900020F0010021684861012084F839002046B6
:102BA000FFF7BCFE002070BD0020FCE70220FAE722
:102BB0002DE9F041044600252068006920F44050CA
:102BC000E1680843216808612169A06808436169D8
:102BD00040EA01052068C06841F20C61884328433F
:102BE0002168C8602068406920F44070A1690843EA
:102BF000216848615F49206888425CD1FEF79AFFEE
:102C000000EBC00101EB001061688900B0FBF1F638
:102C1000FEF790FF00EBC00101EB00106168890036
:102C2000B0FBF1F06421B0FBF1F000EBC00101EB6F
:102C30000010A6EB8000322101EB00106421B0FBF4
:102C4000F1F000F0F006FEF775FF00EBC00101EBBC
:102C5000001061688900B0FBF1F06421B0FBF1F075
:102C600006EB0016FEF766FF00EBC00101EB00105B
:102C700061688900B0FBF1F7FEF75CFF00EBC00173
:102C800001EB001061688900B0FBF1F06421B0FB3A
:102C9000F1F000EBC00101EB0010A7EB8000322146
:102CA00001EB00106421B0FBF1F000F00F003044A4
:102CB000216888605BE0FEF727FF00EBC00101EBB5
:102CC000001061688900B0FBF1F6FEF71DFF00EB14
:102CD000C00101EB001061688900B0FBF1F06421D4
:102CE000B0FBF1F000EBC00101EB0010A6EB80009F
:102CF000322101EB00106421B0FBF1F000F0F0068E
:102D0000FEF702FF00EBC00101EB001061688900D3
:102D1000B0FBF1F06421B0FBF1F006EB0016FEF71A
:102D2000F3FE00EBC00101EB001061688900B0FB0D
:102D3000F1F7FEF7E9FE00EBC00101EB001061685E
:102D40008900B0FBF1F06421B0FBF1F000EBC001B1
:102D500001EB0010A7EB8000322101EB0010642191
:102D6000B0FBF1F000F00F00304421688860BDE84E
:102D7000F08100000038014010B50146002391F8B1
:102D80003930122B01D0322B2CD18868B0F5805FFE
:102D90000FD10A6A1088C0F308000C6860600869E7
:102DA00018B9086A801C086209E0086A401C0862B9
:102DB00005E00C6A601C086220780C686060C88CB2
:102DC000401E80B2C88458B90868C06820F08000EE
:102DD0000C68E0600868C06840F040000C68E06083
:102DE000002010BD0220FCE710B500240C48FFF7BE
:102DF00059FC00BF01E0641C00BF0948FFF74EFC0E
:102E00000128F8D100BF002401E0641C00BF0122AA
:102E100004490348FFF73EFD0028F6D100BF10BD6E
:102E2000000100200E00002000BFFEE700BF704739
:102E300010B504460420FFF729FB0148046010BDCB
:102E40001000002030B50446002504E04FF47A70ED
:102E500000F004F86D1CA542F8D330BD70B50346F0
:102E600000224FF0E02675690D4E366803FB06F42C
:102E70004FF0E026B16910E04FF0E026B0698842DB
:102E80000BD0884202D20E1A324402E02E1A0E44AF
:102E900032440146A24200D300E0EDE700BF70BD1E
:102EA0001000002000BF054A126802F04002002A0C
:102EB000F9D0C2B2014B1B1D1A60704700380140A7
:102EC00000BFFEF7D9FA4FF4E010FFF78FFD48205E
:102ED000FFF7AEFF4FF4E13000F050F8FDF766FC6D
:102EE000FDF7BAFBFDF7D2FAFDF70AFB40F6FF71DA
:102EF0004FF47A70FDF74AFB2FE01848007801285C
:102F00002BD1002424E004EB4400C0EBC4104FF4A8
:102F10007A7101EBC00540F6FF712846FDF736FBDC
:102F20001420FFF78FFF03210220FDF7D5FC0C4989
:102F3000488003210846FDF7CFFC094988800846F0
:102F400083884288294607A0FDF766F9601CC4B251
:102F5000642CD8DB002001490870CEE70100002076
:102F60002C0000206672653D25642C6164323D258D
:102F7000642C6164333D25640D0A000010B50446DD
:102F800009480A4908600846446000218160C16020
:102F9000016181610C214161FFF7F1FB01220449CC
:102FA0000248FFF777FC10BD003801400001002007
:102FB0000E000020000000000000000001020304D9
:102FC000060708090000000001020304EC2F0008B6
:102FD000000000202C0000006C01000818300008E0
:102FE0002C0000201C4200008801000800000000A6
:102FF00000A24A04000000000000000000000000E1
:1030000000000000000000000000000000000000C0
:083010000000000000000000B8
:0400000508000131BD
:00000001FF
